{"contracts/InvestmentClub.sol":{"InvestmentClub":{"abi":[{"inputs":[],"stateMutability":"nonpayable","type":"constructor"},{"anonymous":false,"inputs":[{"indexed":false,"internalType":"uint256","name":"id","type":"uint256"},{"indexed":false,"internalType":"string","name":"name","type":"string"},{"indexed":false,"internalType":"uint256","name":"memberCounter","type":"uint256"},{"indexed":false,"internalType":"uint256","name":"proposalCounter","type":"uint256"},{"indexed":false,"internalType":"uint256","name":"pool","type":"uint256"},{"indexed":false,"internalType":"string","name":"CID","type":"string"}],"name":"ClubInfoEvent","type":"event"},{"anonymous":false,"inputs":[{"indexed":true,"internalType":"uint256","name":"clubId","type":"uint256"},{"indexed":false,"internalType":"uint256","name":"proposalId","type":"uint256"},{"indexed":false,"internalType":"address","name":"creator","type":"address"},{"indexed":false,"internalType":"uint256","name":"amount","type":"uint256"},{"indexed":false,"internalType":"address","name":"destination","type":"address"},{"indexed":false,"internalType":"string","name":"description","type":"string"},{"indexed":false,"internalType":"string","name":"Cid","type":"string"}],"name":"ProposalCreated","type":"event"},{"anonymous":false,"inputs":[{"indexed":false,"internalType":"uint256","name":"clubId","type":"uint256"},{"indexed":false,"internalType":"uint256","name":"proposalId","type":"uint256"},{"indexed":false,"internalType":"address","name":"creator","type":"address"},{"indexed":false,"internalType":"uint256","name":"amount","type":"uint256"},{"indexed":false,"internalType":"address","name":"destination","type":"address"},{"indexed":false,"internalType":"string","name":"status","type":"string"},{"indexed":false,"internalType":"string","name":"description","type":"string"},{"indexed":false,"internalType":"uint256","name":"votesFor","type":"uint256"},{"indexed":false,"internalType":"uint256","name":"votesAgainst","type":"uint256"},{"indexed":false,"internalType":"uint256","name":"proposedAt","type":"uint256"},{"indexed":false,"internalType":"uint256","name":"proposalExpireAt","type":"uint256"},{"indexed":false,"internalType":"string","name":"Cid","type":"string"}],"name":"ProposalInfoEvent","type":"event"},{"inputs":[{"internalType":"uint256","name":"clubId","type":"uint256"},{"internalType":"uint256","name":"proposalId","type":"uint256"}],"name":"closeProposal","outputs":[],"stateMutability":"nonpayable","type":"function"},{"inputs":[{"internalType":"uint256","name":"clubId","type":"uint256"}],"name":"contributeToClub","outputs":[],"stateMutability":"payable","type":"function"},{"inputs":[{"internalType":"string","name":"name","type":"string"},{"internalType":"string","name":"Cid","type":"string"}],"name":"createClub","outputs":[{"internalType":"uint256","name":"","type":"uint256"}],"stateMutability":"nonpayable","type":"function"},{"inputs":[{"internalType":"uint256","name":"clubId","type":"uint256"},{"internalType":"uint256","name":"amount","type":"uint256"},{"internalType":"address","name":"destination","type":"address"},{"internalType":"string","name":"description","type":"string"},{"internalType":"string","name":"Cid","type":"string"}],"name":"createProposal","outputs":[],"stateMutability":"nonpayable","type":"function"},{"inputs":[{"internalType":"uint256","name":"clubId","type":"uint256"},{"internalType":"uint256","name":"proposalId","type":"uint256"}],"name":"executeProposal","outputs":[],"stateMutability":"payable","type":"function"},{"inputs":[{"internalType":"address","name":"userAddress","type":"address"},{"internalType":"uint256","name":"clubId","type":"uint256"}],"name":"getBalanceByClub","outputs":[{"internalType":"uint256","name":"","type":"uint256"}],"stateMutability":"view","type":"function"},{"inputs":[{"internalType":"uint256","name":"clubId","type":"uint256"}],"name":"getClubById","outputs":[{"components":[{"internalType":"uint256","name":"clubId","type":"uint256"},{"internalType":"string","name":"name","type":"string"},{"internalType":"uint256","name":"memberCount","type":"uint256"},{"internalType":"uint256","name":"proposalCount","type":"uint256"},{"internalType":"uint256","name":"pool","type":"uint256"},{"internalType":"string","name":"CID","type":"string"}],"internalType":"struct InvestmentClub.ClubInfo","name":"","type":"tuple"}],"stateMutability":"view","type":"function"},{"inputs":[],"name":"getMyClubs","outputs":[{"components":[{"internalType":"uint256","name":"clubId","type":"uint256"},{"internalType":"string","name":"name","type":"string"},{"internalType":"uint256","name":"memberCount","type":"uint256"},{"internalType":"uint256","name":"proposalCount","type":"uint256"},{"internalType":"uint256","name":"pool","type":"uint256"},{"internalType":"string","name":"CID","type":"string"}],"internalType":"struct InvestmentClub.ClubInfo[]","name":"","type":"tuple[]"}],"stateMutability":"nonpayable","type":"function"},{"inputs":[{"internalType":"uint256","name":"clubId","type":"uint256"},{"internalType":"uint256","name":"proposalId","type":"uint256"}],"name":"getProposalById","outputs":[{"components":[{"internalType":"uint256","name":"id","type":"uint256"},{"internalType":"address","name":"creator","type":"address"},{"internalType":"uint256","name":"amount","type":"uint256"},{"internalType":"address","name":"destination","type":"address"},{"internalType":"string","name":"status","type":"string"},{"internalType":"string","name":"description","type":"string"},{"internalType":"uint256","name":"votesFor","type":"uint256"},{"internalType":"uint256","name":"votesAgainst","type":"uint256"},{"internalType":"uint256","name":"proposedAt","type":"uint256"},{"internalType":"uint256","name":"proposalExpireAt","type":"uint256"},{"internalType":"string","name":"Cid","type":"string"}],"internalType":"struct InvestmentClub.ProposalInfo","name":"","type":"tuple"}],"stateMutability":"nonpayable","type":"function"},{"inputs":[{"internalType":"uint256","name":"clubId","type":"uint256"}],"name":"getProposalsByClub","outputs":[{"components":[{"internalType":"uint256","name":"id","type":"uint256"},{"internalType":"address","name":"creator","type":"address"},{"internalType":"uint256","name":"amount","type":"uint256"},{"internalType":"address","name":"destination","type":"address"},{"internalType":"string","name":"status","type":"string"},{"internalType":"string","name":"description","type":"string"},{"internalType":"uint256","name":"votesFor","type":"uint256"},{"internalType":"uint256","name":"votesAgainst","type":"uint256"},{"internalType":"uint256","name":"proposedAt","type":"uint256"},{"internalType":"uint256","name":"proposalExpireAt","type":"uint256"},{"internalType":"string","name":"Cid","type":"string"}],"internalType":"struct InvestmentClub.ProposalInfo[]","name":"","type":"tuple[]"}],"stateMutability":"view","type":"function"},{"inputs":[{"internalType":"address","name":"sender","type":"address"},{"internalType":"uint256","name":"proposalId","type":"uint256"},{"internalType":"uint256","name":"clubId","type":"uint256"}],"name":"hasVoted","outputs":[{"internalType":"bool","name":"","type":"bool"}],"stateMutability":"view","type":"function"},{"inputs":[{"internalType":"uint256","name":"clubId","type":"uint256"}],"name":"isClubFull","outputs":[{"internalType":"bool","name":"","type":"bool"}],"stateMutability":"view","type":"function"},{"inputs":[{"internalType":"uint256","name":"clubId","type":"uint256"}],"name":"isClubIdExist","outputs":[{"internalType":"bool","name":"","type":"bool"}],"stateMutability":"view","type":"function"},{"inputs":[{"internalType":"address","name":"memberAddress","type":"address"},{"internalType":"uint256","name":"clubId","type":"uint256"}],"name":"isMemberOfClub","outputs":[{"internalType":"bool","name":"","type":"bool"}],"stateMutability":"view","type":"function"},{"inputs":[{"internalType":"uint256","name":"proposalId","type":"uint256"},{"internalType":"uint256","name":"clubId","type":"uint256"}],"name":"isProposalIdExist","outputs":[{"internalType":"bool","name":"","type":"bool"}],"stateMutability":"view","type":"function"},{"inputs":[{"internalType":"uint256","name":"clubId","type":"uint256"},{"internalType":"uint256","name":"proposalId","type":"uint256"}],"name":"isVotingOn","outputs":[{"internalType":"bool","name":"","type":"bool"}],"stateMutability":"view","type":"function"},{"inputs":[{"internalType":"uint256","name":"clubId","type":"uint256"}],"name":"joinClub","outputs":[],"stateMutability":"nonpayable","type":"function"},{"inputs":[{"internalType":"uint256","name":"clubId","type":"uint256"}],"name":"leaveClub","outputs":[],"stateMutability":"nonpayable","type":"function"},{"inputs":[],"name":"listClubs","outputs":[{"components":[{"internalType":"uint256","name":"clubId","type":"uint256"},{"internalType":"string","name":"name","type":"string"},{"internalType":"uint256","name":"memberCount","type":"uint256"},{"internalType":"uint256","name":"proposalCount","type":"uint256"},{"internalType":"uint256","name":"pool","type":"uint256"},{"internalType":"string","name":"CID","type":"string"}],"internalType":"struct InvestmentClub.ClubInfo[]","name":"","type":"tuple[]"}],"stateMutability":"view","type":"function"},{"inputs":[{"internalType":"uint256","name":"clubId","type":"uint256"},{"internalType":"uint256","name":"proposalId","type":"uint256"},{"internalType":"bool","name":"vote","type":"bool"}],"name":"voteOnProposal","outputs":[],"stateMutability":"nonpayable","type":"function"}],"evm":{"bytecode":{"linkReferences":{},"object":"608060405234801561001057600080fd5b50600060018190555061411c806100286000396000f3fe60806040526004361061011f5760003560e01c80635ff847fb116100a0578063c3741fed11610064578063c3741fed14610415578063c467087814610452578063e15427421461048f578063e7613ea8146104b8578063eec8e0db146104e15761011f565b80635ff847fb1461030a5780636764fd4814610335578063890e24561461037257806389972a32146103af578063ab7ca348146103d85761011f565b806334fa3d83116100e757806334fa3d831461021357806335a1930f146102505780634d7f75c31461028d578063549710be146102b657806354a2e233146102e15761011f565b8063058694a9146101245780630ee294041461016157806314204fc61461019e5780631ab76712146101db578063288509b4146101f7575b600080fd5b34801561013057600080fd5b5061014b60048036038101906101469190612829565b61051e565b6040516101589190612afe565b60405180910390f35b34801561016d57600080fd5b5061018860048036038101906101839190612b4c565b6108ce565b6040516101959190612bba565b60405180910390f35b3480156101aa57600080fd5b506101c560048036038101906101c09190612bd5565b61094d565b6040516101d29190612d12565b60405180910390f35b6101f560048036038101906101f09190612bd5565b610d4d565b005b610211600480360381019061020c9190612829565b611060565b005b34801561021f57600080fd5b5061023a60048036038101906102359190612d34565b6111ca565b6040516102479190612bba565b60405180910390f35b34801561025c57600080fd5b5061027760048036038101906102729190612ea9565b611279565b6040516102849190612f30565b60405180910390f35b34801561029957600080fd5b506102b460048036038101906102af9190612829565b6113d4565b005b3480156102c257600080fd5b506102cb61150e565b6040516102d8919061309d565b60405180910390f35b3480156102ed57600080fd5b50610308600480360381019061030391906130eb565b61179a565b005b34801561031657600080fd5b5061031f611a18565b60405161032c919061309d565b60405180910390f35b34801561034157600080fd5b5061035c60048036038101906103579190612829565b611c32565b6040516103699190612bba565b60405180910390f35b34801561037e57600080fd5b5061039960048036038101906103949190612d34565b611c54565b6040516103a69190612f30565b60405180910390f35b3480156103bb57600080fd5b506103d660048036038101906103d1919061313e565b611cbf565b005b3480156103e457600080fd5b506103ff60048036038101906103fa9190612bd5565b611f88565b60405161040c9190612bba565b60405180910390f35b34801561042157600080fd5b5061043c60048036038101906104379190612829565b611fc3565b6040516104499190613281565b60405180910390f35b34801561045e57600080fd5b5061047960048036038101906104749190612829565b61218c565b6040516104869190612bba565b60405180910390f35b34801561049b57600080fd5b506104b660048036038101906104b19190612829565b6121ae565b005b3480156104c457600080fd5b506104df60048036038101906104da9190612bd5565b612385565b005b3480156104ed57600080fd5b5061050860048036038101906105039190612bd5565b6125bc565b6040516105159190612bba565b60405180910390f35b606061052982611c32565b610568576040517f08c379a000000000000000000000000000000000000000000000000000000000815260040161055f90613300565b60405180910390fd5b600080600084815260200190815260200160002090506000816006015467ffffffffffffffff81111561059e5761059d612d7e565b5b6040519080825280602002602001820160405280156105d757816020015b6105c4612680565b8152602001906001900390816105bc5790505b509050600080600190505b836006015481116108c25760008460050160008381526020019081526020016000209050604051806101600160405280826000015481526020018260010160009054906101000a900473ffffffffffffffffffffffffffffffffffffffff1673ffffffffffffffffffffffffffffffffffffffff168152602001826002015481526020018260030160009054906101000a900473ffffffffffffffffffffffffffffffffffffffff1673ffffffffffffffffffffffffffffffffffffffff1681526020018260040180546106b59061334f565b80601f01602080910402602001604051908101604052809291908181526020018280546106e19061334f565b801561072e5780601f106107035761010080835404028352916020019161072e565b820191906000526020600020905b81548152906001019060200180831161071157829003601f168201915b505050505081526020018260050180546107479061334f565b80601f01602080910402602001604051908101604052809291908181526020018280546107739061334f565b80156107c05780601f10610795576101008083540402835291602001916107c0565b820191906000526020600020905b8154815290600101906020018083116107a357829003601f168201915b505050505081526020018260060154815260200182600701548152602001826008015481526020018260090154815260200182600a0180546108019061334f565b80601f016020809104026020016040519081016040528092919081815260200182805461082d9061334f565b801561087a5780601f1061084f5761010080835404028352916020019161087a565b820191906000526020600020905b81548152906001019060200180831161085d57829003601f168201915b505050505081525084848151811061089557610894613381565b5b602002602001018190525082806108ab906133df565b9350505080806108ba906133df565b9150506105e2565b50819350505050919050565b60008060008381526020019081526020016000206005016000848152602001908152602001600020600b0160008573ffffffffffffffffffffffffffffffffffffffff1673ffffffffffffffffffffffffffffffffffffffff16815260200190815260200160002060009054906101000a900460ff1690509392505050565b610955612680565b61095e83611c32565b61099d576040517f08c379a000000000000000000000000000000000000000000000000000000000815260040161099490613474565b60405180910390fd5b6109a782846125bc565b6109e6576040517f08c379a00000000000000000000000000000000000000000000000000000000081526004016109dd906134e0565b60405180910390fd5b6000806000858152602001908152602001600020600501600084815260200190815260200160002090506000604051806101600160405280836000015481526020018360010160009054906101000a900473ffffffffffffffffffffffffffffffffffffffff1673ffffffffffffffffffffffffffffffffffffffff168152602001836002015481526020018360030160009054906101000a900473ffffffffffffffffffffffffffffffffffffffff1673ffffffffffffffffffffffffffffffffffffffff168152602001836004018054610ac19061334f565b80601f0160208091040260200160405190810160405280929190818152602001828054610aed9061334f565b8015610b3a5780601f10610b0f57610100808354040283529160200191610b3a565b820191906000526020600020905b815481529060010190602001808311610b1d57829003601f168201915b50505050508152602001836005018054610b539061334f565b80601f0160208091040260200160405190810160405280929190818152602001828054610b7f9061334f565b8015610bcc5780601f10610ba157610100808354040283529160200191610bcc565b820191906000526020600020905b815481529060010190602001808311610baf57829003601f168201915b505050505081526020018360060154815260200183600701548152602001836008015481526020018360090154815260200183600a018054610c0d9061334f565b80601f0160208091040260200160405190810160405280929190818152602001828054610c399061334f565b8015610c865780601f10610c5b57610100808354040283529160200191610c86565b820191906000526020600020905b815481529060010190602001808311610c6957829003601f168201915b505050505081525090507ff9f1b5db9cd24932bb03dcbeecf016acc489ae942202eff98982138bc84171c085858460010160009054906101000a900473ffffffffffffffffffffffffffffffffffffffff1685600201548660030160009054906101000a900473ffffffffffffffffffffffffffffffffffffffff16876004018860050189600601548a600701548b600801548c600901548d600a01604051610d3a9c9b9a999897969594939291906135a4565b60405180910390a1809250505092915050565b6000806000848152602001908152602001600020905060008160050160008481526020019081526020016000209050610d8584611c32565b610dc4576040517f08c379a0000000000000000000000000000000000000000000000000000000008152600401610dbb90613474565b60405180910390fd5b610dce33856111ca565b610e0d576040517f08c379a0000000000000000000000000000000000000000000000000000000008152600401610e04906136bf565b60405180910390fd5b610e1783856125bc565b610e56576040517f08c379a0000000000000000000000000000000000000000000000000000000008152600401610e4d906134e0565b60405180910390fd5b610e6084846125f3565b610e9f576040517f08c379a0000000000000000000000000000000000000000000000000000000008152600401610e9690613751565b60405180910390fd5b806002015482600401541015610eea576040517f08c379a0000000000000000000000000000000000000000000000000000000008152600401610ee1906137e3565b60405180910390fd5b8060070154816006015411610f34576040517f08c379a0000000000000000000000000000000000000000000000000000000008152600401610f2b90613875565b60405180910390fd5b610f3e8484611f88565b15610f7e576040517f08c379a0000000000000000000000000000000000000000000000000000000008152600401610f7590613907565b60405180910390fd5b6040518060400160405280600881526020017f4578656375746564000000000000000000000000000000000000000000000000815250816004019080519060200190610fcb929190612706565b508060020154826004016000828254610fe49190613927565b925050819055508060030160009054906101000a900473ffffffffffffffffffffffffffffffffffffffff1673ffffffffffffffffffffffffffffffffffffffff166108fc82600201549081150290604051600060405180830381858888f19350505050158015611059573d6000803e3d6000fd5b5050505050565b61106981611c32565b6110a8576040517f08c379a000000000000000000000000000000000000000000000000000000000815260040161109f90613474565b60405180910390fd5b600080600083815260200190815260200160002090506110c833836111ca565b611107576040517f08c379a00000000000000000000000000000000000000000000000000000000081526004016110fe906136bf565b60405180910390fd5b6000341161114a576040517f08c379a0000000000000000000000000000000000000000000000000000000008152600401611141906139cd565b60405180910390fd5b60008160020160003373ffffffffffffffffffffffffffffffffffffffff1673ffffffffffffffffffffffffffffffffffffffff1681526020019081526020016000209050348160010160008282546111a391906139ed565b92505081905550348260040160008282546111be91906139ed565b92505081905550505050565b60008073ffffffffffffffffffffffffffffffffffffffff1660008084815260200190815260200160002060020160008573ffffffffffffffffffffffffffffffffffffffff1673ffffffffffffffffffffffffffffffffffffffff16815260200190815260200160002060000160009054906101000a900473ffffffffffffffffffffffffffffffffffffffff1673ffffffffffffffffffffffffffffffffffffffff161415905092915050565b6000806001805461128a91906139ed565b905060008060008381526020019081526020016000209050818160000181905550848160010190805190602001906112c3929190612706565b50600081600401819055506000816006018190555060018160030181905550838160070190805190602001906112fa929190612706565b50600060405180604001604052803373ffffffffffffffffffffffffffffffffffffffff16815260200160008152509050808260020160003373ffffffffffffffffffffffffffffffffffffffff1673ffffffffffffffffffffffffffffffffffffffff16815260200190815260200160002060008201518160000160006101000a81548173ffffffffffffffffffffffffffffffffffffffff021916908373ffffffffffffffffffffffffffffffffffffffff160217905550602082015181600101559050508260018190555082935050505092915050565b6113dd81611c32565b61141c576040517f08c379a000000000000000000000000000000000000000000000000000000000815260040161141390613474565b60405180910390fd5b6000806000838152602001908152602001600020905061143c33836111ca565b61147b576040517f08c379a0000000000000000000000000000000000000000000000000000000008152600401611472906136bf565b60405180910390fd5b60018160030160008282546114909190613927565b925050819055508060020160003373ffffffffffffffffffffffffffffffffffffffff1673ffffffffffffffffffffffffffffffffffffffff168152602001908152602001600020600080820160006101000a81549073ffffffffffffffffffffffffffffffffffffffff0219169055600182016000905550505050565b6060600060015467ffffffffffffffff81111561152e5761152d612d7e565b5b60405190808252806020026020018201604052801561156757816020015b61155461278c565b81526020019060019003908161154c5790505b509050600080600190505b6001548111611791576000806000838152602001908152602001600020905061159f3382600001546111ca565b1561177d576040518060c00160405280826000015481526020018260010180546115c89061334f565b80601f01602080910402602001604051908101604052809291908181526020018280546115f49061334f565b80156116415780601f1061161657610100808354040283529160200191611641565b820191906000526020600020905b81548152906001019060200180831161162457829003601f168201915b505050505081526020018260030154815260200182600601548152602001826004015481526020018260070180546116789061334f565b80601f01602080910402602001604051908101604052809291908181526020018280546116a49061334f565b80156116f15780601f106116c6576101008083540402835291602001916116f1565b820191906000526020600020905b8154815290600101906020018083116116d457829003601f168201915b505050505081525084848151811061170c5761170b613381565b5b60200260200101819052508280611722906133df565b9350507f2ab5dc4b0ec72ead814b888a207317dbc9c5dfef0d1fbd7f34ed9e31f136ff8b8160000154826001018360030154846006015485600401548660070160405161177496959493929190613a43565b60405180910390a15b508080611789906133df565b915050611572565b50819250505090565b6117a383611c32565b6117e2576040517f08c379a00000000000000000000000000000000000000000000000000000000081526004016117d990613474565b60405180910390fd5b6117ec8383611f88565b61182b576040517f08c379a000000000000000000000000000000000000000000000000000000000815260040161182290613afe565b60405180910390fd5b6000806000858152602001908152602001600020905061184b33856111ca565b61188a576040517f08c379a0000000000000000000000000000000000000000000000000000000008152600401611881906136bf565b60405180910390fd5b61189483856125bc565b6118d3576040517f08c379a00000000000000000000000000000000000000000000000000000000081526004016118ca906134e0565b60405180910390fd5b600081600501600085815260200190815260200160002090506118f73385876108ce565b15611937576040517f08c379a000000000000000000000000000000000000000000000000000000000815260040161192e90613b90565b60405180910390fd5b6040518060400160405280600781526020017f50656e64696e670000000000000000000000000000000000000000000000000081525080519060200120816004016040516119859190613c4f565b6040518091039020146119cd576040517f08c379a00000000000000000000000000000000000000000000000000000000081526004016119c490613cd8565b60405180910390fd5b82156119f45760018160060160008282546119e891906139ed565b92505081905550611a11565b6001816007016000828254611a0991906139ed565b925050819055505b5050505050565b6060600060015467ffffffffffffffff811115611a3857611a37612d7e565b5b604051908082528060200260200182016040528015611a7157816020015b611a5e61278c565b815260200190600190039081611a565790505b50905060005b600154811015611c2a576000806000600184611a9391906139ed565b815260200190815260200160002090506040518060c0016040528082600001548152602001826001018054611ac79061334f565b80601f0160208091040260200160405190810160405280929190818152602001828054611af39061334f565b8015611b405780601f10611b1557610100808354040283529160200191611b40565b820191906000526020600020905b815481529060010190602001808311611b2357829003601f168201915b50505050508152602001826003015481526020018260060154815260200182600401548152602001826007018054611b779061334f565b80601f0160208091040260200160405190810160405280929190818152602001828054611ba39061334f565b8015611bf05780601f10611bc557610100808354040283529160200191611bf0565b820191906000526020600020905b815481529060010190602001808311611bd357829003601f168201915b5050505050815250838381518110611c0b57611c0a613381565b5b6020026020010181905250508080611c22906133df565b915050611a77565b508091505090565b6000806000808481526020019081526020016000206000015414159050919050565b600080600080848152602001908152602001600020905060008160020160008673ffffffffffffffffffffffffffffffffffffffff1673ffffffffffffffffffffffffffffffffffffffff168152602001908152602001600020905080600101549250505092915050565b611cc885611c32565b611d07576040517f08c379a0000000000000000000000000000000000000000000000000000000008152600401611cfe90613474565b60405180910390fd5b60008060008781526020019081526020016000209050611d2733876111ca565b611d66576040517f08c379a0000000000000000000000000000000000000000000000000000000008152600401611d5d906136bf565b60405180910390fd5b60008511611da9576040517f08c379a0000000000000000000000000000000000000000000000000000000008152600401611da090613d6a565b60405180910390fd5b600060018260060154611dbc91906139ed565b9050600080600089815260200190815260200160002060050160008381526020019081526020016000209050818160000181905550338160010160006101000a81548173ffffffffffffffffffffffffffffffffffffffff021916908373ffffffffffffffffffffffffffffffffffffffff160217905550868160020181905550858160030160006101000a81548173ffffffffffffffffffffffffffffffffffffffff021916908373ffffffffffffffffffffffffffffffffffffffff1602179055506040518060400160405280600781526020017f50656e64696e6700000000000000000000000000000000000000000000000000815250816004019080519060200190611ecd929190612706565b5084816005019080519060200190611ee6929190612706565b50600081600601819055506000816007018190555042816008018190555061012c42611f1291906139ed565b81600901819055508381600a019080519060200190611f32929190612706565b50818360060181905550877fd28f39451a81db59d33c77da433396c23046543154523cb54d6908320f6aa4df83338a8a8a8a604051611f7696959493929190613dc3565b60405180910390a25050505050505050565b600080600080858152602001908152602001600020600501600084815260200190815260200160002090504281600901541191505092915050565b611fcb61278c565b611fd482611c32565b612013576040517f08c379a000000000000000000000000000000000000000000000000000000000815260040161200a90613474565b60405180910390fd5b6000806000848152602001908152602001600020905060006040518060c001604052808360000154815260200183600101805461204f9061334f565b80601f016020809104026020016040519081016040528092919081815260200182805461207b9061334f565b80156120c85780601f1061209d576101008083540402835291602001916120c8565b820191906000526020600020905b8154815290600101906020018083116120ab57829003601f168201915b505050505081526020018360030154815260200183600601548152602001836004015481526020018360070180546120ff9061334f565b80601f016020809104026020016040519081016040528092919081815260200182805461212b9061334f565b80156121785780601f1061214d57610100808354040283529160200191612178565b820191906000526020600020905b81548152906001019060200180831161215b57829003601f168201915b505050505081525090508092505050919050565b6000606360008084815260200190815260200160002060030154109050919050565b6121b781611c32565b6121f6576040517f08c379a00000000000000000000000000000000000000000000000000000000081526004016121ed90613e7e565b60405180910390fd5b600080600083815260200190815260200160002090506122158261218c565b612254576040517f08c379a000000000000000000000000000000000000000000000000000000000815260040161224b90613f10565b60405180910390fd5b61225e33836111ca565b1561229e576040517f08c379a000000000000000000000000000000000000000000000000000000000815260040161229590613fa2565b60405180910390fd5b600060405180604001604052803373ffffffffffffffffffffffffffffffffffffffff16815260200160008152509050808260020160003373ffffffffffffffffffffffffffffffffffffffff1673ffffffffffffffffffffffffffffffffffffffff16815260200190815260200160002060008201518160000160006101000a81548173ffffffffffffffffffffffffffffffffffffffff021916908373ffffffffffffffffffffffffffffffffffffffff16021790555060208201518160010155905050600182600301600082825461237991906139ed565b92505081905550505050565b61238e82611c32565b6123cd576040517f08c379a00000000000000000000000000000000000000000000000000000000081526004016123c490613474565b60405180910390fd5b6123d781836125bc565b612416576040517f08c379a000000000000000000000000000000000000000000000000000000000815260040161240d906134e0565b60405180910390fd5b6124208282611f88565b15612460576040517f08c379a000000000000000000000000000000000000000000000000000000000815260040161245790613907565b60405180910390fd5b6000806000848152602001908152602001600020600501600083815260200190815260200160002090506040518060400160405280600781526020017f50656e64696e670000000000000000000000000000000000000000000000000081525080519060200120816004016040516124d89190613c4f565b604051809103902014612520576040517f08c379a000000000000000000000000000000000000000000000000000000000815260040161251790614034565b60405180910390fd5b61252a83836125f3565b612569576040517f08c379a0000000000000000000000000000000000000000000000000000000008152600401612560906140c6565b60405180910390fd5b6040518060400160405280600681526020017f436c6f73656400000000000000000000000000000000000000000000000000008152508160040190805190602001906125b6929190612706565b50505050565b6000806000808481526020019081526020016000206005016000858152602001908152602001600020600001541415905092915050565b6000806000808581526020019081526020016000209050600081600501600085815260200190815260200160002090508060010160009054906101000a900473ffffffffffffffffffffffffffffffffffffffff1673ffffffffffffffffffffffffffffffffffffffff163373ffffffffffffffffffffffffffffffffffffffff16149250505092915050565b60405180610160016040528060008152602001600073ffffffffffffffffffffffffffffffffffffffff16815260200160008152602001600073ffffffffffffffffffffffffffffffffffffffff168152602001606081526020016060815260200160008152602001600081526020016000815260200160008152602001606081525090565b8280546127129061334f565b90600052602060002090601f016020900481019282612734576000855561277b565b82601f1061274d57805160ff191683800117855561277b565b8280016001018555821561277b579182015b8281111561277a57825182559160200191906001019061275f565b5b50905061278891906127c2565b5090565b6040518060c001604052806000815260200160608152602001600081526020016000815260200160008152602001606081525090565b5b808211156127db5760008160009055506001016127c3565b5090565b6000604051905090565b600080fd5b600080fd5b6000819050919050565b612806816127f3565b811461281157600080fd5b50565b600081359050612823816127fd565b92915050565b60006020828403121561283f5761283e6127e9565b5b600061284d84828501612814565b91505092915050565b600081519050919050565b600082825260208201905092915050565b6000819050602082019050919050565b61288b816127f3565b82525050565b600073ffffffffffffffffffffffffffffffffffffffff82169050919050565b60006128bc82612891565b9050919050565b6128cc816128b1565b82525050565b600081519050919050565b600082825260208201905092915050565b60005b8381101561290c5780820151818401526020810190506128f1565b8381111561291b576000848401525b50505050565b6000601f19601f8301169050919050565b600061293d826128d2565b61294781856128dd565b93506129578185602086016128ee565b61296081612921565b840191505092915050565b6000610160830160008301516129846000860182612882565b50602083015161299760208601826128c3565b5060408301516129aa6040860182612882565b5060608301516129bd60608601826128c3565b50608083015184820360808601526129d58282612932565b91505060a083015184820360a08601526129ef8282612932565b91505060c0830151612a0460c0860182612882565b5060e0830151612a1760e0860182612882565b50610100830151612a2c610100860182612882565b50610120830151612a41610120860182612882565b50610140830151848203610140860152612a5b8282612932565b9150508091505092915050565b6000612a74838361296b565b905092915050565b6000602082019050919050565b6000612a9482612856565b612a9e8185612861565b935083602082028501612ab085612872565b8060005b85811015612aec5784840389528151612acd8582612a68565b9450612ad883612a7c565b925060208a01995050600181019050612ab4565b50829750879550505050505092915050565b60006020820190508181036000830152612b188184612a89565b905092915050565b612b29816128b1565b8114612b3457600080fd5b50565b600081359050612b4681612b20565b92915050565b600080600060608486031215612b6557612b646127e9565b5b6000612b7386828701612b37565b9350506020612b8486828701612814565b9250506040612b9586828701612814565b9150509250925092565b60008115159050919050565b612bb481612b9f565b82525050565b6000602082019050612bcf6000830184612bab565b92915050565b60008060408385031215612bec57612beb6127e9565b5b6000612bfa85828601612814565b9250506020612c0b85828601612814565b9150509250929050565b600061016083016000830151612c2e6000860182612882565b506020830151612c4160208601826128c3565b506040830151612c546040860182612882565b506060830151612c6760608601826128c3565b5060808301518482036080860152612c7f8282612932565b91505060a083015184820360a0860152612c998282612932565b91505060c0830151612cae60c0860182612882565b5060e0830151612cc160e0860182612882565b50610100830151612cd6610100860182612882565b50610120830151612ceb610120860182612882565b50610140830151848203610140860152612d058282612932565b9150508091505092915050565b60006020820190508181036000830152612d2c8184612c15565b905092915050565b60008060408385031215612d4b57612d4a6127e9565b5b6000612d5985828601612b37565b9250506020612d6a85828601612814565b9150509250929050565b600080fd5b600080fd5b7f4e487b7100000000000000000000000000000000000000000000000000000000600052604160045260246000fd5b612db682612921565b810181811067ffffffffffffffff82111715612dd557612dd4612d7e565b5b80604052505050565b6000612de86127df565b9050612df48282612dad565b919050565b600067ffffffffffffffff821115612e1457612e13612d7e565b5b612e1d82612921565b9050602081019050919050565b82818337600083830152505050565b6000612e4c612e4784612df9565b612dde565b905082815260208101848484011115612e6857612e67612d79565b5b612e73848285612e2a565b509392505050565b600082601f830112612e9057612e8f612d74565b5b8135612ea0848260208601612e39565b91505092915050565b60008060408385031215612ec057612ebf6127e9565b5b600083013567ffffffffffffffff811115612ede57612edd6127ee565b5b612eea85828601612e7b565b925050602083013567ffffffffffffffff811115612f0b57612f0a6127ee565b5b612f1785828601612e7b565b9150509250929050565b612f2a816127f3565b82525050565b6000602082019050612f456000830184612f21565b92915050565b600081519050919050565b600082825260208201905092915050565b6000819050602082019050919050565b600060c083016000830151612f8f6000860182612882565b5060208301518482036020860152612fa78282612932565b9150506040830151612fbc6040860182612882565b506060830151612fcf6060860182612882565b506080830151612fe26080860182612882565b5060a083015184820360a0860152612ffa8282612932565b9150508091505092915050565b60006130138383612f77565b905092915050565b6000602082019050919050565b600061303382612f4b565b61303d8185612f56565b93508360208202850161304f85612f67565b8060005b8581101561308b578484038952815161306c8582613007565b94506130778361301b565b925060208a01995050600181019050613053565b50829750879550505050505092915050565b600060208201905081810360008301526130b78184613028565b905092915050565b6130c881612b9f565b81146130d357600080fd5b50565b6000813590506130e5816130bf565b92915050565b600080600060608486031215613104576131036127e9565b5b600061311286828701612814565b935050602061312386828701612814565b9250506040613134868287016130d6565b9150509250925092565b600080600080600060a0868803121561315a576131596127e9565b5b600061316888828901612814565b955050602061317988828901612814565b945050604061318a88828901612b37565b935050606086013567ffffffffffffffff8111156131ab576131aa6127ee565b5b6131b788828901612e7b565b925050608086013567ffffffffffffffff8111156131d8576131d76127ee565b5b6131e488828901612e7b565b9150509295509295909350565b600060c0830160008301516132096000860182612882565b50602083015184820360208601526132218282612932565b91505060408301516132366040860182612882565b5060608301516132496060860182612882565b50608083015161325c6080860182612882565b5060a083015184820360a08601526132748282612932565b9150508091505092915050565b6000602082019050818103600083015261329b81846131f1565b905092915050565b600082825260208201905092915050565b7f436c756220646f6573206e6f7420657869737400000000000000000000000000600082015250565b60006132ea6013836132a3565b91506132f5826132b4565b602082019050919050565b60006020820190508181036000830152613319816132dd565b9050919050565b7f4e487b7100000000000000000000000000000000000000000000000000000000600052602260045260246000fd5b6000600282049050600182168061336757607f821691505b6020821081141561337b5761337a613320565b5b50919050565b7f4e487b7100000000000000000000000000000000000000000000000000000000600052603260045260246000fd5b7f4e487b7100000000000000000000000000000000000000000000000000000000600052601160045260246000fd5b60006133ea826127f3565b91507fffffffffffffffffffffffffffffffffffffffffffffffffffffffffffffffff82141561341d5761341c6133b0565b5b600182019050919050565b7f74686520636c756220646f6573206e6f74206578697374000000000000000000600082015250565b600061345e6017836132a3565b915061346982613428565b602082019050919050565b6000602082019050818103600083015261348d81613451565b9050919050565b7f5468652070726f706f73616c20646f6573206e6f742065786973740000000000600082015250565b60006134ca601b836132a3565b91506134d582613494565b602082019050919050565b600060208201905081810360008301526134f9816134bd565b9050919050565b613509816128b1565b82525050565b60008190508160005260206000209050919050565b600081546135318161334f565b61353b81866132a3565b9450600182166000811461355657600181146135685761359b565b60ff198316865260208601935061359b565b6135718561350f565b60005b8381101561359357815481890152600182019150602081019050613574565b808801955050505b50505092915050565b6000610180820190506135ba600083018f612f21565b6135c7602083018e612f21565b6135d4604083018d613500565b6135e1606083018c612f21565b6135ee608083018b613500565b81810360a0830152613600818a613524565b905081810360c08301526136148189613524565b905061362360e0830188612f21565b613631610100830187612f21565b61363f610120830186612f21565b61364d610140830185612f21565b8181036101608301526136608184613524565b90509d9c50505050505050505050505050565b7f596f7520617265206e6f742061206d656d626572206f662074686520636c7562600082015250565b60006136a96020836132a3565b91506136b482613673565b602082019050919050565b600060208201905081810360008301526136d88161369c565b9050919050565b7f4f6e6c79207468652063726561746f72206f66207468652070726f706f73616c60008201527f2063616e20657865637574652069740000000000000000000000000000000000602082015250565b600061373b602f836132a3565b9150613746826136df565b604082019050919050565b6000602082019050818103600083015261376a8161372e565b9050919050565b7f54686520616d6f756e7420657863656564732074686520706f6f6c206f66207460008201527f686520636c756200000000000000000000000000000000000000000000000000602082015250565b60006137cd6027836132a3565b91506137d882613771565b604082019050919050565b600060208201905081810360008301526137fc816137c0565b9050919050565b7f5468652070726f706f73616c20686173206e6f74206265656e20617070726f7660008201527f6564000000000000000000000000000000000000000000000000000000000000602082015250565b600061385f6022836132a3565b915061386a82613803565b604082019050919050565b6000602082019050818103600083015261388e81613852565b9050919050565b7f596f752063616e2774206265666f72652074686520566f74696e67206465616460008201527f6c696e6500000000000000000000000000000000000000000000000000000000602082015250565b60006138f16024836132a3565b91506138fc82613895565b604082019050919050565b60006020820190508181036000830152613920816138e4565b9050919050565b6000613932826127f3565b915061393d836127f3565b9250828210156139505761394f6133b0565b5b828203905092915050565b7f596f75206d7573742073656e642045564d4f5320746f20636f6e74726962757460008201527f6500000000000000000000000000000000000000000000000000000000000000602082015250565b60006139b76021836132a3565b91506139c28261395b565b604082019050919050565b600060208201905081810360008301526139e6816139aa565b9050919050565b60006139f8826127f3565b9150613a03836127f3565b9250827fffffffffffffffffffffffffffffffffffffffffffffffffffffffffffffffff03821115613a3857613a376133b0565b5b828201905092915050565b600060c082019050613a586000830189612f21565b8181036020830152613a6a8188613524565b9050613a796040830187612f21565b613a866060830186612f21565b613a936080830185612f21565b81810360a0830152613aa58184613524565b9050979650505050505050565b7f566f74696e6720506572696f642046696e697368656400000000000000000000600082015250565b6000613ae86016836132a3565b9150613af382613ab2565b602082019050919050565b60006020820190508181036000830152613b1781613adb565b9050919050565b7f596f75206861766520616c726561647920766f746564206f6e2074686973207060008201527f726f706f73616c00000000000000000000000000000000000000000000000000602082015250565b6000613b7a6027836132a3565b9150613b8582613b1e565b604082019050919050565b60006020820190508181036000830152613ba981613b6d565b9050919050565b600081905092915050565b60008190508160005260206000209050919050565b60008154613bdd8161334f565b613be78186613bb0565b94506001821660008114613c025760018114613c1357613c46565b60ff19831686528186019350613c46565b613c1c85613bbb565b60005b83811015613c3e57815481890152600182019150602081019050613c1f565b838801955050505b50505092915050565b6000613c5b8284613bd0565b915081905092915050565b7f5468652070726f706f73616c206973206e6f206c6f6e6765722070656e64696e60008201527f6700000000000000000000000000000000000000000000000000000000000000602082015250565b6000613cc26021836132a3565b9150613ccd82613c66565b604082019050919050565b60006020820190508181036000830152613cf181613cb5565b9050919050565b7f54686520616d6f756e74206f66207468652070726f706f73616c206d7573742060008201527f62652067726561746572207468616e2030000000000000000000000000000000602082015250565b6000613d546031836132a3565b9150613d5f82613cf8565b604082019050919050565b60006020820190508181036000830152613d8381613d47565b9050919050565b6000613d95826128d2565b613d9f81856132a3565b9350613daf8185602086016128ee565b613db881612921565b840191505092915050565b600060c082019050613dd86000830189612f21565b613de56020830188613500565b613df26040830187612f21565b613dff6060830186613500565b8181036080830152613e118185613d8a565b905081810360a0830152613e258184613d8a565b9050979650505050505050565b7f54686520636c756220646f6573206e6f74206578697374000000000000000000600082015250565b6000613e686017836132a3565b9150613e7382613e32565b602082019050919050565b60006020820190508181036000830152613e9781613e5b565b9050919050565b7f54686520636c75622069732066756c6c2c206e6f206d6f7265206d656d62657260008201527f732063616e206265206164646564000000000000000000000000000000000000602082015250565b6000613efa602e836132a3565b9150613f0582613e9e565b604082019050919050565b60006020820190508181036000830152613f2981613eed565b9050919050565b7f596f752061726520616c72656164792061206d656d626572206f66207468652060008201527f636c756200000000000000000000000000000000000000000000000000000000602082015250565b6000613f8c6024836132a3565b9150613f9782613f30565b604082019050919050565b60006020820190508181036000830152613fbb81613f7f565b9050919050565b7f5468652070726f706f73616c206973206e6f7420696e2070656e64696e67207360008201527f7461747573000000000000000000000000000000000000000000000000000000602082015250565b600061401e6025836132a3565b915061402982613fc2565b604082019050919050565b6000602082019050818103600083015261404d81614011565b9050919050565b7f4f6e6c79207468652070726f706f73616c2063726561746f722063616e20636c60008201527f6f7365207468652070726f706f73616c00000000000000000000000000000000602082015250565b60006140b06030836132a3565b91506140bb82614054565b604082019050919050565b600060208201905081810360008301526140df816140a3565b905091905056fea2646970667358221220fac85ca96e6c6a4cf28f91071ae7991ffa80dbf0599186b6ce792f160766b80664736f6c634300080a0033","opcodes":"PUSH1 0x80 PUSH1 0x40 MSTORE CALLVALUE DUP1 ISZERO PUSH2 0x10 JUMPI PUSH1 0x0 DUP1 REVERT JUMPDEST POP PUSH1 0x0 PUSH1 0x1 DUP2 SWAP1 SSTORE POP PUSH2 0x411C DUP1 PUSH2 0x28 PUSH1 0x0 CODECOPY PUSH1 0x0 RETURN INVALID PUSH1 0x80 PUSH1 0x40 MSTORE PUSH1 0x4 CALLDATASIZE LT PUSH2 0x11F JUMPI PUSH1 0x0 CALLDATALOAD PUSH1 0xE0 SHR DUP1 PUSH4 0x5FF847FB GT PUSH2 0xA0 JUMPI DUP1 PUSH4 0xC3741FED GT PUSH2 0x64 JUMPI DUP1 PUSH4 0xC3741FED EQ PUSH2 0x415 JUMPI DUP1 PUSH4 0xC4670878 EQ PUSH2 0x452 JUMPI DUP1 PUSH4 0xE1542742 EQ PUSH2 0x48F JUMPI DUP1 PUSH4 0xE7613EA8 EQ PUSH2 0x4B8 JUMPI DUP1 PUSH4 0xEEC8E0DB EQ PUSH2 0x4E1 JUMPI PUSH2 0x11F JUMP JUMPDEST DUP1 PUSH4 0x5FF847FB EQ PUSH2 0x30A JUMPI DUP1 PUSH4 0x6764FD48 EQ PUSH2 0x335 JUMPI DUP1 PUSH4 0x890E2456 EQ PUSH2 0x372 JUMPI DUP1 PUSH4 0x89972A32 EQ PUSH2 0x3AF JUMPI DUP1 PUSH4 0xAB7CA348 EQ PUSH2 0x3D8 JUMPI PUSH2 0x11F JUMP JUMPDEST DUP1 PUSH4 0x34FA3D83 GT PUSH2 0xE7 JUMPI DUP1 PUSH4 0x34FA3D83 EQ PUSH2 0x213 JUMPI DUP1 PUSH4 0x35A1930F EQ PUSH2 0x250 JUMPI DUP1 PUSH4 0x4D7F75C3 EQ PUSH2 0x28D JUMPI DUP1 PUSH4 0x549710BE EQ PUSH2 0x2B6 JUMPI DUP1 PUSH4 0x54A2E233 EQ PUSH2 0x2E1 JUMPI PUSH2 0x11F JUMP JUMPDEST DUP1 PUSH4 0x58694A9 EQ PUSH2 0x124 JUMPI DUP1 PUSH4 0xEE29404 EQ PUSH2 0x161 JUMPI DUP1 PUSH4 0x14204FC6 EQ PUSH2 0x19E JUMPI DUP1 PUSH4 0x1AB76712 EQ PUSH2 0x1DB JUMPI DUP1 PUSH4 0x288509B4 EQ PUSH2 0x1F7 JUMPI JUMPDEST PUSH1 0x0 DUP1 REVERT JUMPDEST CALLVALUE DUP1 ISZERO PUSH2 0x130 JUMPI PUSH1 0x0 DUP1 REVERT JUMPDEST POP PUSH2 0x14B PUSH1 0x4 DUP1 CALLDATASIZE SUB DUP2 ADD SWAP1 PUSH2 0x146 SWAP2 SWAP1 PUSH2 0x2829 JUMP JUMPDEST PUSH2 0x51E JUMP JUMPDEST PUSH1 0x40 MLOAD PUSH2 0x158 SWAP2 SWAP1 PUSH2 0x2AFE JUMP JUMPDEST PUSH1 0x40 MLOAD DUP1 SWAP2 SUB SWAP1 RETURN JUMPDEST CALLVALUE DUP1 ISZERO PUSH2 0x16D JUMPI PUSH1 0x0 DUP1 REVERT JUMPDEST POP PUSH2 0x188 PUSH1 0x4 DUP1 CALLDATASIZE SUB DUP2 ADD SWAP1 PUSH2 0x183 SWAP2 SWAP1 PUSH2 0x2B4C JUMP JUMPDEST PUSH2 0x8CE JUMP JUMPDEST PUSH1 0x40 MLOAD PUSH2 0x195 SWAP2 SWAP1 PUSH2 0x2BBA JUMP JUMPDEST PUSH1 0x40 MLOAD DUP1 SWAP2 SUB SWAP1 RETURN JUMPDEST CALLVALUE DUP1 ISZERO PUSH2 0x1AA JUMPI PUSH1 0x0 DUP1 REVERT JUMPDEST POP PUSH2 0x1C5 PUSH1 0x4 DUP1 CALLDATASIZE SUB DUP2 ADD SWAP1 PUSH2 0x1C0 SWAP2 SWAP1 PUSH2 0x2BD5 JUMP JUMPDEST PUSH2 0x94D JUMP JUMPDEST PUSH1 0x40 MLOAD PUSH2 0x1D2 SWAP2 SWAP1 PUSH2 0x2D12 JUMP JUMPDEST PUSH1 0x40 MLOAD DUP1 SWAP2 SUB SWAP1 RETURN JUMPDEST PUSH2 0x1F5 PUSH1 0x4 DUP1 CALLDATASIZE SUB DUP2 ADD SWAP1 PUSH2 0x1F0 SWAP2 SWAP1 PUSH2 0x2BD5 JUMP JUMPDEST PUSH2 0xD4D JUMP JUMPDEST STOP JUMPDEST PUSH2 0x211 PUSH1 0x4 DUP1 CALLDATASIZE SUB DUP2 ADD SWAP1 PUSH2 0x20C SWAP2 SWAP1 PUSH2 0x2829 JUMP JUMPDEST PUSH2 0x1060 JUMP JUMPDEST STOP JUMPDEST CALLVALUE DUP1 ISZERO PUSH2 0x21F JUMPI PUSH1 0x0 DUP1 REVERT JUMPDEST POP PUSH2 0x23A PUSH1 0x4 DUP1 CALLDATASIZE SUB DUP2 ADD SWAP1 PUSH2 0x235 SWAP2 SWAP1 PUSH2 0x2D34 JUMP JUMPDEST PUSH2 0x11CA JUMP JUMPDEST PUSH1 0x40 MLOAD PUSH2 0x247 SWAP2 SWAP1 PUSH2 0x2BBA JUMP JUMPDEST PUSH1 0x40 MLOAD DUP1 SWAP2 SUB SWAP1 RETURN JUMPDEST CALLVALUE DUP1 ISZERO PUSH2 0x25C JUMPI PUSH1 0x0 DUP1 REVERT JUMPDEST POP PUSH2 0x277 PUSH1 0x4 DUP1 CALLDATASIZE SUB DUP2 ADD SWAP1 PUSH2 0x272 SWAP2 SWAP1 PUSH2 0x2EA9 JUMP JUMPDEST PUSH2 0x1279 JUMP JUMPDEST PUSH1 0x40 MLOAD PUSH2 0x284 SWAP2 SWAP1 PUSH2 0x2F30 JUMP JUMPDEST PUSH1 0x40 MLOAD DUP1 SWAP2 SUB SWAP1 RETURN JUMPDEST CALLVALUE DUP1 ISZERO PUSH2 0x299 JUMPI PUSH1 0x0 DUP1 REVERT JUMPDEST POP PUSH2 0x2B4 PUSH1 0x4 DUP1 CALLDATASIZE SUB DUP2 ADD SWAP1 PUSH2 0x2AF SWAP2 SWAP1 PUSH2 0x2829 JUMP JUMPDEST PUSH2 0x13D4 JUMP JUMPDEST STOP JUMPDEST CALLVALUE DUP1 ISZERO PUSH2 0x2C2 JUMPI PUSH1 0x0 DUP1 REVERT JUMPDEST POP PUSH2 0x2CB PUSH2 0x150E JUMP JUMPDEST PUSH1 0x40 MLOAD PUSH2 0x2D8 SWAP2 SWAP1 PUSH2 0x309D JUMP JUMPDEST PUSH1 0x40 MLOAD DUP1 SWAP2 SUB SWAP1 RETURN JUMPDEST CALLVALUE DUP1 ISZERO PUSH2 0x2ED JUMPI PUSH1 0x0 DUP1 REVERT JUMPDEST POP PUSH2 0x308 PUSH1 0x4 DUP1 CALLDATASIZE SUB DUP2 ADD SWAP1 PUSH2 0x303 SWAP2 SWAP1 PUSH2 0x30EB JUMP JUMPDEST PUSH2 0x179A JUMP JUMPDEST STOP JUMPDEST CALLVALUE DUP1 ISZERO PUSH2 0x316 JUMPI PUSH1 0x0 DUP1 REVERT JUMPDEST POP PUSH2 0x31F PUSH2 0x1A18 JUMP JUMPDEST PUSH1 0x40 MLOAD PUSH2 0x32C SWAP2 SWAP1 PUSH2 0x309D JUMP JUMPDEST PUSH1 0x40 MLOAD DUP1 SWAP2 SUB SWAP1 RETURN JUMPDEST CALLVALUE DUP1 ISZERO PUSH2 0x341 JUMPI PUSH1 0x0 DUP1 REVERT JUMPDEST POP PUSH2 0x35C PUSH1 0x4 DUP1 CALLDATASIZE SUB DUP2 ADD SWAP1 PUSH2 0x357 SWAP2 SWAP1 PUSH2 0x2829 JUMP JUMPDEST PUSH2 0x1C32 JUMP JUMPDEST PUSH1 0x40 MLOAD PUSH2 0x369 SWAP2 SWAP1 PUSH2 0x2BBA JUMP JUMPDEST PUSH1 0x40 MLOAD DUP1 SWAP2 SUB SWAP1 RETURN JUMPDEST CALLVALUE DUP1 ISZERO PUSH2 0x37E JUMPI PUSH1 0x0 DUP1 REVERT JUMPDEST POP PUSH2 0x399 PUSH1 0x4 DUP1 CALLDATASIZE SUB DUP2 ADD SWAP1 PUSH2 0x394 SWAP2 SWAP1 PUSH2 0x2D34 JUMP JUMPDEST PUSH2 0x1C54 JUMP JUMPDEST PUSH1 0x40 MLOAD PUSH2 0x3A6 SWAP2 SWAP1 PUSH2 0x2F30 JUMP JUMPDEST PUSH1 0x40 MLOAD DUP1 SWAP2 SUB SWAP1 RETURN JUMPDEST CALLVALUE DUP1 ISZERO PUSH2 0x3BB JUMPI PUSH1 0x0 DUP1 REVERT JUMPDEST POP PUSH2 0x3D6 PUSH1 0x4 DUP1 CALLDATASIZE SUB DUP2 ADD SWAP1 PUSH2 0x3D1 SWAP2 SWAP1 PUSH2 0x313E JUMP JUMPDEST PUSH2 0x1CBF JUMP JUMPDEST STOP JUMPDEST CALLVALUE DUP1 ISZERO PUSH2 0x3E4 JUMPI PUSH1 0x0 DUP1 REVERT JUMPDEST POP PUSH2 0x3FF PUSH1 0x4 DUP1 CALLDATASIZE SUB DUP2 ADD SWAP1 PUSH2 0x3FA SWAP2 SWAP1 PUSH2 0x2BD5 JUMP JUMPDEST PUSH2 0x1F88 JUMP JUMPDEST PUSH1 0x40 MLOAD PUSH2 0x40C SWAP2 SWAP1 PUSH2 0x2BBA JUMP JUMPDEST PUSH1 0x40 MLOAD DUP1 SWAP2 SUB SWAP1 RETURN JUMPDEST CALLVALUE DUP1 ISZERO PUSH2 0x421 JUMPI PUSH1 0x0 DUP1 REVERT JUMPDEST POP PUSH2 0x43C PUSH1 0x4 DUP1 CALLDATASIZE SUB DUP2 ADD SWAP1 PUSH2 0x437 SWAP2 SWAP1 PUSH2 0x2829 JUMP JUMPDEST PUSH2 0x1FC3 JUMP JUMPDEST PUSH1 0x40 MLOAD PUSH2 0x449 SWAP2 SWAP1 PUSH2 0x3281 JUMP JUMPDEST PUSH1 0x40 MLOAD DUP1 SWAP2 SUB SWAP1 RETURN JUMPDEST CALLVALUE DUP1 ISZERO PUSH2 0x45E JUMPI PUSH1 0x0 DUP1 REVERT JUMPDEST POP PUSH2 0x479 PUSH1 0x4 DUP1 CALLDATASIZE SUB DUP2 ADD SWAP1 PUSH2 0x474 SWAP2 SWAP1 PUSH2 0x2829 JUMP JUMPDEST PUSH2 0x218C JUMP JUMPDEST PUSH1 0x40 MLOAD PUSH2 0x486 SWAP2 SWAP1 PUSH2 0x2BBA JUMP JUMPDEST PUSH1 0x40 MLOAD DUP1 SWAP2 SUB SWAP1 RETURN JUMPDEST CALLVALUE DUP1 ISZERO PUSH2 0x49B JUMPI PUSH1 0x0 DUP1 REVERT JUMPDEST POP PUSH2 0x4B6 PUSH1 0x4 DUP1 CALLDATASIZE SUB DUP2 ADD SWAP1 PUSH2 0x4B1 SWAP2 SWAP1 PUSH2 0x2829 JUMP JUMPDEST PUSH2 0x21AE JUMP JUMPDEST STOP JUMPDEST CALLVALUE DUP1 ISZERO PUSH2 0x4C4 JUMPI PUSH1 0x0 DUP1 REVERT JUMPDEST POP PUSH2 0x4DF PUSH1 0x4 DUP1 CALLDATASIZE SUB DUP2 ADD SWAP1 PUSH2 0x4DA SWAP2 SWAP1 PUSH2 0x2BD5 JUMP JUMPDEST PUSH2 0x2385 JUMP JUMPDEST STOP JUMPDEST CALLVALUE DUP1 ISZERO PUSH2 0x4ED JUMPI PUSH1 0x0 DUP1 REVERT JUMPDEST POP PUSH2 0x508 PUSH1 0x4 DUP1 CALLDATASIZE SUB DUP2 ADD SWAP1 PUSH2 0x503 SWAP2 SWAP1 PUSH2 0x2BD5 JUMP JUMPDEST PUSH2 0x25BC JUMP JUMPDEST PUSH1 0x40 MLOAD PUSH2 0x515 SWAP2 SWAP1 PUSH2 0x2BBA JUMP JUMPDEST PUSH1 0x40 MLOAD DUP1 SWAP2 SUB SWAP1 RETURN JUMPDEST PUSH1 0x60 PUSH2 0x529 DUP3 PUSH2 0x1C32 JUMP JUMPDEST PUSH2 0x568 JUMPI PUSH1 0x40 MLOAD PUSH32 0x8C379A000000000000000000000000000000000000000000000000000000000 DUP2 MSTORE PUSH1 0x4 ADD PUSH2 0x55F SWAP1 PUSH2 0x3300 JUMP JUMPDEST PUSH1 0x40 MLOAD DUP1 SWAP2 SUB SWAP1 REVERT JUMPDEST PUSH1 0x0 DUP1 PUSH1 0x0 DUP5 DUP2 MSTORE PUSH1 0x20 ADD SWAP1 DUP2 MSTORE PUSH1 0x20 ADD PUSH1 0x0 KECCAK256 SWAP1 POP PUSH1 0x0 DUP2 PUSH1 0x6 ADD SLOAD PUSH8 0xFFFFFFFFFFFFFFFF DUP2 GT ISZERO PUSH2 0x59E JUMPI PUSH2 0x59D PUSH2 0x2D7E JUMP JUMPDEST JUMPDEST PUSH1 0x40 MLOAD SWAP1 DUP1 DUP3 MSTORE DUP1 PUSH1 0x20 MUL PUSH1 0x20 ADD DUP3 ADD PUSH1 0x40 MSTORE DUP1 ISZERO PUSH2 0x5D7 JUMPI DUP2 PUSH1 0x20 ADD JUMPDEST PUSH2 0x5C4 PUSH2 0x2680 JUMP JUMPDEST DUP2 MSTORE PUSH1 0x20 ADD SWAP1 PUSH1 0x1 SWAP1 SUB SWAP1 DUP2 PUSH2 0x5BC JUMPI SWAP1 POP JUMPDEST POP SWAP1 POP PUSH1 0x0 DUP1 PUSH1 0x1 SWAP1 POP JUMPDEST DUP4 PUSH1 0x6 ADD SLOAD DUP2 GT PUSH2 0x8C2 JUMPI PUSH1 0x0 DUP5 PUSH1 0x5 ADD PUSH1 0x0 DUP4 DUP2 MSTORE PUSH1 0x20 ADD SWAP1 DUP2 MSTORE PUSH1 0x20 ADD PUSH1 0x0 KECCAK256 SWAP1 POP PUSH1 0x40 MLOAD DUP1 PUSH2 0x160 ADD PUSH1 0x40 MSTORE DUP1 DUP3 PUSH1 0x0 ADD SLOAD DUP2 MSTORE PUSH1 0x20 ADD DUP3 PUSH1 0x1 ADD PUSH1 0x0 SWAP1 SLOAD SWAP1 PUSH2 0x100 EXP SWAP1 DIV PUSH20 0xFFFFFFFFFFFFFFFFFFFFFFFFFFFFFFFFFFFFFFFF AND PUSH20 0xFFFFFFFFFFFFFFFFFFFFFFFFFFFFFFFFFFFFFFFF AND DUP2 MSTORE PUSH1 0x20 ADD DUP3 PUSH1 0x2 ADD SLOAD DUP2 MSTORE PUSH1 0x20 ADD DUP3 PUSH1 0x3 ADD PUSH1 0x0 SWAP1 SLOAD SWAP1 PUSH2 0x100 EXP SWAP1 DIV PUSH20 0xFFFFFFFFFFFFFFFFFFFFFFFFFFFFFFFFFFFFFFFF AND PUSH20 0xFFFFFFFFFFFFFFFFFFFFFFFFFFFFFFFFFFFFFFFF AND DUP2 MSTORE PUSH1 0x20 ADD DUP3 PUSH1 0x4 ADD DUP1 SLOAD PUSH2 0x6B5 SWAP1 PUSH2 0x334F JUMP JUMPDEST DUP1 PUSH1 0x1F ADD PUSH1 0x20 DUP1 SWAP2 DIV MUL PUSH1 0x20 ADD PUSH1 0x40 MLOAD SWAP1 DUP2 ADD PUSH1 0x40 MSTORE DUP1 SWAP3 SWAP2 SWAP1 DUP2 DUP2 MSTORE PUSH1 0x20 ADD DUP3 DUP1 SLOAD PUSH2 0x6E1 SWAP1 PUSH2 0x334F JUMP JUMPDEST DUP1 ISZERO PUSH2 0x72E JUMPI DUP1 PUSH1 0x1F LT PUSH2 0x703 JUMPI PUSH2 0x100 DUP1 DUP4 SLOAD DIV MUL DUP4 MSTORE SWAP2 PUSH1 0x20 ADD SWAP2 PUSH2 0x72E JUMP JUMPDEST DUP3 ADD SWAP2 SWAP1 PUSH1 0x0 MSTORE PUSH1 0x20 PUSH1 0x0 KECCAK256 SWAP1 JUMPDEST DUP2 SLOAD DUP2 MSTORE SWAP1 PUSH1 0x1 ADD SWAP1 PUSH1 0x20 ADD DUP1 DUP4 GT PUSH2 0x711 JUMPI DUP3 SWAP1 SUB PUSH1 0x1F AND DUP3 ADD SWAP2 JUMPDEST POP POP POP POP POP DUP2 MSTORE PUSH1 0x20 ADD DUP3 PUSH1 0x5 ADD DUP1 SLOAD PUSH2 0x747 SWAP1 PUSH2 0x334F JUMP JUMPDEST DUP1 PUSH1 0x1F ADD PUSH1 0x20 DUP1 SWAP2 DIV MUL PUSH1 0x20 ADD PUSH1 0x40 MLOAD SWAP1 DUP2 ADD PUSH1 0x40 MSTORE DUP1 SWAP3 SWAP2 SWAP1 DUP2 DUP2 MSTORE PUSH1 0x20 ADD DUP3 DUP1 SLOAD PUSH2 0x773 SWAP1 PUSH2 0x334F JUMP JUMPDEST DUP1 ISZERO PUSH2 0x7C0 JUMPI DUP1 PUSH1 0x1F LT PUSH2 0x795 JUMPI PUSH2 0x100 DUP1 DUP4 SLOAD DIV MUL DUP4 MSTORE SWAP2 PUSH1 0x20 ADD SWAP2 PUSH2 0x7C0 JUMP JUMPDEST DUP3 ADD SWAP2 SWAP1 PUSH1 0x0 MSTORE PUSH1 0x20 PUSH1 0x0 KECCAK256 SWAP1 JUMPDEST DUP2 SLOAD DUP2 MSTORE SWAP1 PUSH1 0x1 ADD SWAP1 PUSH1 0x20 ADD DUP1 DUP4 GT PUSH2 0x7A3 JUMPI DUP3 SWAP1 SUB PUSH1 0x1F AND DUP3 ADD SWAP2 JUMPDEST POP POP POP POP POP DUP2 MSTORE PUSH1 0x20 ADD DUP3 PUSH1 0x6 ADD SLOAD DUP2 MSTORE PUSH1 0x20 ADD DUP3 PUSH1 0x7 ADD SLOAD DUP2 MSTORE PUSH1 0x20 ADD DUP3 PUSH1 0x8 ADD SLOAD DUP2 MSTORE PUSH1 0x20 ADD DUP3 PUSH1 0x9 ADD SLOAD DUP2 MSTORE PUSH1 0x20 ADD DUP3 PUSH1 0xA ADD DUP1 SLOAD PUSH2 0x801 SWAP1 PUSH2 0x334F JUMP JUMPDEST DUP1 PUSH1 0x1F ADD PUSH1 0x20 DUP1 SWAP2 DIV MUL PUSH1 0x20 ADD PUSH1 0x40 MLOAD SWAP1 DUP2 ADD PUSH1 0x40 MSTORE DUP1 SWAP3 SWAP2 SWAP1 DUP2 DUP2 MSTORE PUSH1 0x20 ADD DUP3 DUP1 SLOAD PUSH2 0x82D SWAP1 PUSH2 0x334F JUMP JUMPDEST DUP1 ISZERO PUSH2 0x87A JUMPI DUP1 PUSH1 0x1F LT PUSH2 0x84F JUMPI PUSH2 0x100 DUP1 DUP4 SLOAD DIV MUL DUP4 MSTORE SWAP2 PUSH1 0x20 ADD SWAP2 PUSH2 0x87A JUMP JUMPDEST DUP3 ADD SWAP2 SWAP1 PUSH1 0x0 MSTORE PUSH1 0x20 PUSH1 0x0 KECCAK256 SWAP1 JUMPDEST DUP2 SLOAD DUP2 MSTORE SWAP1 PUSH1 0x1 ADD SWAP1 PUSH1 0x20 ADD DUP1 DUP4 GT PUSH2 0x85D JUMPI DUP3 SWAP1 SUB PUSH1 0x1F AND DUP3 ADD SWAP2 JUMPDEST POP POP POP POP POP DUP2 MSTORE POP DUP5 DUP5 DUP2 MLOAD DUP2 LT PUSH2 0x895 JUMPI PUSH2 0x894 PUSH2 0x3381 JUMP JUMPDEST JUMPDEST PUSH1 0x20 MUL PUSH1 0x20 ADD ADD DUP2 SWAP1 MSTORE POP DUP3 DUP1 PUSH2 0x8AB SWAP1 PUSH2 0x33DF JUMP JUMPDEST SWAP4 POP POP POP DUP1 DUP1 PUSH2 0x8BA SWAP1 PUSH2 0x33DF JUMP JUMPDEST SWAP2 POP POP PUSH2 0x5E2 JUMP JUMPDEST POP DUP2 SWAP4 POP POP POP POP SWAP2 SWAP1 POP JUMP JUMPDEST PUSH1 0x0 DUP1 PUSH1 0x0 DUP4 DUP2 MSTORE PUSH1 0x20 ADD SWAP1 DUP2 MSTORE PUSH1 0x20 ADD PUSH1 0x0 KECCAK256 PUSH1 0x5 ADD PUSH1 0x0 DUP5 DUP2 MSTORE PUSH1 0x20 ADD SWAP1 DUP2 MSTORE PUSH1 0x20 ADD PUSH1 0x0 KECCAK256 PUSH1 0xB ADD PUSH1 0x0 DUP6 PUSH20 0xFFFFFFFFFFFFFFFFFFFFFFFFFFFFFFFFFFFFFFFF AND PUSH20 0xFFFFFFFFFFFFFFFFFFFFFFFFFFFFFFFFFFFFFFFF AND DUP2 MSTORE PUSH1 0x20 ADD SWAP1 DUP2 MSTORE PUSH1 0x20 ADD PUSH1 0x0 KECCAK256 PUSH1 0x0 SWAP1 SLOAD SWAP1 PUSH2 0x100 EXP SWAP1 DIV PUSH1 0xFF AND SWAP1 POP SWAP4 SWAP3 POP POP POP JUMP JUMPDEST PUSH2 0x955 PUSH2 0x2680 JUMP JUMPDEST PUSH2 0x95E DUP4 PUSH2 0x1C32 JUMP JUMPDEST PUSH2 0x99D JUMPI PUSH1 0x40 MLOAD PUSH32 0x8C379A000000000000000000000000000000000000000000000000000000000 DUP2 MSTORE PUSH1 0x4 ADD PUSH2 0x994 SWAP1 PUSH2 0x3474 JUMP JUMPDEST PUSH1 0x40 MLOAD DUP1 SWAP2 SUB SWAP1 REVERT JUMPDEST PUSH2 0x9A7 DUP3 DUP5 PUSH2 0x25BC JUMP JUMPDEST PUSH2 0x9E6 JUMPI PUSH1 0x40 MLOAD PUSH32 0x8C379A000000000000000000000000000000000000000000000000000000000 DUP2 MSTORE PUSH1 0x4 ADD PUSH2 0x9DD SWAP1 PUSH2 0x34E0 JUMP JUMPDEST PUSH1 0x40 MLOAD DUP1 SWAP2 SUB SWAP1 REVERT JUMPDEST PUSH1 0x0 DUP1 PUSH1 0x0 DUP6 DUP2 MSTORE PUSH1 0x20 ADD SWAP1 DUP2 MSTORE PUSH1 0x20 ADD PUSH1 0x0 KECCAK256 PUSH1 0x5 ADD PUSH1 0x0 DUP5 DUP2 MSTORE PUSH1 0x20 ADD SWAP1 DUP2 MSTORE PUSH1 0x20 ADD PUSH1 0x0 KECCAK256 SWAP1 POP PUSH1 0x0 PUSH1 0x40 MLOAD DUP1 PUSH2 0x160 ADD PUSH1 0x40 MSTORE DUP1 DUP4 PUSH1 0x0 ADD SLOAD DUP2 MSTORE PUSH1 0x20 ADD DUP4 PUSH1 0x1 ADD PUSH1 0x0 SWAP1 SLOAD SWAP1 PUSH2 0x100 EXP SWAP1 DIV PUSH20 0xFFFFFFFFFFFFFFFFFFFFFFFFFFFFFFFFFFFFFFFF AND PUSH20 0xFFFFFFFFFFFFFFFFFFFFFFFFFFFFFFFFFFFFFFFF AND DUP2 MSTORE PUSH1 0x20 ADD DUP4 PUSH1 0x2 ADD SLOAD DUP2 MSTORE PUSH1 0x20 ADD DUP4 PUSH1 0x3 ADD PUSH1 0x0 SWAP1 SLOAD SWAP1 PUSH2 0x100 EXP SWAP1 DIV PUSH20 0xFFFFFFFFFFFFFFFFFFFFFFFFFFFFFFFFFFFFFFFF AND PUSH20 0xFFFFFFFFFFFFFFFFFFFFFFFFFFFFFFFFFFFFFFFF AND DUP2 MSTORE PUSH1 0x20 ADD DUP4 PUSH1 0x4 ADD DUP1 SLOAD PUSH2 0xAC1 SWAP1 PUSH2 0x334F JUMP JUMPDEST DUP1 PUSH1 0x1F ADD PUSH1 0x20 DUP1 SWAP2 DIV MUL PUSH1 0x20 ADD PUSH1 0x40 MLOAD SWAP1 DUP2 ADD PUSH1 0x40 MSTORE DUP1 SWAP3 SWAP2 SWAP1 DUP2 DUP2 MSTORE PUSH1 0x20 ADD DUP3 DUP1 SLOAD PUSH2 0xAED SWAP1 PUSH2 0x334F JUMP JUMPDEST DUP1 ISZERO PUSH2 0xB3A JUMPI DUP1 PUSH1 0x1F LT PUSH2 0xB0F JUMPI PUSH2 0x100 DUP1 DUP4 SLOAD DIV MUL DUP4 MSTORE SWAP2 PUSH1 0x20 ADD SWAP2 PUSH2 0xB3A JUMP JUMPDEST DUP3 ADD SWAP2 SWAP1 PUSH1 0x0 MSTORE PUSH1 0x20 PUSH1 0x0 KECCAK256 SWAP1 JUMPDEST DUP2 SLOAD DUP2 MSTORE SWAP1 PUSH1 0x1 ADD SWAP1 PUSH1 0x20 ADD DUP1 DUP4 GT PUSH2 0xB1D JUMPI DUP3 SWAP1 SUB PUSH1 0x1F AND DUP3 ADD SWAP2 JUMPDEST POP POP POP POP POP DUP2 MSTORE PUSH1 0x20 ADD DUP4 PUSH1 0x5 ADD DUP1 SLOAD PUSH2 0xB53 SWAP1 PUSH2 0x334F JUMP JUMPDEST DUP1 PUSH1 0x1F ADD PUSH1 0x20 DUP1 SWAP2 DIV MUL PUSH1 0x20 ADD PUSH1 0x40 MLOAD SWAP1 DUP2 ADD PUSH1 0x40 MSTORE DUP1 SWAP3 SWAP2 SWAP1 DUP2 DUP2 MSTORE PUSH1 0x20 ADD DUP3 DUP1 SLOAD PUSH2 0xB7F SWAP1 PUSH2 0x334F JUMP JUMPDEST DUP1 ISZERO PUSH2 0xBCC JUMPI DUP1 PUSH1 0x1F LT PUSH2 0xBA1 JUMPI PUSH2 0x100 DUP1 DUP4 SLOAD DIV MUL DUP4 MSTORE SWAP2 PUSH1 0x20 ADD SWAP2 PUSH2 0xBCC JUMP JUMPDEST DUP3 ADD SWAP2 SWAP1 PUSH1 0x0 MSTORE PUSH1 0x20 PUSH1 0x0 KECCAK256 SWAP1 JUMPDEST DUP2 SLOAD DUP2 MSTORE SWAP1 PUSH1 0x1 ADD SWAP1 PUSH1 0x20 ADD DUP1 DUP4 GT PUSH2 0xBAF JUMPI DUP3 SWAP1 SUB PUSH1 0x1F AND DUP3 ADD SWAP2 JUMPDEST POP POP POP POP POP DUP2 MSTORE PUSH1 0x20 ADD DUP4 PUSH1 0x6 ADD SLOAD DUP2 MSTORE PUSH1 0x20 ADD DUP4 PUSH1 0x7 ADD SLOAD DUP2 MSTORE PUSH1 0x20 ADD DUP4 PUSH1 0x8 ADD SLOAD DUP2 MSTORE PUSH1 0x20 ADD DUP4 PUSH1 0x9 ADD SLOAD DUP2 MSTORE PUSH1 0x20 ADD DUP4 PUSH1 0xA ADD DUP1 SLOAD PUSH2 0xC0D SWAP1 PUSH2 0x334F JUMP JUMPDEST DUP1 PUSH1 0x1F ADD PUSH1 0x20 DUP1 SWAP2 DIV MUL PUSH1 0x20 ADD PUSH1 0x40 MLOAD SWAP1 DUP2 ADD PUSH1 0x40 MSTORE DUP1 SWAP3 SWAP2 SWAP1 DUP2 DUP2 MSTORE PUSH1 0x20 ADD DUP3 DUP1 SLOAD PUSH2 0xC39 SWAP1 PUSH2 0x334F JUMP JUMPDEST DUP1 ISZERO PUSH2 0xC86 JUMPI DUP1 PUSH1 0x1F LT PUSH2 0xC5B JUMPI PUSH2 0x100 DUP1 DUP4 SLOAD DIV MUL DUP4 MSTORE SWAP2 PUSH1 0x20 ADD SWAP2 PUSH2 0xC86 JUMP JUMPDEST DUP3 ADD SWAP2 SWAP1 PUSH1 0x0 MSTORE PUSH1 0x20 PUSH1 0x0 KECCAK256 SWAP1 JUMPDEST DUP2 SLOAD DUP2 MSTORE SWAP1 PUSH1 0x1 ADD SWAP1 PUSH1 0x20 ADD DUP1 DUP4 GT PUSH2 0xC69 JUMPI DUP3 SWAP1 SUB PUSH1 0x1F AND DUP3 ADD SWAP2 JUMPDEST POP POP POP POP POP DUP2 MSTORE POP SWAP1 POP PUSH32 0xF9F1B5DB9CD24932BB03DCBEECF016ACC489AE942202EFF98982138BC84171C0 DUP6 DUP6 DUP5 PUSH1 0x1 ADD PUSH1 0x0 SWAP1 SLOAD SWAP1 PUSH2 0x100 EXP SWAP1 DIV PUSH20 0xFFFFFFFFFFFFFFFFFFFFFFFFFFFFFFFFFFFFFFFF AND DUP6 PUSH1 0x2 ADD SLOAD DUP7 PUSH1 0x3 ADD PUSH1 0x0 SWAP1 SLOAD SWAP1 PUSH2 0x100 EXP SWAP1 DIV PUSH20 0xFFFFFFFFFFFFFFFFFFFFFFFFFFFFFFFFFFFFFFFF AND DUP8 PUSH1 0x4 ADD DUP9 PUSH1 0x5 ADD DUP10 PUSH1 0x6 ADD SLOAD DUP11 PUSH1 0x7 ADD SLOAD DUP12 PUSH1 0x8 ADD SLOAD DUP13 PUSH1 0x9 ADD SLOAD DUP14 PUSH1 0xA ADD PUSH1 0x40 MLOAD PUSH2 0xD3A SWAP13 SWAP12 SWAP11 SWAP10 SWAP9 SWAP8 SWAP7 SWAP6 SWAP5 SWAP4 SWAP3 SWAP2 SWAP1 PUSH2 0x35A4 JUMP JUMPDEST PUSH1 0x40 MLOAD DUP1 SWAP2 SUB SWAP1 LOG1 DUP1 SWAP3 POP POP POP SWAP3 SWAP2 POP POP JUMP JUMPDEST PUSH1 0x0 DUP1 PUSH1 0x0 DUP5 DUP2 MSTORE PUSH1 0x20 ADD SWAP1 DUP2 MSTORE PUSH1 0x20 ADD PUSH1 0x0 KECCAK256 SWAP1 POP PUSH1 0x0 DUP2 PUSH1 0x5 ADD PUSH1 0x0 DUP5 DUP2 MSTORE PUSH1 0x20 ADD SWAP1 DUP2 MSTORE PUSH1 0x20 ADD PUSH1 0x0 KECCAK256 SWAP1 POP PUSH2 0xD85 DUP5 PUSH2 0x1C32 JUMP JUMPDEST PUSH2 0xDC4 JUMPI PUSH1 0x40 MLOAD PUSH32 0x8C379A000000000000000000000000000000000000000000000000000000000 DUP2 MSTORE PUSH1 0x4 ADD PUSH2 0xDBB SWAP1 PUSH2 0x3474 JUMP JUMPDEST PUSH1 0x40 MLOAD DUP1 SWAP2 SUB SWAP1 REVERT JUMPDEST PUSH2 0xDCE CALLER DUP6 PUSH2 0x11CA JUMP JUMPDEST PUSH2 0xE0D JUMPI PUSH1 0x40 MLOAD PUSH32 0x8C379A000000000000000000000000000000000000000000000000000000000 DUP2 MSTORE PUSH1 0x4 ADD PUSH2 0xE04 SWAP1 PUSH2 0x36BF JUMP JUMPDEST PUSH1 0x40 MLOAD DUP1 SWAP2 SUB SWAP1 REVERT JUMPDEST PUSH2 0xE17 DUP4 DUP6 PUSH2 0x25BC JUMP JUMPDEST PUSH2 0xE56 JUMPI PUSH1 0x40 MLOAD PUSH32 0x8C379A000000000000000000000000000000000000000000000000000000000 DUP2 MSTORE PUSH1 0x4 ADD PUSH2 0xE4D SWAP1 PUSH2 0x34E0 JUMP JUMPDEST PUSH1 0x40 MLOAD DUP1 SWAP2 SUB SWAP1 REVERT JUMPDEST PUSH2 0xE60 DUP5 DUP5 PUSH2 0x25F3 JUMP JUMPDEST PUSH2 0xE9F JUMPI PUSH1 0x40 MLOAD PUSH32 0x8C379A000000000000000000000000000000000000000000000000000000000 DUP2 MSTORE PUSH1 0x4 ADD PUSH2 0xE96 SWAP1 PUSH2 0x3751 JUMP JUMPDEST PUSH1 0x40 MLOAD DUP1 SWAP2 SUB SWAP1 REVERT JUMPDEST DUP1 PUSH1 0x2 ADD SLOAD DUP3 PUSH1 0x4 ADD SLOAD LT ISZERO PUSH2 0xEEA JUMPI PUSH1 0x40 MLOAD PUSH32 0x8C379A000000000000000000000000000000000000000000000000000000000 DUP2 MSTORE PUSH1 0x4 ADD PUSH2 0xEE1 SWAP1 PUSH2 0x37E3 JUMP JUMPDEST PUSH1 0x40 MLOAD DUP1 SWAP2 SUB SWAP1 REVERT JUMPDEST DUP1 PUSH1 0x7 ADD SLOAD DUP2 PUSH1 0x6 ADD SLOAD GT PUSH2 0xF34 JUMPI PUSH1 0x40 MLOAD PUSH32 0x8C379A000000000000000000000000000000000000000000000000000000000 DUP2 MSTORE PUSH1 0x4 ADD PUSH2 0xF2B SWAP1 PUSH2 0x3875 JUMP JUMPDEST PUSH1 0x40 MLOAD DUP1 SWAP2 SUB SWAP1 REVERT JUMPDEST PUSH2 0xF3E DUP5 DUP5 PUSH2 0x1F88 JUMP JUMPDEST ISZERO PUSH2 0xF7E JUMPI PUSH1 0x40 MLOAD PUSH32 0x8C379A000000000000000000000000000000000000000000000000000000000 DUP2 MSTORE PUSH1 0x4 ADD PUSH2 0xF75 SWAP1 PUSH2 0x3907 JUMP JUMPDEST PUSH1 0x40 MLOAD DUP1 SWAP2 SUB SWAP1 REVERT JUMPDEST PUSH1 0x40 MLOAD DUP1 PUSH1 0x40 ADD PUSH1 0x40 MSTORE DUP1 PUSH1 0x8 DUP2 MSTORE PUSH1 0x20 ADD PUSH32 0x4578656375746564000000000000000000000000000000000000000000000000 DUP2 MSTORE POP DUP2 PUSH1 0x4 ADD SWAP1 DUP1 MLOAD SWAP1 PUSH1 0x20 ADD SWAP1 PUSH2 0xFCB SWAP3 SWAP2 SWAP1 PUSH2 0x2706 JUMP JUMPDEST POP DUP1 PUSH1 0x2 ADD SLOAD DUP3 PUSH1 0x4 ADD PUSH1 0x0 DUP3 DUP3 SLOAD PUSH2 0xFE4 SWAP2 SWAP1 PUSH2 0x3927 JUMP JUMPDEST SWAP3 POP POP DUP2 SWAP1 SSTORE POP DUP1 PUSH1 0x3 ADD PUSH1 0x0 SWAP1 SLOAD SWAP1 PUSH2 0x100 EXP SWAP1 DIV PUSH20 0xFFFFFFFFFFFFFFFFFFFFFFFFFFFFFFFFFFFFFFFF AND PUSH20 0xFFFFFFFFFFFFFFFFFFFFFFFFFFFFFFFFFFFFFFFF AND PUSH2 0x8FC DUP3 PUSH1 0x2 ADD SLOAD SWAP1 DUP2 ISZERO MUL SWAP1 PUSH1 0x40 MLOAD PUSH1 0x0 PUSH1 0x40 MLOAD DUP1 DUP4 SUB DUP2 DUP6 DUP9 DUP9 CALL SWAP4 POP POP POP POP ISZERO DUP1 ISZERO PUSH2 0x1059 JUMPI RETURNDATASIZE PUSH1 0x0 DUP1 RETURNDATACOPY RETURNDATASIZE PUSH1 0x0 REVERT JUMPDEST POP POP POP POP POP JUMP JUMPDEST PUSH2 0x1069 DUP2 PUSH2 0x1C32 JUMP JUMPDEST PUSH2 0x10A8 JUMPI PUSH1 0x40 MLOAD PUSH32 0x8C379A000000000000000000000000000000000000000000000000000000000 DUP2 MSTORE PUSH1 0x4 ADD PUSH2 0x109F SWAP1 PUSH2 0x3474 JUMP JUMPDEST PUSH1 0x40 MLOAD DUP1 SWAP2 SUB SWAP1 REVERT JUMPDEST PUSH1 0x0 DUP1 PUSH1 0x0 DUP4 DUP2 MSTORE PUSH1 0x20 ADD SWAP1 DUP2 MSTORE PUSH1 0x20 ADD PUSH1 0x0 KECCAK256 SWAP1 POP PUSH2 0x10C8 CALLER DUP4 PUSH2 0x11CA JUMP JUMPDEST PUSH2 0x1107 JUMPI PUSH1 0x40 MLOAD PUSH32 0x8C379A000000000000000000000000000000000000000000000000000000000 DUP2 MSTORE PUSH1 0x4 ADD PUSH2 0x10FE SWAP1 PUSH2 0x36BF JUMP JUMPDEST PUSH1 0x40 MLOAD DUP1 SWAP2 SUB SWAP1 REVERT JUMPDEST PUSH1 0x0 CALLVALUE GT PUSH2 0x114A JUMPI PUSH1 0x40 MLOAD PUSH32 0x8C379A000000000000000000000000000000000000000000000000000000000 DUP2 MSTORE PUSH1 0x4 ADD PUSH2 0x1141 SWAP1 PUSH2 0x39CD JUMP JUMPDEST PUSH1 0x40 MLOAD DUP1 SWAP2 SUB SWAP1 REVERT JUMPDEST PUSH1 0x0 DUP2 PUSH1 0x2 ADD PUSH1 0x0 CALLER PUSH20 0xFFFFFFFFFFFFFFFFFFFFFFFFFFFFFFFFFFFFFFFF AND PUSH20 0xFFFFFFFFFFFFFFFFFFFFFFFFFFFFFFFFFFFFFFFF AND DUP2 MSTORE PUSH1 0x20 ADD SWAP1 DUP2 MSTORE PUSH1 0x20 ADD PUSH1 0x0 KECCAK256 SWAP1 POP CALLVALUE DUP2 PUSH1 0x1 ADD PUSH1 0x0 DUP3 DUP3 SLOAD PUSH2 0x11A3 SWAP2 SWAP1 PUSH2 0x39ED JUMP JUMPDEST SWAP3 POP POP DUP2 SWAP1 SSTORE POP CALLVALUE DUP3 PUSH1 0x4 ADD PUSH1 0x0 DUP3 DUP3 SLOAD PUSH2 0x11BE SWAP2 SWAP1 PUSH2 0x39ED JUMP JUMPDEST SWAP3 POP POP DUP2 SWAP1 SSTORE POP POP POP POP JUMP JUMPDEST PUSH1 0x0 DUP1 PUSH20 0xFFFFFFFFFFFFFFFFFFFFFFFFFFFFFFFFFFFFFFFF AND PUSH1 0x0 DUP1 DUP5 DUP2 MSTORE PUSH1 0x20 ADD SWAP1 DUP2 MSTORE PUSH1 0x20 ADD PUSH1 0x0 KECCAK256 PUSH1 0x2 ADD PUSH1 0x0 DUP6 PUSH20 0xFFFFFFFFFFFFFFFFFFFFFFFFFFFFFFFFFFFFFFFF AND PUSH20 0xFFFFFFFFFFFFFFFFFFFFFFFFFFFFFFFFFFFFFFFF AND DUP2 MSTORE PUSH1 0x20 ADD SWAP1 DUP2 MSTORE PUSH1 0x20 ADD PUSH1 0x0 KECCAK256 PUSH1 0x0 ADD PUSH1 0x0 SWAP1 SLOAD SWAP1 PUSH2 0x100 EXP SWAP1 DIV PUSH20 0xFFFFFFFFFFFFFFFFFFFFFFFFFFFFFFFFFFFFFFFF AND PUSH20 0xFFFFFFFFFFFFFFFFFFFFFFFFFFFFFFFFFFFFFFFF AND EQ ISZERO SWAP1 POP SWAP3 SWAP2 POP POP JUMP JUMPDEST PUSH1 0x0 DUP1 PUSH1 0x1 DUP1 SLOAD PUSH2 0x128A SWAP2 SWAP1 PUSH2 0x39ED JUMP JUMPDEST SWAP1 POP PUSH1 0x0 DUP1 PUSH1 0x0 DUP4 DUP2 MSTORE PUSH1 0x20 ADD SWAP1 DUP2 MSTORE PUSH1 0x20 ADD PUSH1 0x0 KECCAK256 SWAP1 POP DUP2 DUP2 PUSH1 0x0 ADD DUP2 SWAP1 SSTORE POP DUP5 DUP2 PUSH1 0x1 ADD SWAP1 DUP1 MLOAD SWAP1 PUSH1 0x20 ADD SWAP1 PUSH2 0x12C3 SWAP3 SWAP2 SWAP1 PUSH2 0x2706 JUMP JUMPDEST POP PUSH1 0x0 DUP2 PUSH1 0x4 ADD DUP2 SWAP1 SSTORE POP PUSH1 0x0 DUP2 PUSH1 0x6 ADD DUP2 SWAP1 SSTORE POP PUSH1 0x1 DUP2 PUSH1 0x3 ADD DUP2 SWAP1 SSTORE POP DUP4 DUP2 PUSH1 0x7 ADD SWAP1 DUP1 MLOAD SWAP1 PUSH1 0x20 ADD SWAP1 PUSH2 0x12FA SWAP3 SWAP2 SWAP1 PUSH2 0x2706 JUMP JUMPDEST POP PUSH1 0x0 PUSH1 0x40 MLOAD DUP1 PUSH1 0x40 ADD PUSH1 0x40 MSTORE DUP1 CALLER PUSH20 0xFFFFFFFFFFFFFFFFFFFFFFFFFFFFFFFFFFFFFFFF AND DUP2 MSTORE PUSH1 0x20 ADD PUSH1 0x0 DUP2 MSTORE POP SWAP1 POP DUP1 DUP3 PUSH1 0x2 ADD PUSH1 0x0 CALLER PUSH20 0xFFFFFFFFFFFFFFFFFFFFFFFFFFFFFFFFFFFFFFFF AND PUSH20 0xFFFFFFFFFFFFFFFFFFFFFFFFFFFFFFFFFFFFFFFF AND DUP2 MSTORE PUSH1 0x20 ADD SWAP1 DUP2 MSTORE PUSH1 0x20 ADD PUSH1 0x0 KECCAK256 PUSH1 0x0 DUP3 ADD MLOAD DUP2 PUSH1 0x0 ADD PUSH1 0x0 PUSH2 0x100 EXP DUP2 SLOAD DUP2 PUSH20 0xFFFFFFFFFFFFFFFFFFFFFFFFFFFFFFFFFFFFFFFF MUL NOT AND SWAP1 DUP4 PUSH20 0xFFFFFFFFFFFFFFFFFFFFFFFFFFFFFFFFFFFFFFFF AND MUL OR SWAP1 SSTORE POP PUSH1 0x20 DUP3 ADD MLOAD DUP2 PUSH1 0x1 ADD SSTORE SWAP1 POP POP DUP3 PUSH1 0x1 DUP2 SWAP1 SSTORE POP DUP3 SWAP4 POP POP POP POP SWAP3 SWAP2 POP POP JUMP JUMPDEST PUSH2 0x13DD DUP2 PUSH2 0x1C32 JUMP JUMPDEST PUSH2 0x141C JUMPI PUSH1 0x40 MLOAD PUSH32 0x8C379A000000000000000000000000000000000000000000000000000000000 DUP2 MSTORE PUSH1 0x4 ADD PUSH2 0x1413 SWAP1 PUSH2 0x3474 JUMP JUMPDEST PUSH1 0x40 MLOAD DUP1 SWAP2 SUB SWAP1 REVERT JUMPDEST PUSH1 0x0 DUP1 PUSH1 0x0 DUP4 DUP2 MSTORE PUSH1 0x20 ADD SWAP1 DUP2 MSTORE PUSH1 0x20 ADD PUSH1 0x0 KECCAK256 SWAP1 POP PUSH2 0x143C CALLER DUP4 PUSH2 0x11CA JUMP JUMPDEST PUSH2 0x147B JUMPI PUSH1 0x40 MLOAD PUSH32 0x8C379A000000000000000000000000000000000000000000000000000000000 DUP2 MSTORE PUSH1 0x4 ADD PUSH2 0x1472 SWAP1 PUSH2 0x36BF JUMP JUMPDEST PUSH1 0x40 MLOAD DUP1 SWAP2 SUB SWAP1 REVERT JUMPDEST PUSH1 0x1 DUP2 PUSH1 0x3 ADD PUSH1 0x0 DUP3 DUP3 SLOAD PUSH2 0x1490 SWAP2 SWAP1 PUSH2 0x3927 JUMP JUMPDEST SWAP3 POP POP DUP2 SWAP1 SSTORE POP DUP1 PUSH1 0x2 ADD PUSH1 0x0 CALLER PUSH20 0xFFFFFFFFFFFFFFFFFFFFFFFFFFFFFFFFFFFFFFFF AND PUSH20 0xFFFFFFFFFFFFFFFFFFFFFFFFFFFFFFFFFFFFFFFF AND DUP2 MSTORE PUSH1 0x20 ADD SWAP1 DUP2 MSTORE PUSH1 0x20 ADD PUSH1 0x0 KECCAK256 PUSH1 0x0 DUP1 DUP3 ADD PUSH1 0x0 PUSH2 0x100 EXP DUP2 SLOAD SWAP1 PUSH20 0xFFFFFFFFFFFFFFFFFFFFFFFFFFFFFFFFFFFFFFFF MUL NOT AND SWAP1 SSTORE PUSH1 0x1 DUP3 ADD PUSH1 0x0 SWAP1 SSTORE POP POP POP POP JUMP JUMPDEST PUSH1 0x60 PUSH1 0x0 PUSH1 0x1 SLOAD PUSH8 0xFFFFFFFFFFFFFFFF DUP2 GT ISZERO PUSH2 0x152E JUMPI PUSH2 0x152D PUSH2 0x2D7E JUMP JUMPDEST JUMPDEST PUSH1 0x40 MLOAD SWAP1 DUP1 DUP3 MSTORE DUP1 PUSH1 0x20 MUL PUSH1 0x20 ADD DUP3 ADD PUSH1 0x40 MSTORE DUP1 ISZERO PUSH2 0x1567 JUMPI DUP2 PUSH1 0x20 ADD JUMPDEST PUSH2 0x1554 PUSH2 0x278C JUMP JUMPDEST DUP2 MSTORE PUSH1 0x20 ADD SWAP1 PUSH1 0x1 SWAP1 SUB SWAP1 DUP2 PUSH2 0x154C JUMPI SWAP1 POP JUMPDEST POP SWAP1 POP PUSH1 0x0 DUP1 PUSH1 0x1 SWAP1 POP JUMPDEST PUSH1 0x1 SLOAD DUP2 GT PUSH2 0x1791 JUMPI PUSH1 0x0 DUP1 PUSH1 0x0 DUP4 DUP2 MSTORE PUSH1 0x20 ADD SWAP1 DUP2 MSTORE PUSH1 0x20 ADD PUSH1 0x0 KECCAK256 SWAP1 POP PUSH2 0x159F CALLER DUP3 PUSH1 0x0 ADD SLOAD PUSH2 0x11CA JUMP JUMPDEST ISZERO PUSH2 0x177D JUMPI PUSH1 0x40 MLOAD DUP1 PUSH1 0xC0 ADD PUSH1 0x40 MSTORE DUP1 DUP3 PUSH1 0x0 ADD SLOAD DUP2 MSTORE PUSH1 0x20 ADD DUP3 PUSH1 0x1 ADD DUP1 SLOAD PUSH2 0x15C8 SWAP1 PUSH2 0x334F JUMP JUMPDEST DUP1 PUSH1 0x1F ADD PUSH1 0x20 DUP1 SWAP2 DIV MUL PUSH1 0x20 ADD PUSH1 0x40 MLOAD SWAP1 DUP2 ADD PUSH1 0x40 MSTORE DUP1 SWAP3 SWAP2 SWAP1 DUP2 DUP2 MSTORE PUSH1 0x20 ADD DUP3 DUP1 SLOAD PUSH2 0x15F4 SWAP1 PUSH2 0x334F JUMP JUMPDEST DUP1 ISZERO PUSH2 0x1641 JUMPI DUP1 PUSH1 0x1F LT PUSH2 0x1616 JUMPI PUSH2 0x100 DUP1 DUP4 SLOAD DIV MUL DUP4 MSTORE SWAP2 PUSH1 0x20 ADD SWAP2 PUSH2 0x1641 JUMP JUMPDEST DUP3 ADD SWAP2 SWAP1 PUSH1 0x0 MSTORE PUSH1 0x20 PUSH1 0x0 KECCAK256 SWAP1 JUMPDEST DUP2 SLOAD DUP2 MSTORE SWAP1 PUSH1 0x1 ADD SWAP1 PUSH1 0x20 ADD DUP1 DUP4 GT PUSH2 0x1624 JUMPI DUP3 SWAP1 SUB PUSH1 0x1F AND DUP3 ADD SWAP2 JUMPDEST POP POP POP POP POP DUP2 MSTORE PUSH1 0x20 ADD DUP3 PUSH1 0x3 ADD SLOAD DUP2 MSTORE PUSH1 0x20 ADD DUP3 PUSH1 0x6 ADD SLOAD DUP2 MSTORE PUSH1 0x20 ADD DUP3 PUSH1 0x4 ADD SLOAD DUP2 MSTORE PUSH1 0x20 ADD DUP3 PUSH1 0x7 ADD DUP1 SLOAD PUSH2 0x1678 SWAP1 PUSH2 0x334F JUMP JUMPDEST DUP1 PUSH1 0x1F ADD PUSH1 0x20 DUP1 SWAP2 DIV MUL PUSH1 0x20 ADD PUSH1 0x40 MLOAD SWAP1 DUP2 ADD PUSH1 0x40 MSTORE DUP1 SWAP3 SWAP2 SWAP1 DUP2 DUP2 MSTORE PUSH1 0x20 ADD DUP3 DUP1 SLOAD PUSH2 0x16A4 SWAP1 PUSH2 0x334F JUMP JUMPDEST DUP1 ISZERO PUSH2 0x16F1 JUMPI DUP1 PUSH1 0x1F LT PUSH2 0x16C6 JUMPI PUSH2 0x100 DUP1 DUP4 SLOAD DIV MUL DUP4 MSTORE SWAP2 PUSH1 0x20 ADD SWAP2 PUSH2 0x16F1 JUMP JUMPDEST DUP3 ADD SWAP2 SWAP1 PUSH1 0x0 MSTORE PUSH1 0x20 PUSH1 0x0 KECCAK256 SWAP1 JUMPDEST DUP2 SLOAD DUP2 MSTORE SWAP1 PUSH1 0x1 ADD SWAP1 PUSH1 0x20 ADD DUP1 DUP4 GT PUSH2 0x16D4 JUMPI DUP3 SWAP1 SUB PUSH1 0x1F AND DUP3 ADD SWAP2 JUMPDEST POP POP POP POP POP DUP2 MSTORE POP DUP5 DUP5 DUP2 MLOAD DUP2 LT PUSH2 0x170C JUMPI PUSH2 0x170B PUSH2 0x3381 JUMP JUMPDEST JUMPDEST PUSH1 0x20 MUL PUSH1 0x20 ADD ADD DUP2 SWAP1 MSTORE POP DUP3 DUP1 PUSH2 0x1722 SWAP1 PUSH2 0x33DF JUMP JUMPDEST SWAP4 POP POP PUSH32 0x2AB5DC4B0EC72EAD814B888A207317DBC9C5DFEF0D1FBD7F34ED9E31F136FF8B DUP2 PUSH1 0x0 ADD SLOAD DUP3 PUSH1 0x1 ADD DUP4 PUSH1 0x3 ADD SLOAD DUP5 PUSH1 0x6 ADD SLOAD DUP6 PUSH1 0x4 ADD SLOAD DUP7 PUSH1 0x7 ADD PUSH1 0x40 MLOAD PUSH2 0x1774 SWAP7 SWAP6 SWAP5 SWAP4 SWAP3 SWAP2 SWAP1 PUSH2 0x3A43 JUMP JUMPDEST PUSH1 0x40 MLOAD DUP1 SWAP2 SUB SWAP1 LOG1 JUMPDEST POP DUP1 DUP1 PUSH2 0x1789 SWAP1 PUSH2 0x33DF JUMP JUMPDEST SWAP2 POP POP PUSH2 0x1572 JUMP JUMPDEST POP DUP2 SWAP3 POP POP POP SWAP1 JUMP JUMPDEST PUSH2 0x17A3 DUP4 PUSH2 0x1C32 JUMP JUMPDEST PUSH2 0x17E2 JUMPI PUSH1 0x40 MLOAD PUSH32 0x8C379A000000000000000000000000000000000000000000000000000000000 DUP2 MSTORE PUSH1 0x4 ADD PUSH2 0x17D9 SWAP1 PUSH2 0x3474 JUMP JUMPDEST PUSH1 0x40 MLOAD DUP1 SWAP2 SUB SWAP1 REVERT JUMPDEST PUSH2 0x17EC DUP4 DUP4 PUSH2 0x1F88 JUMP JUMPDEST PUSH2 0x182B JUMPI PUSH1 0x40 MLOAD PUSH32 0x8C379A000000000000000000000000000000000000000000000000000000000 DUP2 MSTORE PUSH1 0x4 ADD PUSH2 0x1822 SWAP1 PUSH2 0x3AFE JUMP JUMPDEST PUSH1 0x40 MLOAD DUP1 SWAP2 SUB SWAP1 REVERT JUMPDEST PUSH1 0x0 DUP1 PUSH1 0x0 DUP6 DUP2 MSTORE PUSH1 0x20 ADD SWAP1 DUP2 MSTORE PUSH1 0x20 ADD PUSH1 0x0 KECCAK256 SWAP1 POP PUSH2 0x184B CALLER DUP6 PUSH2 0x11CA JUMP JUMPDEST PUSH2 0x188A JUMPI PUSH1 0x40 MLOAD PUSH32 0x8C379A000000000000000000000000000000000000000000000000000000000 DUP2 MSTORE PUSH1 0x4 ADD PUSH2 0x1881 SWAP1 PUSH2 0x36BF JUMP JUMPDEST PUSH1 0x40 MLOAD DUP1 SWAP2 SUB SWAP1 REVERT JUMPDEST PUSH2 0x1894 DUP4 DUP6 PUSH2 0x25BC JUMP JUMPDEST PUSH2 0x18D3 JUMPI PUSH1 0x40 MLOAD PUSH32 0x8C379A000000000000000000000000000000000000000000000000000000000 DUP2 MSTORE PUSH1 0x4 ADD PUSH2 0x18CA SWAP1 PUSH2 0x34E0 JUMP JUMPDEST PUSH1 0x40 MLOAD DUP1 SWAP2 SUB SWAP1 REVERT JUMPDEST PUSH1 0x0 DUP2 PUSH1 0x5 ADD PUSH1 0x0 DUP6 DUP2 MSTORE PUSH1 0x20 ADD SWAP1 DUP2 MSTORE PUSH1 0x20 ADD PUSH1 0x0 KECCAK256 SWAP1 POP PUSH2 0x18F7 CALLER DUP6 DUP8 PUSH2 0x8CE JUMP JUMPDEST ISZERO PUSH2 0x1937 JUMPI PUSH1 0x40 MLOAD PUSH32 0x8C379A000000000000000000000000000000000000000000000000000000000 DUP2 MSTORE PUSH1 0x4 ADD PUSH2 0x192E SWAP1 PUSH2 0x3B90 JUMP JUMPDEST PUSH1 0x40 MLOAD DUP1 SWAP2 SUB SWAP1 REVERT JUMPDEST PUSH1 0x40 MLOAD DUP1 PUSH1 0x40 ADD PUSH1 0x40 MSTORE DUP1 PUSH1 0x7 DUP2 MSTORE PUSH1 0x20 ADD PUSH32 0x50656E64696E6700000000000000000000000000000000000000000000000000 DUP2 MSTORE POP DUP1 MLOAD SWAP1 PUSH1 0x20 ADD KECCAK256 DUP2 PUSH1 0x4 ADD PUSH1 0x40 MLOAD PUSH2 0x1985 SWAP2 SWAP1 PUSH2 0x3C4F JUMP JUMPDEST PUSH1 0x40 MLOAD DUP1 SWAP2 SUB SWAP1 KECCAK256 EQ PUSH2 0x19CD JUMPI PUSH1 0x40 MLOAD PUSH32 0x8C379A000000000000000000000000000000000000000000000000000000000 DUP2 MSTORE PUSH1 0x4 ADD PUSH2 0x19C4 SWAP1 PUSH2 0x3CD8 JUMP JUMPDEST PUSH1 0x40 MLOAD DUP1 SWAP2 SUB SWAP1 REVERT JUMPDEST DUP3 ISZERO PUSH2 0x19F4 JUMPI PUSH1 0x1 DUP2 PUSH1 0x6 ADD PUSH1 0x0 DUP3 DUP3 SLOAD PUSH2 0x19E8 SWAP2 SWAP1 PUSH2 0x39ED JUMP JUMPDEST SWAP3 POP POP DUP2 SWAP1 SSTORE POP PUSH2 0x1A11 JUMP JUMPDEST PUSH1 0x1 DUP2 PUSH1 0x7 ADD PUSH1 0x0 DUP3 DUP3 SLOAD PUSH2 0x1A09 SWAP2 SWAP1 PUSH2 0x39ED JUMP JUMPDEST SWAP3 POP POP DUP2 SWAP1 SSTORE POP JUMPDEST POP POP POP POP POP JUMP JUMPDEST PUSH1 0x60 PUSH1 0x0 PUSH1 0x1 SLOAD PUSH8 0xFFFFFFFFFFFFFFFF DUP2 GT ISZERO PUSH2 0x1A38 JUMPI PUSH2 0x1A37 PUSH2 0x2D7E JUMP JUMPDEST JUMPDEST PUSH1 0x40 MLOAD SWAP1 DUP1 DUP3 MSTORE DUP1 PUSH1 0x20 MUL PUSH1 0x20 ADD DUP3 ADD PUSH1 0x40 MSTORE DUP1 ISZERO PUSH2 0x1A71 JUMPI DUP2 PUSH1 0x20 ADD JUMPDEST PUSH2 0x1A5E PUSH2 0x278C JUMP JUMPDEST DUP2 MSTORE PUSH1 0x20 ADD SWAP1 PUSH1 0x1 SWAP1 SUB SWAP1 DUP2 PUSH2 0x1A56 JUMPI SWAP1 POP JUMPDEST POP SWAP1 POP PUSH1 0x0 JUMPDEST PUSH1 0x1 SLOAD DUP2 LT ISZERO PUSH2 0x1C2A JUMPI PUSH1 0x0 DUP1 PUSH1 0x0 PUSH1 0x1 DUP5 PUSH2 0x1A93 SWAP2 SWAP1 PUSH2 0x39ED JUMP JUMPDEST DUP2 MSTORE PUSH1 0x20 ADD SWAP1 DUP2 MSTORE PUSH1 0x20 ADD PUSH1 0x0 KECCAK256 SWAP1 POP PUSH1 0x40 MLOAD DUP1 PUSH1 0xC0 ADD PUSH1 0x40 MSTORE DUP1 DUP3 PUSH1 0x0 ADD SLOAD DUP2 MSTORE PUSH1 0x20 ADD DUP3 PUSH1 0x1 ADD DUP1 SLOAD PUSH2 0x1AC7 SWAP1 PUSH2 0x334F JUMP JUMPDEST DUP1 PUSH1 0x1F ADD PUSH1 0x20 DUP1 SWAP2 DIV MUL PUSH1 0x20 ADD PUSH1 0x40 MLOAD SWAP1 DUP2 ADD PUSH1 0x40 MSTORE DUP1 SWAP3 SWAP2 SWAP1 DUP2 DUP2 MSTORE PUSH1 0x20 ADD DUP3 DUP1 SLOAD PUSH2 0x1AF3 SWAP1 PUSH2 0x334F JUMP JUMPDEST DUP1 ISZERO PUSH2 0x1B40 JUMPI DUP1 PUSH1 0x1F LT PUSH2 0x1B15 JUMPI PUSH2 0x100 DUP1 DUP4 SLOAD DIV MUL DUP4 MSTORE SWAP2 PUSH1 0x20 ADD SWAP2 PUSH2 0x1B40 JUMP JUMPDEST DUP3 ADD SWAP2 SWAP1 PUSH1 0x0 MSTORE PUSH1 0x20 PUSH1 0x0 KECCAK256 SWAP1 JUMPDEST DUP2 SLOAD DUP2 MSTORE SWAP1 PUSH1 0x1 ADD SWAP1 PUSH1 0x20 ADD DUP1 DUP4 GT PUSH2 0x1B23 JUMPI DUP3 SWAP1 SUB PUSH1 0x1F AND DUP3 ADD SWAP2 JUMPDEST POP POP POP POP POP DUP2 MSTORE PUSH1 0x20 ADD DUP3 PUSH1 0x3 ADD SLOAD DUP2 MSTORE PUSH1 0x20 ADD DUP3 PUSH1 0x6 ADD SLOAD DUP2 MSTORE PUSH1 0x20 ADD DUP3 PUSH1 0x4 ADD SLOAD DUP2 MSTORE PUSH1 0x20 ADD DUP3 PUSH1 0x7 ADD DUP1 SLOAD PUSH2 0x1B77 SWAP1 PUSH2 0x334F JUMP JUMPDEST DUP1 PUSH1 0x1F ADD PUSH1 0x20 DUP1 SWAP2 DIV MUL PUSH1 0x20 ADD PUSH1 0x40 MLOAD SWAP1 DUP2 ADD PUSH1 0x40 MSTORE DUP1 SWAP3 SWAP2 SWAP1 DUP2 DUP2 MSTORE PUSH1 0x20 ADD DUP3 DUP1 SLOAD PUSH2 0x1BA3 SWAP1 PUSH2 0x334F JUMP JUMPDEST DUP1 ISZERO PUSH2 0x1BF0 JUMPI DUP1 PUSH1 0x1F LT PUSH2 0x1BC5 JUMPI PUSH2 0x100 DUP1 DUP4 SLOAD DIV MUL DUP4 MSTORE SWAP2 PUSH1 0x20 ADD SWAP2 PUSH2 0x1BF0 JUMP JUMPDEST DUP3 ADD SWAP2 SWAP1 PUSH1 0x0 MSTORE PUSH1 0x20 PUSH1 0x0 KECCAK256 SWAP1 JUMPDEST DUP2 SLOAD DUP2 MSTORE SWAP1 PUSH1 0x1 ADD SWAP1 PUSH1 0x20 ADD DUP1 DUP4 GT PUSH2 0x1BD3 JUMPI DUP3 SWAP1 SUB PUSH1 0x1F AND DUP3 ADD SWAP2 JUMPDEST POP POP POP POP POP DUP2 MSTORE POP DUP4 DUP4 DUP2 MLOAD DUP2 LT PUSH2 0x1C0B JUMPI PUSH2 0x1C0A PUSH2 0x3381 JUMP JUMPDEST JUMPDEST PUSH1 0x20 MUL PUSH1 0x20 ADD ADD DUP2 SWAP1 MSTORE POP POP DUP1 DUP1 PUSH2 0x1C22 SWAP1 PUSH2 0x33DF JUMP JUMPDEST SWAP2 POP POP PUSH2 0x1A77 JUMP JUMPDEST POP DUP1 SWAP2 POP POP SWAP1 JUMP JUMPDEST PUSH1 0x0 DUP1 PUSH1 0x0 DUP1 DUP5 DUP2 MSTORE PUSH1 0x20 ADD SWAP1 DUP2 MSTORE PUSH1 0x20 ADD PUSH1 0x0 KECCAK256 PUSH1 0x0 ADD SLOAD EQ ISZERO SWAP1 POP SWAP2 SWAP1 POP JUMP JUMPDEST PUSH1 0x0 DUP1 PUSH1 0x0 DUP1 DUP5 DUP2 MSTORE PUSH1 0x20 ADD SWAP1 DUP2 MSTORE PUSH1 0x20 ADD PUSH1 0x0 KECCAK256 SWAP1 POP PUSH1 0x0 DUP2 PUSH1 0x2 ADD PUSH1 0x0 DUP7 PUSH20 0xFFFFFFFFFFFFFFFFFFFFFFFFFFFFFFFFFFFFFFFF AND PUSH20 0xFFFFFFFFFFFFFFFFFFFFFFFFFFFFFFFFFFFFFFFF AND DUP2 MSTORE PUSH1 0x20 ADD SWAP1 DUP2 MSTORE PUSH1 0x20 ADD PUSH1 0x0 KECCAK256 SWAP1 POP DUP1 PUSH1 0x1 ADD SLOAD SWAP3 POP POP POP SWAP3 SWAP2 POP POP JUMP JUMPDEST PUSH2 0x1CC8 DUP6 PUSH2 0x1C32 JUMP JUMPDEST PUSH2 0x1D07 JUMPI PUSH1 0x40 MLOAD PUSH32 0x8C379A000000000000000000000000000000000000000000000000000000000 DUP2 MSTORE PUSH1 0x4 ADD PUSH2 0x1CFE SWAP1 PUSH2 0x3474 JUMP JUMPDEST PUSH1 0x40 MLOAD DUP1 SWAP2 SUB SWAP1 REVERT JUMPDEST PUSH1 0x0 DUP1 PUSH1 0x0 DUP8 DUP2 MSTORE PUSH1 0x20 ADD SWAP1 DUP2 MSTORE PUSH1 0x20 ADD PUSH1 0x0 KECCAK256 SWAP1 POP PUSH2 0x1D27 CALLER DUP8 PUSH2 0x11CA JUMP JUMPDEST PUSH2 0x1D66 JUMPI PUSH1 0x40 MLOAD PUSH32 0x8C379A000000000000000000000000000000000000000000000000000000000 DUP2 MSTORE PUSH1 0x4 ADD PUSH2 0x1D5D SWAP1 PUSH2 0x36BF JUMP JUMPDEST PUSH1 0x40 MLOAD DUP1 SWAP2 SUB SWAP1 REVERT JUMPDEST PUSH1 0x0 DUP6 GT PUSH2 0x1DA9 JUMPI PUSH1 0x40 MLOAD PUSH32 0x8C379A000000000000000000000000000000000000000000000000000000000 DUP2 MSTORE PUSH1 0x4 ADD PUSH2 0x1DA0 SWAP1 PUSH2 0x3D6A JUMP JUMPDEST PUSH1 0x40 MLOAD DUP1 SWAP2 SUB SWAP1 REVERT JUMPDEST PUSH1 0x0 PUSH1 0x1 DUP3 PUSH1 0x6 ADD SLOAD PUSH2 0x1DBC SWAP2 SWAP1 PUSH2 0x39ED JUMP JUMPDEST SWAP1 POP PUSH1 0x0 DUP1 PUSH1 0x0 DUP10 DUP2 MSTORE PUSH1 0x20 ADD SWAP1 DUP2 MSTORE PUSH1 0x20 ADD PUSH1 0x0 KECCAK256 PUSH1 0x5 ADD PUSH1 0x0 DUP4 DUP2 MSTORE PUSH1 0x20 ADD SWAP1 DUP2 MSTORE PUSH1 0x20 ADD PUSH1 0x0 KECCAK256 SWAP1 POP DUP2 DUP2 PUSH1 0x0 ADD DUP2 SWAP1 SSTORE POP CALLER DUP2 PUSH1 0x1 ADD PUSH1 0x0 PUSH2 0x100 EXP DUP2 SLOAD DUP2 PUSH20 0xFFFFFFFFFFFFFFFFFFFFFFFFFFFFFFFFFFFFFFFF MUL NOT AND SWAP1 DUP4 PUSH20 0xFFFFFFFFFFFFFFFFFFFFFFFFFFFFFFFFFFFFFFFF AND MUL OR SWAP1 SSTORE POP DUP7 DUP2 PUSH1 0x2 ADD DUP2 SWAP1 SSTORE POP DUP6 DUP2 PUSH1 0x3 ADD PUSH1 0x0 PUSH2 0x100 EXP DUP2 SLOAD DUP2 PUSH20 0xFFFFFFFFFFFFFFFFFFFFFFFFFFFFFFFFFFFFFFFF MUL NOT AND SWAP1 DUP4 PUSH20 0xFFFFFFFFFFFFFFFFFFFFFFFFFFFFFFFFFFFFFFFF AND MUL OR SWAP1 SSTORE POP PUSH1 0x40 MLOAD DUP1 PUSH1 0x40 ADD PUSH1 0x40 MSTORE DUP1 PUSH1 0x7 DUP2 MSTORE PUSH1 0x20 ADD PUSH32 0x50656E64696E6700000000000000000000000000000000000000000000000000 DUP2 MSTORE POP DUP2 PUSH1 0x4 ADD SWAP1 DUP1 MLOAD SWAP1 PUSH1 0x20 ADD SWAP1 PUSH2 0x1ECD SWAP3 SWAP2 SWAP1 PUSH2 0x2706 JUMP JUMPDEST POP DUP5 DUP2 PUSH1 0x5 ADD SWAP1 DUP1 MLOAD SWAP1 PUSH1 0x20 ADD SWAP1 PUSH2 0x1EE6 SWAP3 SWAP2 SWAP1 PUSH2 0x2706 JUMP JUMPDEST POP PUSH1 0x0 DUP2 PUSH1 0x6 ADD DUP2 SWAP1 SSTORE POP PUSH1 0x0 DUP2 PUSH1 0x7 ADD DUP2 SWAP1 SSTORE POP TIMESTAMP DUP2 PUSH1 0x8 ADD DUP2 SWAP1 SSTORE POP PUSH2 0x12C TIMESTAMP PUSH2 0x1F12 SWAP2 SWAP1 PUSH2 0x39ED JUMP JUMPDEST DUP2 PUSH1 0x9 ADD DUP2 SWAP1 SSTORE POP DUP4 DUP2 PUSH1 0xA ADD SWAP1 DUP1 MLOAD SWAP1 PUSH1 0x20 ADD SWAP1 PUSH2 0x1F32 SWAP3 SWAP2 SWAP1 PUSH2 0x2706 JUMP JUMPDEST POP DUP2 DUP4 PUSH1 0x6 ADD DUP2 SWAP1 SSTORE POP DUP8 PUSH32 0xD28F39451A81DB59D33C77DA433396C23046543154523CB54D6908320F6AA4DF DUP4 CALLER DUP11 DUP11 DUP11 DUP11 PUSH1 0x40 MLOAD PUSH2 0x1F76 SWAP7 SWAP6 SWAP5 SWAP4 SWAP3 SWAP2 SWAP1 PUSH2 0x3DC3 JUMP JUMPDEST PUSH1 0x40 MLOAD DUP1 SWAP2 SUB SWAP1 LOG2 POP POP POP POP POP POP POP POP JUMP JUMPDEST PUSH1 0x0 DUP1 PUSH1 0x0 DUP1 DUP6 DUP2 MSTORE PUSH1 0x20 ADD SWAP1 DUP2 MSTORE PUSH1 0x20 ADD PUSH1 0x0 KECCAK256 PUSH1 0x5 ADD PUSH1 0x0 DUP5 DUP2 MSTORE PUSH1 0x20 ADD SWAP1 DUP2 MSTORE PUSH1 0x20 ADD PUSH1 0x0 KECCAK256 SWAP1 POP TIMESTAMP DUP2 PUSH1 0x9 ADD SLOAD GT SWAP2 POP POP SWAP3 SWAP2 POP POP JUMP JUMPDEST PUSH2 0x1FCB PUSH2 0x278C JUMP JUMPDEST PUSH2 0x1FD4 DUP3 PUSH2 0x1C32 JUMP JUMPDEST PUSH2 0x2013 JUMPI PUSH1 0x40 MLOAD PUSH32 0x8C379A000000000000000000000000000000000000000000000000000000000 DUP2 MSTORE PUSH1 0x4 ADD PUSH2 0x200A SWAP1 PUSH2 0x3474 JUMP JUMPDEST PUSH1 0x40 MLOAD DUP1 SWAP2 SUB SWAP1 REVERT JUMPDEST PUSH1 0x0 DUP1 PUSH1 0x0 DUP5 DUP2 MSTORE PUSH1 0x20 ADD SWAP1 DUP2 MSTORE PUSH1 0x20 ADD PUSH1 0x0 KECCAK256 SWAP1 POP PUSH1 0x0 PUSH1 0x40 MLOAD DUP1 PUSH1 0xC0 ADD PUSH1 0x40 MSTORE DUP1 DUP4 PUSH1 0x0 ADD SLOAD DUP2 MSTORE PUSH1 0x20 ADD DUP4 PUSH1 0x1 ADD DUP1 SLOAD PUSH2 0x204F SWAP1 PUSH2 0x334F JUMP JUMPDEST DUP1 PUSH1 0x1F ADD PUSH1 0x20 DUP1 SWAP2 DIV MUL PUSH1 0x20 ADD PUSH1 0x40 MLOAD SWAP1 DUP2 ADD PUSH1 0x40 MSTORE DUP1 SWAP3 SWAP2 SWAP1 DUP2 DUP2 MSTORE PUSH1 0x20 ADD DUP3 DUP1 SLOAD PUSH2 0x207B SWAP1 PUSH2 0x334F JUMP JUMPDEST DUP1 ISZERO PUSH2 0x20C8 JUMPI DUP1 PUSH1 0x1F LT PUSH2 0x209D JUMPI PUSH2 0x100 DUP1 DUP4 SLOAD DIV MUL DUP4 MSTORE SWAP2 PUSH1 0x20 ADD SWAP2 PUSH2 0x20C8 JUMP JUMPDEST DUP3 ADD SWAP2 SWAP1 PUSH1 0x0 MSTORE PUSH1 0x20 PUSH1 0x0 KECCAK256 SWAP1 JUMPDEST DUP2 SLOAD DUP2 MSTORE SWAP1 PUSH1 0x1 ADD SWAP1 PUSH1 0x20 ADD DUP1 DUP4 GT PUSH2 0x20AB JUMPI DUP3 SWAP1 SUB PUSH1 0x1F AND DUP3 ADD SWAP2 JUMPDEST POP POP POP POP POP DUP2 MSTORE PUSH1 0x20 ADD DUP4 PUSH1 0x3 ADD SLOAD DUP2 MSTORE PUSH1 0x20 ADD DUP4 PUSH1 0x6 ADD SLOAD DUP2 MSTORE PUSH1 0x20 ADD DUP4 PUSH1 0x4 ADD SLOAD DUP2 MSTORE PUSH1 0x20 ADD DUP4 PUSH1 0x7 ADD DUP1 SLOAD PUSH2 0x20FF SWAP1 PUSH2 0x334F JUMP JUMPDEST DUP1 PUSH1 0x1F ADD PUSH1 0x20 DUP1 SWAP2 DIV MUL PUSH1 0x20 ADD PUSH1 0x40 MLOAD SWAP1 DUP2 ADD PUSH1 0x40 MSTORE DUP1 SWAP3 SWAP2 SWAP1 DUP2 DUP2 MSTORE PUSH1 0x20 ADD DUP3 DUP1 SLOAD PUSH2 0x212B SWAP1 PUSH2 0x334F JUMP JUMPDEST DUP1 ISZERO PUSH2 0x2178 JUMPI DUP1 PUSH1 0x1F LT PUSH2 0x214D JUMPI PUSH2 0x100 DUP1 DUP4 SLOAD DIV MUL DUP4 MSTORE SWAP2 PUSH1 0x20 ADD SWAP2 PUSH2 0x2178 JUMP JUMPDEST DUP3 ADD SWAP2 SWAP1 PUSH1 0x0 MSTORE PUSH1 0x20 PUSH1 0x0 KECCAK256 SWAP1 JUMPDEST DUP2 SLOAD DUP2 MSTORE SWAP1 PUSH1 0x1 ADD SWAP1 PUSH1 0x20 ADD DUP1 DUP4 GT PUSH2 0x215B JUMPI DUP3 SWAP1 SUB PUSH1 0x1F AND DUP3 ADD SWAP2 JUMPDEST POP POP POP POP POP DUP2 MSTORE POP SWAP1 POP DUP1 SWAP3 POP POP POP SWAP2 SWAP1 POP JUMP JUMPDEST PUSH1 0x0 PUSH1 0x63 PUSH1 0x0 DUP1 DUP5 DUP2 MSTORE PUSH1 0x20 ADD SWAP1 DUP2 MSTORE PUSH1 0x20 ADD PUSH1 0x0 KECCAK256 PUSH1 0x3 ADD SLOAD LT SWAP1 POP SWAP2 SWAP1 POP JUMP JUMPDEST PUSH2 0x21B7 DUP2 PUSH2 0x1C32 JUMP JUMPDEST PUSH2 0x21F6 JUMPI PUSH1 0x40 MLOAD PUSH32 0x8C379A000000000000000000000000000000000000000000000000000000000 DUP2 MSTORE PUSH1 0x4 ADD PUSH2 0x21ED SWAP1 PUSH2 0x3E7E JUMP JUMPDEST PUSH1 0x40 MLOAD DUP1 SWAP2 SUB SWAP1 REVERT JUMPDEST PUSH1 0x0 DUP1 PUSH1 0x0 DUP4 DUP2 MSTORE PUSH1 0x20 ADD SWAP1 DUP2 MSTORE PUSH1 0x20 ADD PUSH1 0x0 KECCAK256 SWAP1 POP PUSH2 0x2215 DUP3 PUSH2 0x218C JUMP JUMPDEST PUSH2 0x2254 JUMPI PUSH1 0x40 MLOAD PUSH32 0x8C379A000000000000000000000000000000000000000000000000000000000 DUP2 MSTORE PUSH1 0x4 ADD PUSH2 0x224B SWAP1 PUSH2 0x3F10 JUMP JUMPDEST PUSH1 0x40 MLOAD DUP1 SWAP2 SUB SWAP1 REVERT JUMPDEST PUSH2 0x225E CALLER DUP4 PUSH2 0x11CA JUMP JUMPDEST ISZERO PUSH2 0x229E JUMPI PUSH1 0x40 MLOAD PUSH32 0x8C379A000000000000000000000000000000000000000000000000000000000 DUP2 MSTORE PUSH1 0x4 ADD PUSH2 0x2295 SWAP1 PUSH2 0x3FA2 JUMP JUMPDEST PUSH1 0x40 MLOAD DUP1 SWAP2 SUB SWAP1 REVERT JUMPDEST PUSH1 0x0 PUSH1 0x40 MLOAD DUP1 PUSH1 0x40 ADD PUSH1 0x40 MSTORE DUP1 CALLER PUSH20 0xFFFFFFFFFFFFFFFFFFFFFFFFFFFFFFFFFFFFFFFF AND DUP2 MSTORE PUSH1 0x20 ADD PUSH1 0x0 DUP2 MSTORE POP SWAP1 POP DUP1 DUP3 PUSH1 0x2 ADD PUSH1 0x0 CALLER PUSH20 0xFFFFFFFFFFFFFFFFFFFFFFFFFFFFFFFFFFFFFFFF AND PUSH20 0xFFFFFFFFFFFFFFFFFFFFFFFFFFFFFFFFFFFFFFFF AND DUP2 MSTORE PUSH1 0x20 ADD SWAP1 DUP2 MSTORE PUSH1 0x20 ADD PUSH1 0x0 KECCAK256 PUSH1 0x0 DUP3 ADD MLOAD DUP2 PUSH1 0x0 ADD PUSH1 0x0 PUSH2 0x100 EXP DUP2 SLOAD DUP2 PUSH20 0xFFFFFFFFFFFFFFFFFFFFFFFFFFFFFFFFFFFFFFFF MUL NOT AND SWAP1 DUP4 PUSH20 0xFFFFFFFFFFFFFFFFFFFFFFFFFFFFFFFFFFFFFFFF AND MUL OR SWAP1 SSTORE POP PUSH1 0x20 DUP3 ADD MLOAD DUP2 PUSH1 0x1 ADD SSTORE SWAP1 POP POP PUSH1 0x1 DUP3 PUSH1 0x3 ADD PUSH1 0x0 DUP3 DUP3 SLOAD PUSH2 0x2379 SWAP2 SWAP1 PUSH2 0x39ED JUMP JUMPDEST SWAP3 POP POP DUP2 SWAP1 SSTORE POP POP POP POP JUMP JUMPDEST PUSH2 0x238E DUP3 PUSH2 0x1C32 JUMP JUMPDEST PUSH2 0x23CD JUMPI PUSH1 0x40 MLOAD PUSH32 0x8C379A000000000000000000000000000000000000000000000000000000000 DUP2 MSTORE PUSH1 0x4 ADD PUSH2 0x23C4 SWAP1 PUSH2 0x3474 JUMP JUMPDEST PUSH1 0x40 MLOAD DUP1 SWAP2 SUB SWAP1 REVERT JUMPDEST PUSH2 0x23D7 DUP2 DUP4 PUSH2 0x25BC JUMP JUMPDEST PUSH2 0x2416 JUMPI PUSH1 0x40 MLOAD PUSH32 0x8C379A000000000000000000000000000000000000000000000000000000000 DUP2 MSTORE PUSH1 0x4 ADD PUSH2 0x240D SWAP1 PUSH2 0x34E0 JUMP JUMPDEST PUSH1 0x40 MLOAD DUP1 SWAP2 SUB SWAP1 REVERT JUMPDEST PUSH2 0x2420 DUP3 DUP3 PUSH2 0x1F88 JUMP JUMPDEST ISZERO PUSH2 0x2460 JUMPI PUSH1 0x40 MLOAD PUSH32 0x8C379A000000000000000000000000000000000000000000000000000000000 DUP2 MSTORE PUSH1 0x4 ADD PUSH2 0x2457 SWAP1 PUSH2 0x3907 JUMP JUMPDEST PUSH1 0x40 MLOAD DUP1 SWAP2 SUB SWAP1 REVERT JUMPDEST PUSH1 0x0 DUP1 PUSH1 0x0 DUP5 DUP2 MSTORE PUSH1 0x20 ADD SWAP1 DUP2 MSTORE PUSH1 0x20 ADD PUSH1 0x0 KECCAK256 PUSH1 0x5 ADD PUSH1 0x0 DUP4 DUP2 MSTORE PUSH1 0x20 ADD SWAP1 DUP2 MSTORE PUSH1 0x20 ADD PUSH1 0x0 KECCAK256 SWAP1 POP PUSH1 0x40 MLOAD DUP1 PUSH1 0x40 ADD PUSH1 0x40 MSTORE DUP1 PUSH1 0x7 DUP2 MSTORE PUSH1 0x20 ADD PUSH32 0x50656E64696E6700000000000000000000000000000000000000000000000000 DUP2 MSTORE POP DUP1 MLOAD SWAP1 PUSH1 0x20 ADD KECCAK256 DUP2 PUSH1 0x4 ADD PUSH1 0x40 MLOAD PUSH2 0x24D8 SWAP2 SWAP1 PUSH2 0x3C4F JUMP JUMPDEST PUSH1 0x40 MLOAD DUP1 SWAP2 SUB SWAP1 KECCAK256 EQ PUSH2 0x2520 JUMPI PUSH1 0x40 MLOAD PUSH32 0x8C379A000000000000000000000000000000000000000000000000000000000 DUP2 MSTORE PUSH1 0x4 ADD PUSH2 0x2517 SWAP1 PUSH2 0x4034 JUMP JUMPDEST PUSH1 0x40 MLOAD DUP1 SWAP2 SUB SWAP1 REVERT JUMPDEST PUSH2 0x252A DUP4 DUP4 PUSH2 0x25F3 JUMP JUMPDEST PUSH2 0x2569 JUMPI PUSH1 0x40 MLOAD PUSH32 0x8C379A000000000000000000000000000000000000000000000000000000000 DUP2 MSTORE PUSH1 0x4 ADD PUSH2 0x2560 SWAP1 PUSH2 0x40C6 JUMP JUMPDEST PUSH1 0x40 MLOAD DUP1 SWAP2 SUB SWAP1 REVERT JUMPDEST PUSH1 0x40 MLOAD DUP1 PUSH1 0x40 ADD PUSH1 0x40 MSTORE DUP1 PUSH1 0x6 DUP2 MSTORE PUSH1 0x20 ADD PUSH32 0x436C6F7365640000000000000000000000000000000000000000000000000000 DUP2 MSTORE POP DUP2 PUSH1 0x4 ADD SWAP1 DUP1 MLOAD SWAP1 PUSH1 0x20 ADD SWAP1 PUSH2 0x25B6 SWAP3 SWAP2 SWAP1 PUSH2 0x2706 JUMP JUMPDEST POP POP POP POP JUMP JUMPDEST PUSH1 0x0 DUP1 PUSH1 0x0 DUP1 DUP5 DUP2 MSTORE PUSH1 0x20 ADD SWAP1 DUP2 MSTORE PUSH1 0x20 ADD PUSH1 0x0 KECCAK256 PUSH1 0x5 ADD PUSH1 0x0 DUP6 DUP2 MSTORE PUSH1 0x20 ADD SWAP1 DUP2 MSTORE PUSH1 0x20 ADD PUSH1 0x0 KECCAK256 PUSH1 0x0 ADD SLOAD EQ ISZERO SWAP1 POP SWAP3 SWAP2 POP POP JUMP JUMPDEST PUSH1 0x0 DUP1 PUSH1 0x0 DUP1 DUP6 DUP2 MSTORE PUSH1 0x20 ADD SWAP1 DUP2 MSTORE PUSH1 0x20 ADD PUSH1 0x0 KECCAK256 SWAP1 POP PUSH1 0x0 DUP2 PUSH1 0x5 ADD PUSH1 0x0 DUP6 DUP2 MSTORE PUSH1 0x20 ADD SWAP1 DUP2 MSTORE PUSH1 0x20 ADD PUSH1 0x0 KECCAK256 SWAP1 POP DUP1 PUSH1 0x1 ADD PUSH1 0x0 SWAP1 SLOAD SWAP1 PUSH2 0x100 EXP SWAP1 DIV PUSH20 0xFFFFFFFFFFFFFFFFFFFFFFFFFFFFFFFFFFFFFFFF AND PUSH20 0xFFFFFFFFFFFFFFFFFFFFFFFFFFFFFFFFFFFFFFFF AND CALLER PUSH20 0xFFFFFFFFFFFFFFFFFFFFFFFFFFFFFFFFFFFFFFFF AND EQ SWAP3 POP POP POP SWAP3 SWAP2 POP POP JUMP JUMPDEST PUSH1 0x40 MLOAD DUP1 PUSH2 0x160 ADD PUSH1 0x40 MSTORE DUP1 PUSH1 0x0 DUP2 MSTORE PUSH1 0x20 ADD PUSH1 0x0 PUSH20 0xFFFFFFFFFFFFFFFFFFFFFFFFFFFFFFFFFFFFFFFF AND DUP2 MSTORE PUSH1 0x20 ADD PUSH1 0x0 DUP2 MSTORE PUSH1 0x20 ADD PUSH1 0x0 PUSH20 0xFFFFFFFFFFFFFFFFFFFFFFFFFFFFFFFFFFFFFFFF AND DUP2 MSTORE PUSH1 0x20 ADD PUSH1 0x60 DUP2 MSTORE PUSH1 0x20 ADD PUSH1 0x60 DUP2 MSTORE PUSH1 0x20 ADD PUSH1 0x0 DUP2 MSTORE PUSH1 0x20 ADD PUSH1 0x0 DUP2 MSTORE PUSH1 0x20 ADD PUSH1 0x0 DUP2 MSTORE PUSH1 0x20 ADD PUSH1 0x0 DUP2 MSTORE PUSH1 0x20 ADD PUSH1 0x60 DUP2 MSTORE POP SWAP1 JUMP JUMPDEST DUP3 DUP1 SLOAD PUSH2 0x2712 SWAP1 PUSH2 0x334F JUMP JUMPDEST SWAP1 PUSH1 0x0 MSTORE PUSH1 0x20 PUSH1 0x0 KECCAK256 SWAP1 PUSH1 0x1F ADD PUSH1 0x20 SWAP1 DIV DUP2 ADD SWAP3 DUP3 PUSH2 0x2734 JUMPI PUSH1 0x0 DUP6 SSTORE PUSH2 0x277B JUMP JUMPDEST DUP3 PUSH1 0x1F LT PUSH2 0x274D JUMPI DUP1 MLOAD PUSH1 0xFF NOT AND DUP4 DUP1 ADD OR DUP6 SSTORE PUSH2 0x277B JUMP JUMPDEST DUP3 DUP1 ADD PUSH1 0x1 ADD DUP6 SSTORE DUP3 ISZERO PUSH2 0x277B JUMPI SWAP2 DUP3 ADD JUMPDEST DUP3 DUP2 GT ISZERO PUSH2 0x277A JUMPI DUP3 MLOAD DUP3 SSTORE SWAP2 PUSH1 0x20 ADD SWAP2 SWAP1 PUSH1 0x1 ADD SWAP1 PUSH2 0x275F JUMP JUMPDEST JUMPDEST POP SWAP1 POP PUSH2 0x2788 SWAP2 SWAP1 PUSH2 0x27C2 JUMP JUMPDEST POP SWAP1 JUMP JUMPDEST PUSH1 0x40 MLOAD DUP1 PUSH1 0xC0 ADD PUSH1 0x40 MSTORE DUP1 PUSH1 0x0 DUP2 MSTORE PUSH1 0x20 ADD PUSH1 0x60 DUP2 MSTORE PUSH1 0x20 ADD PUSH1 0x0 DUP2 MSTORE PUSH1 0x20 ADD PUSH1 0x0 DUP2 MSTORE PUSH1 0x20 ADD PUSH1 0x0 DUP2 MSTORE PUSH1 0x20 ADD PUSH1 0x60 DUP2 MSTORE POP SWAP1 JUMP JUMPDEST JUMPDEST DUP1 DUP3 GT ISZERO PUSH2 0x27DB JUMPI PUSH1 0x0 DUP2 PUSH1 0x0 SWAP1 SSTORE POP PUSH1 0x1 ADD PUSH2 0x27C3 JUMP JUMPDEST POP SWAP1 JUMP JUMPDEST PUSH1 0x0 PUSH1 0x40 MLOAD SWAP1 POP SWAP1 JUMP JUMPDEST PUSH1 0x0 DUP1 REVERT JUMPDEST PUSH1 0x0 DUP1 REVERT JUMPDEST PUSH1 0x0 DUP2 SWAP1 POP SWAP2 SWAP1 POP JUMP JUMPDEST PUSH2 0x2806 DUP2 PUSH2 0x27F3 JUMP JUMPDEST DUP2 EQ PUSH2 0x2811 JUMPI PUSH1 0x0 DUP1 REVERT JUMPDEST POP JUMP JUMPDEST PUSH1 0x0 DUP2 CALLDATALOAD SWAP1 POP PUSH2 0x2823 DUP2 PUSH2 0x27FD JUMP JUMPDEST SWAP3 SWAP2 POP POP JUMP JUMPDEST PUSH1 0x0 PUSH1 0x20 DUP3 DUP5 SUB SLT ISZERO PUSH2 0x283F JUMPI PUSH2 0x283E PUSH2 0x27E9 JUMP JUMPDEST JUMPDEST PUSH1 0x0 PUSH2 0x284D DUP5 DUP3 DUP6 ADD PUSH2 0x2814 JUMP JUMPDEST SWAP2 POP POP SWAP3 SWAP2 POP POP JUMP JUMPDEST PUSH1 0x0 DUP2 MLOAD SWAP1 POP SWAP2 SWAP1 POP JUMP JUMPDEST PUSH1 0x0 DUP3 DUP3 MSTORE PUSH1 0x20 DUP3 ADD SWAP1 POP SWAP3 SWAP2 POP POP JUMP JUMPDEST PUSH1 0x0 DUP2 SWAP1 POP PUSH1 0x20 DUP3 ADD SWAP1 POP SWAP2 SWAP1 POP JUMP JUMPDEST PUSH2 0x288B DUP2 PUSH2 0x27F3 JUMP JUMPDEST DUP3 MSTORE POP POP JUMP JUMPDEST PUSH1 0x0 PUSH20 0xFFFFFFFFFFFFFFFFFFFFFFFFFFFFFFFFFFFFFFFF DUP3 AND SWAP1 POP SWAP2 SWAP1 POP JUMP JUMPDEST PUSH1 0x0 PUSH2 0x28BC DUP3 PUSH2 0x2891 JUMP JUMPDEST SWAP1 POP SWAP2 SWAP1 POP JUMP JUMPDEST PUSH2 0x28CC DUP2 PUSH2 0x28B1 JUMP JUMPDEST DUP3 MSTORE POP POP JUMP JUMPDEST PUSH1 0x0 DUP2 MLOAD SWAP1 POP SWAP2 SWAP1 POP JUMP JUMPDEST PUSH1 0x0 DUP3 DUP3 MSTORE PUSH1 0x20 DUP3 ADD SWAP1 POP SWAP3 SWAP2 POP POP JUMP JUMPDEST PUSH1 0x0 JUMPDEST DUP4 DUP2 LT ISZERO PUSH2 0x290C JUMPI DUP1 DUP3 ADD MLOAD DUP2 DUP5 ADD MSTORE PUSH1 0x20 DUP2 ADD SWAP1 POP PUSH2 0x28F1 JUMP JUMPDEST DUP4 DUP2 GT ISZERO PUSH2 0x291B JUMPI PUSH1 0x0 DUP5 DUP5 ADD MSTORE JUMPDEST POP POP POP POP JUMP JUMPDEST PUSH1 0x0 PUSH1 0x1F NOT PUSH1 0x1F DUP4 ADD AND SWAP1 POP SWAP2 SWAP1 POP JUMP JUMPDEST PUSH1 0x0 PUSH2 0x293D DUP3 PUSH2 0x28D2 JUMP JUMPDEST PUSH2 0x2947 DUP2 DUP6 PUSH2 0x28DD JUMP JUMPDEST SWAP4 POP PUSH2 0x2957 DUP2 DUP6 PUSH1 0x20 DUP7 ADD PUSH2 0x28EE JUMP JUMPDEST PUSH2 0x2960 DUP2 PUSH2 0x2921 JUMP JUMPDEST DUP5 ADD SWAP2 POP POP SWAP3 SWAP2 POP POP JUMP JUMPDEST PUSH1 0x0 PUSH2 0x160 DUP4 ADD PUSH1 0x0 DUP4 ADD MLOAD PUSH2 0x2984 PUSH1 0x0 DUP7 ADD DUP3 PUSH2 0x2882 JUMP JUMPDEST POP PUSH1 0x20 DUP4 ADD MLOAD PUSH2 0x2997 PUSH1 0x20 DUP7 ADD DUP3 PUSH2 0x28C3 JUMP JUMPDEST POP PUSH1 0x40 DUP4 ADD MLOAD PUSH2 0x29AA PUSH1 0x40 DUP7 ADD DUP3 PUSH2 0x2882 JUMP JUMPDEST POP PUSH1 0x60 DUP4 ADD MLOAD PUSH2 0x29BD PUSH1 0x60 DUP7 ADD DUP3 PUSH2 0x28C3 JUMP JUMPDEST POP PUSH1 0x80 DUP4 ADD MLOAD DUP5 DUP3 SUB PUSH1 0x80 DUP7 ADD MSTORE PUSH2 0x29D5 DUP3 DUP3 PUSH2 0x2932 JUMP JUMPDEST SWAP2 POP POP PUSH1 0xA0 DUP4 ADD MLOAD DUP5 DUP3 SUB PUSH1 0xA0 DUP7 ADD MSTORE PUSH2 0x29EF DUP3 DUP3 PUSH2 0x2932 JUMP JUMPDEST SWAP2 POP POP PUSH1 0xC0 DUP4 ADD MLOAD PUSH2 0x2A04 PUSH1 0xC0 DUP7 ADD DUP3 PUSH2 0x2882 JUMP JUMPDEST POP PUSH1 0xE0 DUP4 ADD MLOAD PUSH2 0x2A17 PUSH1 0xE0 DUP7 ADD DUP3 PUSH2 0x2882 JUMP JUMPDEST POP PUSH2 0x100 DUP4 ADD MLOAD PUSH2 0x2A2C PUSH2 0x100 DUP7 ADD DUP3 PUSH2 0x2882 JUMP JUMPDEST POP PUSH2 0x120 DUP4 ADD MLOAD PUSH2 0x2A41 PUSH2 0x120 DUP7 ADD DUP3 PUSH2 0x2882 JUMP JUMPDEST POP PUSH2 0x140 DUP4 ADD MLOAD DUP5 DUP3 SUB PUSH2 0x140 DUP7 ADD MSTORE PUSH2 0x2A5B DUP3 DUP3 PUSH2 0x2932 JUMP JUMPDEST SWAP2 POP POP DUP1 SWAP2 POP POP SWAP3 SWAP2 POP POP JUMP JUMPDEST PUSH1 0x0 PUSH2 0x2A74 DUP4 DUP4 PUSH2 0x296B JUMP JUMPDEST SWAP1 POP SWAP3 SWAP2 POP POP JUMP JUMPDEST PUSH1 0x0 PUSH1 0x20 DUP3 ADD SWAP1 POP SWAP2 SWAP1 POP JUMP JUMPDEST PUSH1 0x0 PUSH2 0x2A94 DUP3 PUSH2 0x2856 JUMP JUMPDEST PUSH2 0x2A9E DUP2 DUP6 PUSH2 0x2861 JUMP JUMPDEST SWAP4 POP DUP4 PUSH1 0x20 DUP3 MUL DUP6 ADD PUSH2 0x2AB0 DUP6 PUSH2 0x2872 JUMP JUMPDEST DUP1 PUSH1 0x0 JUMPDEST DUP6 DUP2 LT ISZERO PUSH2 0x2AEC JUMPI DUP5 DUP5 SUB DUP10 MSTORE DUP2 MLOAD PUSH2 0x2ACD DUP6 DUP3 PUSH2 0x2A68 JUMP JUMPDEST SWAP5 POP PUSH2 0x2AD8 DUP4 PUSH2 0x2A7C JUMP JUMPDEST SWAP3 POP PUSH1 0x20 DUP11 ADD SWAP10 POP POP PUSH1 0x1 DUP2 ADD SWAP1 POP PUSH2 0x2AB4 JUMP JUMPDEST POP DUP3 SWAP8 POP DUP8 SWAP6 POP POP POP POP POP POP SWAP3 SWAP2 POP POP JUMP JUMPDEST PUSH1 0x0 PUSH1 0x20 DUP3 ADD SWAP1 POP DUP2 DUP2 SUB PUSH1 0x0 DUP4 ADD MSTORE PUSH2 0x2B18 DUP2 DUP5 PUSH2 0x2A89 JUMP JUMPDEST SWAP1 POP SWAP3 SWAP2 POP POP JUMP JUMPDEST PUSH2 0x2B29 DUP2 PUSH2 0x28B1 JUMP JUMPDEST DUP2 EQ PUSH2 0x2B34 JUMPI PUSH1 0x0 DUP1 REVERT JUMPDEST POP JUMP JUMPDEST PUSH1 0x0 DUP2 CALLDATALOAD SWAP1 POP PUSH2 0x2B46 DUP2 PUSH2 0x2B20 JUMP JUMPDEST SWAP3 SWAP2 POP POP JUMP JUMPDEST PUSH1 0x0 DUP1 PUSH1 0x0 PUSH1 0x60 DUP5 DUP7 SUB SLT ISZERO PUSH2 0x2B65 JUMPI PUSH2 0x2B64 PUSH2 0x27E9 JUMP JUMPDEST JUMPDEST PUSH1 0x0 PUSH2 0x2B73 DUP7 DUP3 DUP8 ADD PUSH2 0x2B37 JUMP JUMPDEST SWAP4 POP POP PUSH1 0x20 PUSH2 0x2B84 DUP7 DUP3 DUP8 ADD PUSH2 0x2814 JUMP JUMPDEST SWAP3 POP POP PUSH1 0x40 PUSH2 0x2B95 DUP7 DUP3 DUP8 ADD PUSH2 0x2814 JUMP JUMPDEST SWAP2 POP POP SWAP3 POP SWAP3 POP SWAP3 JUMP JUMPDEST PUSH1 0x0 DUP2 ISZERO ISZERO SWAP1 POP SWAP2 SWAP1 POP JUMP JUMPDEST PUSH2 0x2BB4 DUP2 PUSH2 0x2B9F JUMP JUMPDEST DUP3 MSTORE POP POP JUMP JUMPDEST PUSH1 0x0 PUSH1 0x20 DUP3 ADD SWAP1 POP PUSH2 0x2BCF PUSH1 0x0 DUP4 ADD DUP5 PUSH2 0x2BAB JUMP JUMPDEST SWAP3 SWAP2 POP POP JUMP JUMPDEST PUSH1 0x0 DUP1 PUSH1 0x40 DUP4 DUP6 SUB SLT ISZERO PUSH2 0x2BEC JUMPI PUSH2 0x2BEB PUSH2 0x27E9 JUMP JUMPDEST JUMPDEST PUSH1 0x0 PUSH2 0x2BFA DUP6 DUP3 DUP7 ADD PUSH2 0x2814 JUMP JUMPDEST SWAP3 POP POP PUSH1 0x20 PUSH2 0x2C0B DUP6 DUP3 DUP7 ADD PUSH2 0x2814 JUMP JUMPDEST SWAP2 POP POP SWAP3 POP SWAP3 SWAP1 POP JUMP JUMPDEST PUSH1 0x0 PUSH2 0x160 DUP4 ADD PUSH1 0x0 DUP4 ADD MLOAD PUSH2 0x2C2E PUSH1 0x0 DUP7 ADD DUP3 PUSH2 0x2882 JUMP JUMPDEST POP PUSH1 0x20 DUP4 ADD MLOAD PUSH2 0x2C41 PUSH1 0x20 DUP7 ADD DUP3 PUSH2 0x28C3 JUMP JUMPDEST POP PUSH1 0x40 DUP4 ADD MLOAD PUSH2 0x2C54 PUSH1 0x40 DUP7 ADD DUP3 PUSH2 0x2882 JUMP JUMPDEST POP PUSH1 0x60 DUP4 ADD MLOAD PUSH2 0x2C67 PUSH1 0x60 DUP7 ADD DUP3 PUSH2 0x28C3 JUMP JUMPDEST POP PUSH1 0x80 DUP4 ADD MLOAD DUP5 DUP3 SUB PUSH1 0x80 DUP7 ADD MSTORE PUSH2 0x2C7F DUP3 DUP3 PUSH2 0x2932 JUMP JUMPDEST SWAP2 POP POP PUSH1 0xA0 DUP4 ADD MLOAD DUP5 DUP3 SUB PUSH1 0xA0 DUP7 ADD MSTORE PUSH2 0x2C99 DUP3 DUP3 PUSH2 0x2932 JUMP JUMPDEST SWAP2 POP POP PUSH1 0xC0 DUP4 ADD MLOAD PUSH2 0x2CAE PUSH1 0xC0 DUP7 ADD DUP3 PUSH2 0x2882 JUMP JUMPDEST POP PUSH1 0xE0 DUP4 ADD MLOAD PUSH2 0x2CC1 PUSH1 0xE0 DUP7 ADD DUP3 PUSH2 0x2882 JUMP JUMPDEST POP PUSH2 0x100 DUP4 ADD MLOAD PUSH2 0x2CD6 PUSH2 0x100 DUP7 ADD DUP3 PUSH2 0x2882 JUMP JUMPDEST POP PUSH2 0x120 DUP4 ADD MLOAD PUSH2 0x2CEB PUSH2 0x120 DUP7 ADD DUP3 PUSH2 0x2882 JUMP JUMPDEST POP PUSH2 0x140 DUP4 ADD MLOAD DUP5 DUP3 SUB PUSH2 0x140 DUP7 ADD MSTORE PUSH2 0x2D05 DUP3 DUP3 PUSH2 0x2932 JUMP JUMPDEST SWAP2 POP POP DUP1 SWAP2 POP POP SWAP3 SWAP2 POP POP JUMP JUMPDEST PUSH1 0x0 PUSH1 0x20 DUP3 ADD SWAP1 POP DUP2 DUP2 SUB PUSH1 0x0 DUP4 ADD MSTORE PUSH2 0x2D2C DUP2 DUP5 PUSH2 0x2C15 JUMP JUMPDEST SWAP1 POP SWAP3 SWAP2 POP POP JUMP JUMPDEST PUSH1 0x0 DUP1 PUSH1 0x40 DUP4 DUP6 SUB SLT ISZERO PUSH2 0x2D4B JUMPI PUSH2 0x2D4A PUSH2 0x27E9 JUMP JUMPDEST JUMPDEST PUSH1 0x0 PUSH2 0x2D59 DUP6 DUP3 DUP7 ADD PUSH2 0x2B37 JUMP JUMPDEST SWAP3 POP POP PUSH1 0x20 PUSH2 0x2D6A DUP6 DUP3 DUP7 ADD PUSH2 0x2814 JUMP JUMPDEST SWAP2 POP POP SWAP3 POP SWAP3 SWAP1 POP JUMP JUMPDEST PUSH1 0x0 DUP1 REVERT JUMPDEST PUSH1 0x0 DUP1 REVERT JUMPDEST PUSH32 0x4E487B7100000000000000000000000000000000000000000000000000000000 PUSH1 0x0 MSTORE PUSH1 0x41 PUSH1 0x4 MSTORE PUSH1 0x24 PUSH1 0x0 REVERT JUMPDEST PUSH2 0x2DB6 DUP3 PUSH2 0x2921 JUMP JUMPDEST DUP2 ADD DUP2 DUP2 LT PUSH8 0xFFFFFFFFFFFFFFFF DUP3 GT OR ISZERO PUSH2 0x2DD5 JUMPI PUSH2 0x2DD4 PUSH2 0x2D7E JUMP JUMPDEST JUMPDEST DUP1 PUSH1 0x40 MSTORE POP POP POP JUMP JUMPDEST PUSH1 0x0 PUSH2 0x2DE8 PUSH2 0x27DF JUMP JUMPDEST SWAP1 POP PUSH2 0x2DF4 DUP3 DUP3 PUSH2 0x2DAD JUMP JUMPDEST SWAP2 SWAP1 POP JUMP JUMPDEST PUSH1 0x0 PUSH8 0xFFFFFFFFFFFFFFFF DUP3 GT ISZERO PUSH2 0x2E14 JUMPI PUSH2 0x2E13 PUSH2 0x2D7E JUMP JUMPDEST JUMPDEST PUSH2 0x2E1D DUP3 PUSH2 0x2921 JUMP JUMPDEST SWAP1 POP PUSH1 0x20 DUP2 ADD SWAP1 POP SWAP2 SWAP1 POP JUMP JUMPDEST DUP3 DUP2 DUP4 CALLDATACOPY PUSH1 0x0 DUP4 DUP4 ADD MSTORE POP POP POP JUMP JUMPDEST PUSH1 0x0 PUSH2 0x2E4C PUSH2 0x2E47 DUP5 PUSH2 0x2DF9 JUMP JUMPDEST PUSH2 0x2DDE JUMP JUMPDEST SWAP1 POP DUP3 DUP2 MSTORE PUSH1 0x20 DUP2 ADD DUP5 DUP5 DUP5 ADD GT ISZERO PUSH2 0x2E68 JUMPI PUSH2 0x2E67 PUSH2 0x2D79 JUMP JUMPDEST JUMPDEST PUSH2 0x2E73 DUP5 DUP3 DUP6 PUSH2 0x2E2A JUMP JUMPDEST POP SWAP4 SWAP3 POP POP POP JUMP JUMPDEST PUSH1 0x0 DUP3 PUSH1 0x1F DUP4 ADD SLT PUSH2 0x2E90 JUMPI PUSH2 0x2E8F PUSH2 0x2D74 JUMP JUMPDEST JUMPDEST DUP2 CALLDATALOAD PUSH2 0x2EA0 DUP5 DUP3 PUSH1 0x20 DUP7 ADD PUSH2 0x2E39 JUMP JUMPDEST SWAP2 POP POP SWAP3 SWAP2 POP POP JUMP JUMPDEST PUSH1 0x0 DUP1 PUSH1 0x40 DUP4 DUP6 SUB SLT ISZERO PUSH2 0x2EC0 JUMPI PUSH2 0x2EBF PUSH2 0x27E9 JUMP JUMPDEST JUMPDEST PUSH1 0x0 DUP4 ADD CALLDATALOAD PUSH8 0xFFFFFFFFFFFFFFFF DUP2 GT ISZERO PUSH2 0x2EDE JUMPI PUSH2 0x2EDD PUSH2 0x27EE JUMP JUMPDEST JUMPDEST PUSH2 0x2EEA DUP6 DUP3 DUP7 ADD PUSH2 0x2E7B JUMP JUMPDEST SWAP3 POP POP PUSH1 0x20 DUP4 ADD CALLDATALOAD PUSH8 0xFFFFFFFFFFFFFFFF DUP2 GT ISZERO PUSH2 0x2F0B JUMPI PUSH2 0x2F0A PUSH2 0x27EE JUMP JUMPDEST JUMPDEST PUSH2 0x2F17 DUP6 DUP3 DUP7 ADD PUSH2 0x2E7B JUMP JUMPDEST SWAP2 POP POP SWAP3 POP SWAP3 SWAP1 POP JUMP JUMPDEST PUSH2 0x2F2A DUP2 PUSH2 0x27F3 JUMP JUMPDEST DUP3 MSTORE POP POP JUMP JUMPDEST PUSH1 0x0 PUSH1 0x20 DUP3 ADD SWAP1 POP PUSH2 0x2F45 PUSH1 0x0 DUP4 ADD DUP5 PUSH2 0x2F21 JUMP JUMPDEST SWAP3 SWAP2 POP POP JUMP JUMPDEST PUSH1 0x0 DUP2 MLOAD SWAP1 POP SWAP2 SWAP1 POP JUMP JUMPDEST PUSH1 0x0 DUP3 DUP3 MSTORE PUSH1 0x20 DUP3 ADD SWAP1 POP SWAP3 SWAP2 POP POP JUMP JUMPDEST PUSH1 0x0 DUP2 SWAP1 POP PUSH1 0x20 DUP3 ADD SWAP1 POP SWAP2 SWAP1 POP JUMP JUMPDEST PUSH1 0x0 PUSH1 0xC0 DUP4 ADD PUSH1 0x0 DUP4 ADD MLOAD PUSH2 0x2F8F PUSH1 0x0 DUP7 ADD DUP3 PUSH2 0x2882 JUMP JUMPDEST POP PUSH1 0x20 DUP4 ADD MLOAD DUP5 DUP3 SUB PUSH1 0x20 DUP7 ADD MSTORE PUSH2 0x2FA7 DUP3 DUP3 PUSH2 0x2932 JUMP JUMPDEST SWAP2 POP POP PUSH1 0x40 DUP4 ADD MLOAD PUSH2 0x2FBC PUSH1 0x40 DUP7 ADD DUP3 PUSH2 0x2882 JUMP JUMPDEST POP PUSH1 0x60 DUP4 ADD MLOAD PUSH2 0x2FCF PUSH1 0x60 DUP7 ADD DUP3 PUSH2 0x2882 JUMP JUMPDEST POP PUSH1 0x80 DUP4 ADD MLOAD PUSH2 0x2FE2 PUSH1 0x80 DUP7 ADD DUP3 PUSH2 0x2882 JUMP JUMPDEST POP PUSH1 0xA0 DUP4 ADD MLOAD DUP5 DUP3 SUB PUSH1 0xA0 DUP7 ADD MSTORE PUSH2 0x2FFA DUP3 DUP3 PUSH2 0x2932 JUMP JUMPDEST SWAP2 POP POP DUP1 SWAP2 POP POP SWAP3 SWAP2 POP POP JUMP JUMPDEST PUSH1 0x0 PUSH2 0x3013 DUP4 DUP4 PUSH2 0x2F77 JUMP JUMPDEST SWAP1 POP SWAP3 SWAP2 POP POP JUMP JUMPDEST PUSH1 0x0 PUSH1 0x20 DUP3 ADD SWAP1 POP SWAP2 SWAP1 POP JUMP JUMPDEST PUSH1 0x0 PUSH2 0x3033 DUP3 PUSH2 0x2F4B JUMP JUMPDEST PUSH2 0x303D DUP2 DUP6 PUSH2 0x2F56 JUMP JUMPDEST SWAP4 POP DUP4 PUSH1 0x20 DUP3 MUL DUP6 ADD PUSH2 0x304F DUP6 PUSH2 0x2F67 JUMP JUMPDEST DUP1 PUSH1 0x0 JUMPDEST DUP6 DUP2 LT ISZERO PUSH2 0x308B JUMPI DUP5 DUP5 SUB DUP10 MSTORE DUP2 MLOAD PUSH2 0x306C DUP6 DUP3 PUSH2 0x3007 JUMP JUMPDEST SWAP5 POP PUSH2 0x3077 DUP4 PUSH2 0x301B JUMP JUMPDEST SWAP3 POP PUSH1 0x20 DUP11 ADD SWAP10 POP POP PUSH1 0x1 DUP2 ADD SWAP1 POP PUSH2 0x3053 JUMP JUMPDEST POP DUP3 SWAP8 POP DUP8 SWAP6 POP POP POP POP POP POP SWAP3 SWAP2 POP POP JUMP JUMPDEST PUSH1 0x0 PUSH1 0x20 DUP3 ADD SWAP1 POP DUP2 DUP2 SUB PUSH1 0x0 DUP4 ADD MSTORE PUSH2 0x30B7 DUP2 DUP5 PUSH2 0x3028 JUMP JUMPDEST SWAP1 POP SWAP3 SWAP2 POP POP JUMP JUMPDEST PUSH2 0x30C8 DUP2 PUSH2 0x2B9F JUMP JUMPDEST DUP2 EQ PUSH2 0x30D3 JUMPI PUSH1 0x0 DUP1 REVERT JUMPDEST POP JUMP JUMPDEST PUSH1 0x0 DUP2 CALLDATALOAD SWAP1 POP PUSH2 0x30E5 DUP2 PUSH2 0x30BF JUMP JUMPDEST SWAP3 SWAP2 POP POP JUMP JUMPDEST PUSH1 0x0 DUP1 PUSH1 0x0 PUSH1 0x60 DUP5 DUP7 SUB SLT ISZERO PUSH2 0x3104 JUMPI PUSH2 0x3103 PUSH2 0x27E9 JUMP JUMPDEST JUMPDEST PUSH1 0x0 PUSH2 0x3112 DUP7 DUP3 DUP8 ADD PUSH2 0x2814 JUMP JUMPDEST SWAP4 POP POP PUSH1 0x20 PUSH2 0x3123 DUP7 DUP3 DUP8 ADD PUSH2 0x2814 JUMP JUMPDEST SWAP3 POP POP PUSH1 0x40 PUSH2 0x3134 DUP7 DUP3 DUP8 ADD PUSH2 0x30D6 JUMP JUMPDEST SWAP2 POP POP SWAP3 POP SWAP3 POP SWAP3 JUMP JUMPDEST PUSH1 0x0 DUP1 PUSH1 0x0 DUP1 PUSH1 0x0 PUSH1 0xA0 DUP7 DUP9 SUB SLT ISZERO PUSH2 0x315A JUMPI PUSH2 0x3159 PUSH2 0x27E9 JUMP JUMPDEST JUMPDEST PUSH1 0x0 PUSH2 0x3168 DUP9 DUP3 DUP10 ADD PUSH2 0x2814 JUMP JUMPDEST SWAP6 POP POP PUSH1 0x20 PUSH2 0x3179 DUP9 DUP3 DUP10 ADD PUSH2 0x2814 JUMP JUMPDEST SWAP5 POP POP PUSH1 0x40 PUSH2 0x318A DUP9 DUP3 DUP10 ADD PUSH2 0x2B37 JUMP JUMPDEST SWAP4 POP POP PUSH1 0x60 DUP7 ADD CALLDATALOAD PUSH8 0xFFFFFFFFFFFFFFFF DUP2 GT ISZERO PUSH2 0x31AB JUMPI PUSH2 0x31AA PUSH2 0x27EE JUMP JUMPDEST JUMPDEST PUSH2 0x31B7 DUP9 DUP3 DUP10 ADD PUSH2 0x2E7B JUMP JUMPDEST SWAP3 POP POP PUSH1 0x80 DUP7 ADD CALLDATALOAD PUSH8 0xFFFFFFFFFFFFFFFF DUP2 GT ISZERO PUSH2 0x31D8 JUMPI PUSH2 0x31D7 PUSH2 0x27EE JUMP JUMPDEST JUMPDEST PUSH2 0x31E4 DUP9 DUP3 DUP10 ADD PUSH2 0x2E7B JUMP JUMPDEST SWAP2 POP POP SWAP3 SWAP6 POP SWAP3 SWAP6 SWAP1 SWAP4 POP JUMP JUMPDEST PUSH1 0x0 PUSH1 0xC0 DUP4 ADD PUSH1 0x0 DUP4 ADD MLOAD PUSH2 0x3209 PUSH1 0x0 DUP7 ADD DUP3 PUSH2 0x2882 JUMP JUMPDEST POP PUSH1 0x20 DUP4 ADD MLOAD DUP5 DUP3 SUB PUSH1 0x20 DUP7 ADD MSTORE PUSH2 0x3221 DUP3 DUP3 PUSH2 0x2932 JUMP JUMPDEST SWAP2 POP POP PUSH1 0x40 DUP4 ADD MLOAD PUSH2 0x3236 PUSH1 0x40 DUP7 ADD DUP3 PUSH2 0x2882 JUMP JUMPDEST POP PUSH1 0x60 DUP4 ADD MLOAD PUSH2 0x3249 PUSH1 0x60 DUP7 ADD DUP3 PUSH2 0x2882 JUMP JUMPDEST POP PUSH1 0x80 DUP4 ADD MLOAD PUSH2 0x325C PUSH1 0x80 DUP7 ADD DUP3 PUSH2 0x2882 JUMP JUMPDEST POP PUSH1 0xA0 DUP4 ADD MLOAD DUP5 DUP3 SUB PUSH1 0xA0 DUP7 ADD MSTORE PUSH2 0x3274 DUP3 DUP3 PUSH2 0x2932 JUMP JUMPDEST SWAP2 POP POP DUP1 SWAP2 POP POP SWAP3 SWAP2 POP POP JUMP JUMPDEST PUSH1 0x0 PUSH1 0x20 DUP3 ADD SWAP1 POP DUP2 DUP2 SUB PUSH1 0x0 DUP4 ADD MSTORE PUSH2 0x329B DUP2 DUP5 PUSH2 0x31F1 JUMP JUMPDEST SWAP1 POP SWAP3 SWAP2 POP POP JUMP JUMPDEST PUSH1 0x0 DUP3 DUP3 MSTORE PUSH1 0x20 DUP3 ADD SWAP1 POP SWAP3 SWAP2 POP POP JUMP JUMPDEST PUSH32 0x436C756220646F6573206E6F7420657869737400000000000000000000000000 PUSH1 0x0 DUP3 ADD MSTORE POP JUMP JUMPDEST PUSH1 0x0 PUSH2 0x32EA PUSH1 0x13 DUP4 PUSH2 0x32A3 JUMP JUMPDEST SWAP2 POP PUSH2 0x32F5 DUP3 PUSH2 0x32B4 JUMP JUMPDEST PUSH1 0x20 DUP3 ADD SWAP1 POP SWAP2 SWAP1 POP JUMP JUMPDEST PUSH1 0x0 PUSH1 0x20 DUP3 ADD SWAP1 POP DUP2 DUP2 SUB PUSH1 0x0 DUP4 ADD MSTORE PUSH2 0x3319 DUP2 PUSH2 0x32DD JUMP JUMPDEST SWAP1 POP SWAP2 SWAP1 POP JUMP JUMPDEST PUSH32 0x4E487B7100000000000000000000000000000000000000000000000000000000 PUSH1 0x0 MSTORE PUSH1 0x22 PUSH1 0x4 MSTORE PUSH1 0x24 PUSH1 0x0 REVERT JUMPDEST PUSH1 0x0 PUSH1 0x2 DUP3 DIV SWAP1 POP PUSH1 0x1 DUP3 AND DUP1 PUSH2 0x3367 JUMPI PUSH1 0x7F DUP3 AND SWAP2 POP JUMPDEST PUSH1 0x20 DUP3 LT DUP2 EQ ISZERO PUSH2 0x337B JUMPI PUSH2 0x337A PUSH2 0x3320 JUMP JUMPDEST JUMPDEST POP SWAP2 SWAP1 POP JUMP JUMPDEST PUSH32 0x4E487B7100000000000000000000000000000000000000000000000000000000 PUSH1 0x0 MSTORE PUSH1 0x32 PUSH1 0x4 MSTORE PUSH1 0x24 PUSH1 0x0 REVERT JUMPDEST PUSH32 0x4E487B7100000000000000000000000000000000000000000000000000000000 PUSH1 0x0 MSTORE PUSH1 0x11 PUSH1 0x4 MSTORE PUSH1 0x24 PUSH1 0x0 REVERT JUMPDEST PUSH1 0x0 PUSH2 0x33EA DUP3 PUSH2 0x27F3 JUMP JUMPDEST SWAP2 POP PUSH32 0xFFFFFFFFFFFFFFFFFFFFFFFFFFFFFFFFFFFFFFFFFFFFFFFFFFFFFFFFFFFFFFFF DUP3 EQ ISZERO PUSH2 0x341D JUMPI PUSH2 0x341C PUSH2 0x33B0 JUMP JUMPDEST JUMPDEST PUSH1 0x1 DUP3 ADD SWAP1 POP SWAP2 SWAP1 POP JUMP JUMPDEST PUSH32 0x74686520636C756220646F6573206E6F74206578697374000000000000000000 PUSH1 0x0 DUP3 ADD MSTORE POP JUMP JUMPDEST PUSH1 0x0 PUSH2 0x345E PUSH1 0x17 DUP4 PUSH2 0x32A3 JUMP JUMPDEST SWAP2 POP PUSH2 0x3469 DUP3 PUSH2 0x3428 JUMP JUMPDEST PUSH1 0x20 DUP3 ADD SWAP1 POP SWAP2 SWAP1 POP JUMP JUMPDEST PUSH1 0x0 PUSH1 0x20 DUP3 ADD SWAP1 POP DUP2 DUP2 SUB PUSH1 0x0 DUP4 ADD MSTORE PUSH2 0x348D DUP2 PUSH2 0x3451 JUMP JUMPDEST SWAP1 POP SWAP2 SWAP1 POP JUMP JUMPDEST PUSH32 0x5468652070726F706F73616C20646F6573206E6F742065786973740000000000 PUSH1 0x0 DUP3 ADD MSTORE POP JUMP JUMPDEST PUSH1 0x0 PUSH2 0x34CA PUSH1 0x1B DUP4 PUSH2 0x32A3 JUMP JUMPDEST SWAP2 POP PUSH2 0x34D5 DUP3 PUSH2 0x3494 JUMP JUMPDEST PUSH1 0x20 DUP3 ADD SWAP1 POP SWAP2 SWAP1 POP JUMP JUMPDEST PUSH1 0x0 PUSH1 0x20 DUP3 ADD SWAP1 POP DUP2 DUP2 SUB PUSH1 0x0 DUP4 ADD MSTORE PUSH2 0x34F9 DUP2 PUSH2 0x34BD JUMP JUMPDEST SWAP1 POP SWAP2 SWAP1 POP JUMP JUMPDEST PUSH2 0x3509 DUP2 PUSH2 0x28B1 JUMP JUMPDEST DUP3 MSTORE POP POP JUMP JUMPDEST PUSH1 0x0 DUP2 SWAP1 POP DUP2 PUSH1 0x0 MSTORE PUSH1 0x20 PUSH1 0x0 KECCAK256 SWAP1 POP SWAP2 SWAP1 POP JUMP JUMPDEST PUSH1 0x0 DUP2 SLOAD PUSH2 0x3531 DUP2 PUSH2 0x334F JUMP JUMPDEST PUSH2 0x353B DUP2 DUP7 PUSH2 0x32A3 JUMP JUMPDEST SWAP5 POP PUSH1 0x1 DUP3 AND PUSH1 0x0 DUP2 EQ PUSH2 0x3556 JUMPI PUSH1 0x1 DUP2 EQ PUSH2 0x3568 JUMPI PUSH2 0x359B JUMP JUMPDEST PUSH1 0xFF NOT DUP4 AND DUP7 MSTORE PUSH1 0x20 DUP7 ADD SWAP4 POP PUSH2 0x359B JUMP JUMPDEST PUSH2 0x3571 DUP6 PUSH2 0x350F JUMP JUMPDEST PUSH1 0x0 JUMPDEST DUP4 DUP2 LT ISZERO PUSH2 0x3593 JUMPI DUP2 SLOAD DUP2 DUP10 ADD MSTORE PUSH1 0x1 DUP3 ADD SWAP2 POP PUSH1 0x20 DUP2 ADD SWAP1 POP PUSH2 0x3574 JUMP JUMPDEST DUP1 DUP9 ADD SWAP6 POP POP POP JUMPDEST POP POP POP SWAP3 SWAP2 POP POP JUMP JUMPDEST PUSH1 0x0 PUSH2 0x180 DUP3 ADD SWAP1 POP PUSH2 0x35BA PUSH1 0x0 DUP4 ADD DUP16 PUSH2 0x2F21 JUMP JUMPDEST PUSH2 0x35C7 PUSH1 0x20 DUP4 ADD DUP15 PUSH2 0x2F21 JUMP JUMPDEST PUSH2 0x35D4 PUSH1 0x40 DUP4 ADD DUP14 PUSH2 0x3500 JUMP JUMPDEST PUSH2 0x35E1 PUSH1 0x60 DUP4 ADD DUP13 PUSH2 0x2F21 JUMP JUMPDEST PUSH2 0x35EE PUSH1 0x80 DUP4 ADD DUP12 PUSH2 0x3500 JUMP JUMPDEST DUP2 DUP2 SUB PUSH1 0xA0 DUP4 ADD MSTORE PUSH2 0x3600 DUP2 DUP11 PUSH2 0x3524 JUMP JUMPDEST SWAP1 POP DUP2 DUP2 SUB PUSH1 0xC0 DUP4 ADD MSTORE PUSH2 0x3614 DUP2 DUP10 PUSH2 0x3524 JUMP JUMPDEST SWAP1 POP PUSH2 0x3623 PUSH1 0xE0 DUP4 ADD DUP9 PUSH2 0x2F21 JUMP JUMPDEST PUSH2 0x3631 PUSH2 0x100 DUP4 ADD DUP8 PUSH2 0x2F21 JUMP JUMPDEST PUSH2 0x363F PUSH2 0x120 DUP4 ADD DUP7 PUSH2 0x2F21 JUMP JUMPDEST PUSH2 0x364D PUSH2 0x140 DUP4 ADD DUP6 PUSH2 0x2F21 JUMP JUMPDEST DUP2 DUP2 SUB PUSH2 0x160 DUP4 ADD MSTORE PUSH2 0x3660 DUP2 DUP5 PUSH2 0x3524 JUMP JUMPDEST SWAP1 POP SWAP14 SWAP13 POP POP POP POP POP POP POP POP POP POP POP POP POP JUMP JUMPDEST PUSH32 0x596F7520617265206E6F742061206D656D626572206F662074686520636C7562 PUSH1 0x0 DUP3 ADD MSTORE POP JUMP JUMPDEST PUSH1 0x0 PUSH2 0x36A9 PUSH1 0x20 DUP4 PUSH2 0x32A3 JUMP JUMPDEST SWAP2 POP PUSH2 0x36B4 DUP3 PUSH2 0x3673 JUMP JUMPDEST PUSH1 0x20 DUP3 ADD SWAP1 POP SWAP2 SWAP1 POP JUMP JUMPDEST PUSH1 0x0 PUSH1 0x20 DUP3 ADD SWAP1 POP DUP2 DUP2 SUB PUSH1 0x0 DUP4 ADD MSTORE PUSH2 0x36D8 DUP2 PUSH2 0x369C JUMP JUMPDEST SWAP1 POP SWAP2 SWAP1 POP JUMP JUMPDEST PUSH32 0x4F6E6C79207468652063726561746F72206F66207468652070726F706F73616C PUSH1 0x0 DUP3 ADD MSTORE PUSH32 0x2063616E20657865637574652069740000000000000000000000000000000000 PUSH1 0x20 DUP3 ADD MSTORE POP JUMP JUMPDEST PUSH1 0x0 PUSH2 0x373B PUSH1 0x2F DUP4 PUSH2 0x32A3 JUMP JUMPDEST SWAP2 POP PUSH2 0x3746 DUP3 PUSH2 0x36DF JUMP JUMPDEST PUSH1 0x40 DUP3 ADD SWAP1 POP SWAP2 SWAP1 POP JUMP JUMPDEST PUSH1 0x0 PUSH1 0x20 DUP3 ADD SWAP1 POP DUP2 DUP2 SUB PUSH1 0x0 DUP4 ADD MSTORE PUSH2 0x376A DUP2 PUSH2 0x372E JUMP JUMPDEST SWAP1 POP SWAP2 SWAP1 POP JUMP JUMPDEST PUSH32 0x54686520616D6F756E7420657863656564732074686520706F6F6C206F662074 PUSH1 0x0 DUP3 ADD MSTORE PUSH32 0x686520636C756200000000000000000000000000000000000000000000000000 PUSH1 0x20 DUP3 ADD MSTORE POP JUMP JUMPDEST PUSH1 0x0 PUSH2 0x37CD PUSH1 0x27 DUP4 PUSH2 0x32A3 JUMP JUMPDEST SWAP2 POP PUSH2 0x37D8 DUP3 PUSH2 0x3771 JUMP JUMPDEST PUSH1 0x40 DUP3 ADD SWAP1 POP SWAP2 SWAP1 POP JUMP JUMPDEST PUSH1 0x0 PUSH1 0x20 DUP3 ADD SWAP1 POP DUP2 DUP2 SUB PUSH1 0x0 DUP4 ADD MSTORE PUSH2 0x37FC DUP2 PUSH2 0x37C0 JUMP JUMPDEST SWAP1 POP SWAP2 SWAP1 POP JUMP JUMPDEST PUSH32 0x5468652070726F706F73616C20686173206E6F74206265656E20617070726F76 PUSH1 0x0 DUP3 ADD MSTORE PUSH32 0x6564000000000000000000000000000000000000000000000000000000000000 PUSH1 0x20 DUP3 ADD MSTORE POP JUMP JUMPDEST PUSH1 0x0 PUSH2 0x385F PUSH1 0x22 DUP4 PUSH2 0x32A3 JUMP JUMPDEST SWAP2 POP PUSH2 0x386A DUP3 PUSH2 0x3803 JUMP JUMPDEST PUSH1 0x40 DUP3 ADD SWAP1 POP SWAP2 SWAP1 POP JUMP JUMPDEST PUSH1 0x0 PUSH1 0x20 DUP3 ADD SWAP1 POP DUP2 DUP2 SUB PUSH1 0x0 DUP4 ADD MSTORE PUSH2 0x388E DUP2 PUSH2 0x3852 JUMP JUMPDEST SWAP1 POP SWAP2 SWAP1 POP JUMP JUMPDEST PUSH32 0x596F752063616E2774206265666F72652074686520566F74696E672064656164 PUSH1 0x0 DUP3 ADD MSTORE PUSH32 0x6C696E6500000000000000000000000000000000000000000000000000000000 PUSH1 0x20 DUP3 ADD MSTORE POP JUMP JUMPDEST PUSH1 0x0 PUSH2 0x38F1 PUSH1 0x24 DUP4 PUSH2 0x32A3 JUMP JUMPDEST SWAP2 POP PUSH2 0x38FC DUP3 PUSH2 0x3895 JUMP JUMPDEST PUSH1 0x40 DUP3 ADD SWAP1 POP SWAP2 SWAP1 POP JUMP JUMPDEST PUSH1 0x0 PUSH1 0x20 DUP3 ADD SWAP1 POP DUP2 DUP2 SUB PUSH1 0x0 DUP4 ADD MSTORE PUSH2 0x3920 DUP2 PUSH2 0x38E4 JUMP JUMPDEST SWAP1 POP SWAP2 SWAP1 POP JUMP JUMPDEST PUSH1 0x0 PUSH2 0x3932 DUP3 PUSH2 0x27F3 JUMP JUMPDEST SWAP2 POP PUSH2 0x393D DUP4 PUSH2 0x27F3 JUMP JUMPDEST SWAP3 POP DUP3 DUP3 LT ISZERO PUSH2 0x3950 JUMPI PUSH2 0x394F PUSH2 0x33B0 JUMP JUMPDEST JUMPDEST DUP3 DUP3 SUB SWAP1 POP SWAP3 SWAP2 POP POP JUMP JUMPDEST PUSH32 0x596F75206D7573742073656E642045564D4F5320746F20636F6E747269627574 PUSH1 0x0 DUP3 ADD MSTORE PUSH32 0x6500000000000000000000000000000000000000000000000000000000000000 PUSH1 0x20 DUP3 ADD MSTORE POP JUMP JUMPDEST PUSH1 0x0 PUSH2 0x39B7 PUSH1 0x21 DUP4 PUSH2 0x32A3 JUMP JUMPDEST SWAP2 POP PUSH2 0x39C2 DUP3 PUSH2 0x395B JUMP JUMPDEST PUSH1 0x40 DUP3 ADD SWAP1 POP SWAP2 SWAP1 POP JUMP JUMPDEST PUSH1 0x0 PUSH1 0x20 DUP3 ADD SWAP1 POP DUP2 DUP2 SUB PUSH1 0x0 DUP4 ADD MSTORE PUSH2 0x39E6 DUP2 PUSH2 0x39AA JUMP JUMPDEST SWAP1 POP SWAP2 SWAP1 POP JUMP JUMPDEST PUSH1 0x0 PUSH2 0x39F8 DUP3 PUSH2 0x27F3 JUMP JUMPDEST SWAP2 POP PUSH2 0x3A03 DUP4 PUSH2 0x27F3 JUMP JUMPDEST SWAP3 POP DUP3 PUSH32 0xFFFFFFFFFFFFFFFFFFFFFFFFFFFFFFFFFFFFFFFFFFFFFFFFFFFFFFFFFFFFFFFF SUB DUP3 GT ISZERO PUSH2 0x3A38 JUMPI PUSH2 0x3A37 PUSH2 0x33B0 JUMP JUMPDEST JUMPDEST DUP3 DUP3 ADD SWAP1 POP SWAP3 SWAP2 POP POP JUMP JUMPDEST PUSH1 0x0 PUSH1 0xC0 DUP3 ADD SWAP1 POP PUSH2 0x3A58 PUSH1 0x0 DUP4 ADD DUP10 PUSH2 0x2F21 JUMP JUMPDEST DUP2 DUP2 SUB PUSH1 0x20 DUP4 ADD MSTORE PUSH2 0x3A6A DUP2 DUP9 PUSH2 0x3524 JUMP JUMPDEST SWAP1 POP PUSH2 0x3A79 PUSH1 0x40 DUP4 ADD DUP8 PUSH2 0x2F21 JUMP JUMPDEST PUSH2 0x3A86 PUSH1 0x60 DUP4 ADD DUP7 PUSH2 0x2F21 JUMP JUMPDEST PUSH2 0x3A93 PUSH1 0x80 DUP4 ADD DUP6 PUSH2 0x2F21 JUMP JUMPDEST DUP2 DUP2 SUB PUSH1 0xA0 DUP4 ADD MSTORE PUSH2 0x3AA5 DUP2 DUP5 PUSH2 0x3524 JUMP JUMPDEST SWAP1 POP SWAP8 SWAP7 POP POP POP POP POP POP POP JUMP JUMPDEST PUSH32 0x566F74696E6720506572696F642046696E697368656400000000000000000000 PUSH1 0x0 DUP3 ADD MSTORE POP JUMP JUMPDEST PUSH1 0x0 PUSH2 0x3AE8 PUSH1 0x16 DUP4 PUSH2 0x32A3 JUMP JUMPDEST SWAP2 POP PUSH2 0x3AF3 DUP3 PUSH2 0x3AB2 JUMP JUMPDEST PUSH1 0x20 DUP3 ADD SWAP1 POP SWAP2 SWAP1 POP JUMP JUMPDEST PUSH1 0x0 PUSH1 0x20 DUP3 ADD SWAP1 POP DUP2 DUP2 SUB PUSH1 0x0 DUP4 ADD MSTORE PUSH2 0x3B17 DUP2 PUSH2 0x3ADB JUMP JUMPDEST SWAP1 POP SWAP2 SWAP1 POP JUMP JUMPDEST PUSH32 0x596F75206861766520616C726561647920766F746564206F6E20746869732070 PUSH1 0x0 DUP3 ADD MSTORE PUSH32 0x726F706F73616C00000000000000000000000000000000000000000000000000 PUSH1 0x20 DUP3 ADD MSTORE POP JUMP JUMPDEST PUSH1 0x0 PUSH2 0x3B7A PUSH1 0x27 DUP4 PUSH2 0x32A3 JUMP JUMPDEST SWAP2 POP PUSH2 0x3B85 DUP3 PUSH2 0x3B1E JUMP JUMPDEST PUSH1 0x40 DUP3 ADD SWAP1 POP SWAP2 SWAP1 POP JUMP JUMPDEST PUSH1 0x0 PUSH1 0x20 DUP3 ADD SWAP1 POP DUP2 DUP2 SUB PUSH1 0x0 DUP4 ADD MSTORE PUSH2 0x3BA9 DUP2 PUSH2 0x3B6D JUMP JUMPDEST SWAP1 POP SWAP2 SWAP1 POP JUMP JUMPDEST PUSH1 0x0 DUP2 SWAP1 POP SWAP3 SWAP2 POP POP JUMP JUMPDEST PUSH1 0x0 DUP2 SWAP1 POP DUP2 PUSH1 0x0 MSTORE PUSH1 0x20 PUSH1 0x0 KECCAK256 SWAP1 POP SWAP2 SWAP1 POP JUMP JUMPDEST PUSH1 0x0 DUP2 SLOAD PUSH2 0x3BDD DUP2 PUSH2 0x334F JUMP JUMPDEST PUSH2 0x3BE7 DUP2 DUP7 PUSH2 0x3BB0 JUMP JUMPDEST SWAP5 POP PUSH1 0x1 DUP3 AND PUSH1 0x0 DUP2 EQ PUSH2 0x3C02 JUMPI PUSH1 0x1 DUP2 EQ PUSH2 0x3C13 JUMPI PUSH2 0x3C46 JUMP JUMPDEST PUSH1 0xFF NOT DUP4 AND DUP7 MSTORE DUP2 DUP7 ADD SWAP4 POP PUSH2 0x3C46 JUMP JUMPDEST PUSH2 0x3C1C DUP6 PUSH2 0x3BBB JUMP JUMPDEST PUSH1 0x0 JUMPDEST DUP4 DUP2 LT ISZERO PUSH2 0x3C3E JUMPI DUP2 SLOAD DUP2 DUP10 ADD MSTORE PUSH1 0x1 DUP3 ADD SWAP2 POP PUSH1 0x20 DUP2 ADD SWAP1 POP PUSH2 0x3C1F JUMP JUMPDEST DUP4 DUP9 ADD SWAP6 POP POP POP JUMPDEST POP POP POP SWAP3 SWAP2 POP POP JUMP JUMPDEST PUSH1 0x0 PUSH2 0x3C5B DUP3 DUP5 PUSH2 0x3BD0 JUMP JUMPDEST SWAP2 POP DUP2 SWAP1 POP SWAP3 SWAP2 POP POP JUMP JUMPDEST PUSH32 0x5468652070726F706F73616C206973206E6F206C6F6E6765722070656E64696E PUSH1 0x0 DUP3 ADD MSTORE PUSH32 0x6700000000000000000000000000000000000000000000000000000000000000 PUSH1 0x20 DUP3 ADD MSTORE POP JUMP JUMPDEST PUSH1 0x0 PUSH2 0x3CC2 PUSH1 0x21 DUP4 PUSH2 0x32A3 JUMP JUMPDEST SWAP2 POP PUSH2 0x3CCD DUP3 PUSH2 0x3C66 JUMP JUMPDEST PUSH1 0x40 DUP3 ADD SWAP1 POP SWAP2 SWAP1 POP JUMP JUMPDEST PUSH1 0x0 PUSH1 0x20 DUP3 ADD SWAP1 POP DUP2 DUP2 SUB PUSH1 0x0 DUP4 ADD MSTORE PUSH2 0x3CF1 DUP2 PUSH2 0x3CB5 JUMP JUMPDEST SWAP1 POP SWAP2 SWAP1 POP JUMP JUMPDEST PUSH32 0x54686520616D6F756E74206F66207468652070726F706F73616C206D75737420 PUSH1 0x0 DUP3 ADD MSTORE PUSH32 0x62652067726561746572207468616E2030000000000000000000000000000000 PUSH1 0x20 DUP3 ADD MSTORE POP JUMP JUMPDEST PUSH1 0x0 PUSH2 0x3D54 PUSH1 0x31 DUP4 PUSH2 0x32A3 JUMP JUMPDEST SWAP2 POP PUSH2 0x3D5F DUP3 PUSH2 0x3CF8 JUMP JUMPDEST PUSH1 0x40 DUP3 ADD SWAP1 POP SWAP2 SWAP1 POP JUMP JUMPDEST PUSH1 0x0 PUSH1 0x20 DUP3 ADD SWAP1 POP DUP2 DUP2 SUB PUSH1 0x0 DUP4 ADD MSTORE PUSH2 0x3D83 DUP2 PUSH2 0x3D47 JUMP JUMPDEST SWAP1 POP SWAP2 SWAP1 POP JUMP JUMPDEST PUSH1 0x0 PUSH2 0x3D95 DUP3 PUSH2 0x28D2 JUMP JUMPDEST PUSH2 0x3D9F DUP2 DUP6 PUSH2 0x32A3 JUMP JUMPDEST SWAP4 POP PUSH2 0x3DAF DUP2 DUP6 PUSH1 0x20 DUP7 ADD PUSH2 0x28EE JUMP JUMPDEST PUSH2 0x3DB8 DUP2 PUSH2 0x2921 JUMP JUMPDEST DUP5 ADD SWAP2 POP POP SWAP3 SWAP2 POP POP JUMP JUMPDEST PUSH1 0x0 PUSH1 0xC0 DUP3 ADD SWAP1 POP PUSH2 0x3DD8 PUSH1 0x0 DUP4 ADD DUP10 PUSH2 0x2F21 JUMP JUMPDEST PUSH2 0x3DE5 PUSH1 0x20 DUP4 ADD DUP9 PUSH2 0x3500 JUMP JUMPDEST PUSH2 0x3DF2 PUSH1 0x40 DUP4 ADD DUP8 PUSH2 0x2F21 JUMP JUMPDEST PUSH2 0x3DFF PUSH1 0x60 DUP4 ADD DUP7 PUSH2 0x3500 JUMP JUMPDEST DUP2 DUP2 SUB PUSH1 0x80 DUP4 ADD MSTORE PUSH2 0x3E11 DUP2 DUP6 PUSH2 0x3D8A JUMP JUMPDEST SWAP1 POP DUP2 DUP2 SUB PUSH1 0xA0 DUP4 ADD MSTORE PUSH2 0x3E25 DUP2 DUP5 PUSH2 0x3D8A JUMP JUMPDEST SWAP1 POP SWAP8 SWAP7 POP POP POP POP POP POP POP JUMP JUMPDEST PUSH32 0x54686520636C756220646F6573206E6F74206578697374000000000000000000 PUSH1 0x0 DUP3 ADD MSTORE POP JUMP JUMPDEST PUSH1 0x0 PUSH2 0x3E68 PUSH1 0x17 DUP4 PUSH2 0x32A3 JUMP JUMPDEST SWAP2 POP PUSH2 0x3E73 DUP3 PUSH2 0x3E32 JUMP JUMPDEST PUSH1 0x20 DUP3 ADD SWAP1 POP SWAP2 SWAP1 POP JUMP JUMPDEST PUSH1 0x0 PUSH1 0x20 DUP3 ADD SWAP1 POP DUP2 DUP2 SUB PUSH1 0x0 DUP4 ADD MSTORE PUSH2 0x3E97 DUP2 PUSH2 0x3E5B JUMP JUMPDEST SWAP1 POP SWAP2 SWAP1 POP JUMP JUMPDEST PUSH32 0x54686520636C75622069732066756C6C2C206E6F206D6F7265206D656D626572 PUSH1 0x0 DUP3 ADD MSTORE PUSH32 0x732063616E206265206164646564000000000000000000000000000000000000 PUSH1 0x20 DUP3 ADD MSTORE POP JUMP JUMPDEST PUSH1 0x0 PUSH2 0x3EFA PUSH1 0x2E DUP4 PUSH2 0x32A3 JUMP JUMPDEST SWAP2 POP PUSH2 0x3F05 DUP3 PUSH2 0x3E9E JUMP JUMPDEST PUSH1 0x40 DUP3 ADD SWAP1 POP SWAP2 SWAP1 POP JUMP JUMPDEST PUSH1 0x0 PUSH1 0x20 DUP3 ADD SWAP1 POP DUP2 DUP2 SUB PUSH1 0x0 DUP4 ADD MSTORE PUSH2 0x3F29 DUP2 PUSH2 0x3EED JUMP JUMPDEST SWAP1 POP SWAP2 SWAP1 POP JUMP JUMPDEST PUSH32 0x596F752061726520616C72656164792061206D656D626572206F662074686520 PUSH1 0x0 DUP3 ADD MSTORE PUSH32 0x636C756200000000000000000000000000000000000000000000000000000000 PUSH1 0x20 DUP3 ADD MSTORE POP JUMP JUMPDEST PUSH1 0x0 PUSH2 0x3F8C PUSH1 0x24 DUP4 PUSH2 0x32A3 JUMP JUMPDEST SWAP2 POP PUSH2 0x3F97 DUP3 PUSH2 0x3F30 JUMP JUMPDEST PUSH1 0x40 DUP3 ADD SWAP1 POP SWAP2 SWAP1 POP JUMP JUMPDEST PUSH1 0x0 PUSH1 0x20 DUP3 ADD SWAP1 POP DUP2 DUP2 SUB PUSH1 0x0 DUP4 ADD MSTORE PUSH2 0x3FBB DUP2 PUSH2 0x3F7F JUMP JUMPDEST SWAP1 POP SWAP2 SWAP1 POP JUMP JUMPDEST PUSH32 0x5468652070726F706F73616C206973206E6F7420696E2070656E64696E672073 PUSH1 0x0 DUP3 ADD MSTORE PUSH32 0x7461747573000000000000000000000000000000000000000000000000000000 PUSH1 0x20 DUP3 ADD MSTORE POP JUMP JUMPDEST PUSH1 0x0 PUSH2 0x401E PUSH1 0x25 DUP4 PUSH2 0x32A3 JUMP JUMPDEST SWAP2 POP PUSH2 0x4029 DUP3 PUSH2 0x3FC2 JUMP JUMPDEST PUSH1 0x40 DUP3 ADD SWAP1 POP SWAP2 SWAP1 POP JUMP JUMPDEST PUSH1 0x0 PUSH1 0x20 DUP3 ADD SWAP1 POP DUP2 DUP2 SUB PUSH1 0x0 DUP4 ADD MSTORE PUSH2 0x404D DUP2 PUSH2 0x4011 JUMP JUMPDEST SWAP1 POP SWAP2 SWAP1 POP JUMP JUMPDEST PUSH32 0x4F6E6C79207468652070726F706F73616C2063726561746F722063616E20636C PUSH1 0x0 DUP3 ADD MSTORE PUSH32 0x6F7365207468652070726F706F73616C00000000000000000000000000000000 PUSH1 0x20 DUP3 ADD MSTORE POP JUMP JUMPDEST PUSH1 0x0 PUSH2 0x40B0 PUSH1 0x30 DUP4 PUSH2 0x32A3 JUMP JUMPDEST SWAP2 POP PUSH2 0x40BB DUP3 PUSH2 0x4054 JUMP JUMPDEST PUSH1 0x40 DUP3 ADD SWAP1 POP SWAP2 SWAP1 POP JUMP JUMPDEST PUSH1 0x0 PUSH1 0x20 DUP3 ADD SWAP1 POP DUP2 DUP2 SUB PUSH1 0x0 DUP4 ADD MSTORE PUSH2 0x40DF DUP2 PUSH2 0x40A3 JUMP JUMPDEST SWAP1 POP SWAP2 SWAP1 POP JUMP INVALID LOG2 PUSH5 0x6970667358 0x22 SLT KECCAK256 STATICCALL 0xC8 0x5C 0xA9 PUSH15 0x6C6A4CF28F91071AE7991FFA80DBF0 MSIZE SWAP2 DUP7 0xB6 0xCE PUSH26 0x2F160766B80664736F6C634300080A0033000000000000000000 "},"methodIdentifiers":{"closeProposal(uint256,uint256)":"e7613ea8","contributeToClub(uint256)":"288509b4","createClub(string,string)":"35a1930f","createProposal(uint256,uint256,address,string,string)":"89972a32","executeProposal(uint256,uint256)":"1ab76712","getBalanceByClub(address,uint256)":"890e2456","getClubById(uint256)":"c3741fed","getMyClubs()":"549710be","getProposalById(uint256,uint256)":"14204fc6","getProposalsByClub(uint256)":"058694a9","hasVoted(address,uint256,uint256)":"0ee29404","isClubFull(uint256)":"c4670878","isClubIdExist(uint256)":"6764fd48","isMemberOfClub(address,uint256)":"34fa3d83","isProposalIdExist(uint256,uint256)":"eec8e0db","isVotingOn(uint256,uint256)":"ab7ca348","joinClub(uint256)":"e1542742","leaveClub(uint256)":"4d7f75c3","listClubs()":"5ff847fb","voteOnProposal(uint256,uint256,bool)":"54a2e233"}}}}}