{
  "_format": "hh-sol-artifact-1",
  "contractName": "InvestmentClub",
  "sourceName": "contracts/InvestmentClub.sol",
  "abi": [
    {
      "inputs": [],
      "stateMutability": "nonpayable",
      "type": "constructor"
    },
    {
      "anonymous": false,
      "inputs": [
        {
          "indexed": true,
          "internalType": "uint256",
          "name": "clubId",
          "type": "uint256"
        },
        {
          "indexed": false,
          "internalType": "string",
          "name": "name",
          "type": "string"
        },
        {
          "indexed": false,
          "internalType": "string",
          "name": "CID",
          "type": "string"
        },
        {
          "indexed": true,
          "internalType": "address",
          "name": "creator",
          "type": "address"
        }
      ],
      "name": "ClubCreated",
      "type": "event"
    },
    {
      "anonymous": false,
      "inputs": [
        {
          "indexed": false,
          "internalType": "uint256",
          "name": "id",
          "type": "uint256"
        },
        {
          "indexed": false,
          "internalType": "string",
          "name": "name",
          "type": "string"
        },
        {
          "indexed": false,
          "internalType": "uint256",
          "name": "memberCounter",
          "type": "uint256"
        },
        {
          "indexed": false,
          "internalType": "uint256",
          "name": "proposalCounter",
          "type": "uint256"
        },
        {
          "indexed": false,
          "internalType": "uint256",
          "name": "pool",
          "type": "uint256"
        },
        {
          "indexed": false,
          "internalType": "string",
          "name": "CID",
          "type": "string"
        }
      ],
      "name": "ClubInfoEvent",
      "type": "event"
    },
    {
      "anonymous": false,
      "inputs": [
        {
          "indexed": true,
          "internalType": "uint256",
          "name": "clubId",
          "type": "uint256"
        },
        {
          "indexed": false,
          "internalType": "uint256",
          "name": "proposalId",
          "type": "uint256"
        },
        {
          "indexed": false,
          "internalType": "address",
          "name": "creator",
          "type": "address"
        },
        {
          "indexed": false,
          "internalType": "uint256",
          "name": "amount",
          "type": "uint256"
        },
        {
          "indexed": false,
          "internalType": "address",
          "name": "destination",
          "type": "address"
        },
        {
          "indexed": false,
          "internalType": "string",
          "name": "description",
          "type": "string"
        },
        {
          "indexed": false,
          "internalType": "string",
          "name": "Cid",
          "type": "string"
        }
      ],
      "name": "ProposalCreated",
      "type": "event"
    },
    {
      "inputs": [
        {
          "internalType": "uint256",
          "name": "clubId",
          "type": "uint256"
        },
        {
          "internalType": "uint256",
          "name": "proposalId",
          "type": "uint256"
        }
      ],
      "name": "closeProposal",
      "outputs": [],
      "stateMutability": "nonpayable",
      "type": "function"
    },
    {
      "inputs": [
        {
          "internalType": "uint256",
          "name": "clubId",
          "type": "uint256"
        }
      ],
      "name": "contributeToClub",
      "outputs": [],
      "stateMutability": "payable",
      "type": "function"
    },
    {
      "inputs": [
        {
          "internalType": "string",
          "name": "name",
          "type": "string"
        },
        {
          "internalType": "string",
          "name": "Cid",
          "type": "string"
        }
      ],
      "name": "createClub",
      "outputs": [
        {
          "internalType": "uint256",
          "name": "",
          "type": "uint256"
        }
      ],
      "stateMutability": "nonpayable",
      "type": "function"
    },
    {
      "inputs": [
        {
          "internalType": "uint256",
          "name": "clubId",
          "type": "uint256"
        },
        {
          "internalType": "uint256",
          "name": "amount",
          "type": "uint256"
        },
        {
          "internalType": "address",
          "name": "destination",
          "type": "address"
        },
        {
          "internalType": "string",
          "name": "description",
          "type": "string"
        },
        {
          "internalType": "string",
          "name": "Cid",
          "type": "string"
        }
      ],
      "name": "createProposal",
      "outputs": [],
      "stateMutability": "nonpayable",
      "type": "function"
    },
    {
      "inputs": [
        {
          "internalType": "uint256",
          "name": "clubId",
          "type": "uint256"
        },
        {
          "internalType": "uint256",
          "name": "proposalId",
          "type": "uint256"
        }
      ],
      "name": "executeProposal",
      "outputs": [],
      "stateMutability": "payable",
      "type": "function"
    },
    {
      "inputs": [
        {
          "internalType": "address",
          "name": "userAddress",
          "type": "address"
        },
        {
          "internalType": "uint256",
          "name": "clubId",
          "type": "uint256"
        }
      ],
      "name": "getBalanceByClub",
      "outputs": [
        {
          "internalType": "uint256",
          "name": "",
          "type": "uint256"
        }
      ],
      "stateMutability": "view",
      "type": "function"
    },
    {
      "inputs": [
        {
          "internalType": "uint256",
          "name": "clubId",
          "type": "uint256"
        }
      ],
      "name": "getClubById",
      "outputs": [
        {
          "components": [
            {
              "internalType": "uint256",
              "name": "clubId",
              "type": "uint256"
            },
            {
              "internalType": "string",
              "name": "name",
              "type": "string"
            },
            {
              "internalType": "uint256",
              "name": "memberCount",
              "type": "uint256"
            },
            {
              "internalType": "uint256",
              "name": "proposalCount",
              "type": "uint256"
            },
            {
              "internalType": "uint256",
              "name": "pool",
              "type": "uint256"
            },
            {
              "internalType": "string",
              "name": "CID",
              "type": "string"
            }
          ],
          "internalType": "struct InvestmentClub.ClubInfo",
          "name": "",
          "type": "tuple"
        }
      ],
      "stateMutability": "view",
      "type": "function"
    },
    {
      "inputs": [],
      "name": "getMyClubs",
      "outputs": [
        {
          "components": [
            {
              "internalType": "uint256",
              "name": "clubId",
              "type": "uint256"
            },
            {
              "internalType": "string",
              "name": "name",
              "type": "string"
            },
            {
              "internalType": "uint256",
              "name": "memberCount",
              "type": "uint256"
            },
            {
              "internalType": "uint256",
              "name": "proposalCount",
              "type": "uint256"
            },
            {
              "internalType": "uint256",
              "name": "pool",
              "type": "uint256"
            },
            {
              "internalType": "string",
              "name": "CID",
              "type": "string"
            }
          ],
          "internalType": "struct InvestmentClub.ClubInfo[]",
          "name": "",
          "type": "tuple[]"
        }
      ],
      "stateMutability": "view",
      "type": "function"
    },
    {
      "inputs": [
        {
          "internalType": "uint256",
          "name": "clubId",
          "type": "uint256"
        },
        {
          "internalType": "uint256",
          "name": "proposalId",
          "type": "uint256"
        }
      ],
      "name": "getProposalById",
      "outputs": [
        {
          "components": [
            {
              "internalType": "uint256",
              "name": "id",
              "type": "uint256"
            },
            {
              "internalType": "address",
              "name": "creator",
              "type": "address"
            },
            {
              "internalType": "uint256",
              "name": "amount",
              "type": "uint256"
            },
            {
              "internalType": "address",
              "name": "destination",
              "type": "address"
            },
            {
              "internalType": "string",
              "name": "status",
              "type": "string"
            },
            {
              "internalType": "string",
              "name": "description",
              "type": "string"
            },
            {
              "internalType": "uint256",
              "name": "votesFor",
              "type": "uint256"
            },
            {
              "internalType": "uint256",
              "name": "votesAgainst",
              "type": "uint256"
            },
            {
              "internalType": "uint256",
              "name": "proposedAt",
              "type": "uint256"
            },
            {
              "internalType": "uint256",
              "name": "proposalExpireAt",
              "type": "uint256"
            },
            {
              "internalType": "string",
              "name": "Cid",
              "type": "string"
            }
          ],
          "internalType": "struct InvestmentClub.ProposalInfo",
          "name": "",
          "type": "tuple"
        }
      ],
      "stateMutability": "view",
      "type": "function"
    },
    {
      "inputs": [
        {
          "internalType": "uint256",
          "name": "clubId",
          "type": "uint256"
        }
      ],
      "name": "getProposalsByClub",
      "outputs": [
        {
          "components": [
            {
              "internalType": "uint256",
              "name": "id",
              "type": "uint256"
            },
            {
              "internalType": "address",
              "name": "creator",
              "type": "address"
            },
            {
              "internalType": "uint256",
              "name": "amount",
              "type": "uint256"
            },
            {
              "internalType": "address",
              "name": "destination",
              "type": "address"
            },
            {
              "internalType": "string",
              "name": "status",
              "type": "string"
            },
            {
              "internalType": "string",
              "name": "description",
              "type": "string"
            },
            {
              "internalType": "uint256",
              "name": "votesFor",
              "type": "uint256"
            },
            {
              "internalType": "uint256",
              "name": "votesAgainst",
              "type": "uint256"
            },
            {
              "internalType": "uint256",
              "name": "proposedAt",
              "type": "uint256"
            },
            {
              "internalType": "uint256",
              "name": "proposalExpireAt",
              "type": "uint256"
            },
            {
              "internalType": "string",
              "name": "Cid",
              "type": "string"
            }
          ],
          "internalType": "struct InvestmentClub.ProposalInfo[]",
          "name": "",
          "type": "tuple[]"
        }
      ],
      "stateMutability": "view",
      "type": "function"
    },
    {
      "inputs": [
        {
          "internalType": "address",
          "name": "sender",
          "type": "address"
        },
        {
          "internalType": "uint256",
          "name": "proposalId",
          "type": "uint256"
        },
        {
          "internalType": "uint256",
          "name": "clubId",
          "type": "uint256"
        }
      ],
      "name": "hasVoted",
      "outputs": [
        {
          "internalType": "bool",
          "name": "",
          "type": "bool"
        }
      ],
      "stateMutability": "view",
      "type": "function"
    },
    {
      "inputs": [
        {
          "internalType": "uint256",
          "name": "clubId",
          "type": "uint256"
        }
      ],
      "name": "isClubFull",
      "outputs": [
        {
          "internalType": "bool",
          "name": "",
          "type": "bool"
        }
      ],
      "stateMutability": "view",
      "type": "function"
    },
    {
      "inputs": [
        {
          "internalType": "uint256",
          "name": "clubId",
          "type": "uint256"
        }
      ],
      "name": "isClubIdExist",
      "outputs": [
        {
          "internalType": "bool",
          "name": "",
          "type": "bool"
        }
      ],
      "stateMutability": "view",
      "type": "function"
    },
    {
      "inputs": [
        {
          "internalType": "address",
          "name": "memberAddress",
          "type": "address"
        },
        {
          "internalType": "uint256",
          "name": "clubId",
          "type": "uint256"
        }
      ],
      "name": "isMemberOfClub",
      "outputs": [
        {
          "internalType": "bool",
          "name": "",
          "type": "bool"
        }
      ],
      "stateMutability": "view",
      "type": "function"
    },
    {
      "inputs": [
        {
          "internalType": "uint256",
          "name": "proposalId",
          "type": "uint256"
        },
        {
          "internalType": "uint256",
          "name": "clubId",
          "type": "uint256"
        }
      ],
      "name": "isProposalIdExist",
      "outputs": [
        {
          "internalType": "bool",
          "name": "",
          "type": "bool"
        }
      ],
      "stateMutability": "view",
      "type": "function"
    },
    {
      "inputs": [
        {
          "internalType": "uint256",
          "name": "clubId",
          "type": "uint256"
        },
        {
          "internalType": "uint256",
          "name": "proposalId",
          "type": "uint256"
        }
      ],
      "name": "isVotingOn",
      "outputs": [
        {
          "internalType": "bool",
          "name": "",
          "type": "bool"
        }
      ],
      "stateMutability": "view",
      "type": "function"
    },
    {
      "inputs": [
        {
          "internalType": "uint256",
          "name": "clubId",
          "type": "uint256"
        }
      ],
      "name": "joinClub",
      "outputs": [],
      "stateMutability": "nonpayable",
      "type": "function"
    },
    {
      "inputs": [
        {
          "internalType": "uint256",
          "name": "clubId",
          "type": "uint256"
        }
      ],
      "name": "leaveClub",
      "outputs": [],
      "stateMutability": "nonpayable",
      "type": "function"
    },
    {
      "inputs": [],
      "name": "listClubs",
      "outputs": [
        {
          "components": [
            {
              "internalType": "uint256",
              "name": "clubId",
              "type": "uint256"
            },
            {
              "internalType": "string",
              "name": "name",
              "type": "string"
            },
            {
              "internalType": "uint256",
              "name": "memberCount",
              "type": "uint256"
            },
            {
              "internalType": "uint256",
              "name": "proposalCount",
              "type": "uint256"
            },
            {
              "internalType": "uint256",
              "name": "pool",
              "type": "uint256"
            },
            {
              "internalType": "string",
              "name": "CID",
              "type": "string"
            }
          ],
          "internalType": "struct InvestmentClub.ClubInfo[]",
          "name": "",
          "type": "tuple[]"
        }
      ],
      "stateMutability": "view",
      "type": "function"
    },
    {
      "inputs": [
        {
          "internalType": "uint256",
          "name": "clubId",
          "type": "uint256"
        },
        {
          "internalType": "uint256",
          "name": "proposalId",
          "type": "uint256"
        },
        {
          "internalType": "bool",
          "name": "vote",
          "type": "bool"
        }
      ],
      "name": "voteOnProposal",
      "outputs": [],
      "stateMutability": "nonpayable",
      "type": "function"
    }
  ],
  "bytecode": "0x608060405234801561001057600080fd5b506000600181905550613ec8806100286000396000f3fe60806040526004361061011f5760003560e01c80635ff847fb116100a0578063c3741fed11610064578063c3741fed14610415578063c467087814610452578063e15427421461048f578063e7613ea8146104b8578063eec8e0db146104e15761011f565b80635ff847fb1461030a5780636764fd4814610335578063890e24561461037257806389972a32146103af578063ab7ca348146103d85761011f565b806334fa3d83116100e757806334fa3d831461021357806335a1930f146102505780634d7f75c31461028d578063549710be146102b657806354a2e233146102e15761011f565b8063058694a9146101245780630ee294041461016157806314204fc61461019e5780631ab76712146101db578063288509b4146101f7575b600080fd5b34801561013057600080fd5b5061014b60048036038101906101469190612771565b61051e565b6040516101589190612a46565b60405180910390f35b34801561016d57600080fd5b5061018860048036038101906101839190612a94565b6108ce565b6040516101959190612b02565b60405180910390f35b3480156101aa57600080fd5b506101c560048036038101906101c09190612b1d565b61094d565b6040516101d29190612c5a565b60405180910390f35b6101f560048036038101906101f09190612b1d565b610c9b565b005b610211600480360381019061020c9190612771565b610fae565b005b34801561021f57600080fd5b5061023a60048036038101906102359190612c7c565b611118565b6040516102479190612b02565b60405180910390f35b34801561025c57600080fd5b5061027760048036038101906102729190612df1565b6111c7565b6040516102849190612e78565b60405180910390f35b34801561029957600080fd5b506102b460048036038101906102af9190612771565b611373565b005b3480156102c257600080fd5b506102cb6114ad565b6040516102d89190612fe5565b60405180910390f35b3480156102ed57600080fd5b5061030860048036038101906103039190613033565b6116e2565b005b34801561031657600080fd5b5061031f611960565b60405161032c9190612fe5565b60405180910390f35b34801561034157600080fd5b5061035c60048036038101906103579190612771565b611b7a565b6040516103699190612b02565b60405180910390f35b34801561037e57600080fd5b5061039960048036038101906103949190612c7c565b611b9c565b6040516103a69190612e78565b60405180910390f35b3480156103bb57600080fd5b506103d660048036038101906103d19190613086565b611c07565b005b3480156103e457600080fd5b506103ff60048036038101906103fa9190612b1d565b611ed0565b60405161040c9190612b02565b60405180910390f35b34801561042157600080fd5b5061043c60048036038101906104379190612771565b611f0b565b60405161044991906131c9565b60405180910390f35b34801561045e57600080fd5b5061047960048036038101906104749190612771565b6120d4565b6040516104869190612b02565b60405180910390f35b34801561049b57600080fd5b506104b660048036038101906104b19190612771565b6120f6565b005b3480156104c457600080fd5b506104df60048036038101906104da9190612b1d565b6122cd565b005b3480156104ed57600080fd5b5061050860048036038101906105039190612b1d565b612504565b6040516105159190612b02565b60405180910390f35b606061052982611b7a565b610568576040517f08c379a000000000000000000000000000000000000000000000000000000000815260040161055f90613248565b60405180910390fd5b600080600084815260200190815260200160002090506000816006015467ffffffffffffffff81111561059e5761059d612cc6565b5b6040519080825280602002602001820160405280156105d757816020015b6105c46125c8565b8152602001906001900390816105bc5790505b509050600080600190505b836006015481116108c25760008460050160008381526020019081526020016000209050604051806101600160405280826000015481526020018260010160009054906101000a900473ffffffffffffffffffffffffffffffffffffffff1673ffffffffffffffffffffffffffffffffffffffff168152602001826002015481526020018260030160009054906101000a900473ffffffffffffffffffffffffffffffffffffffff1673ffffffffffffffffffffffffffffffffffffffff1681526020018260040180546106b590613297565b80601f01602080910402602001604051908101604052809291908181526020018280546106e190613297565b801561072e5780601f106107035761010080835404028352916020019161072e565b820191906000526020600020905b81548152906001019060200180831161071157829003601f168201915b5050505050815260200182600501805461074790613297565b80601f016020809104026020016040519081016040528092919081815260200182805461077390613297565b80156107c05780601f10610795576101008083540402835291602001916107c0565b820191906000526020600020905b8154815290600101906020018083116107a357829003601f168201915b505050505081526020018260060154815260200182600701548152602001826008015481526020018260090154815260200182600a01805461080190613297565b80601f016020809104026020016040519081016040528092919081815260200182805461082d90613297565b801561087a5780601f1061084f5761010080835404028352916020019161087a565b820191906000526020600020905b81548152906001019060200180831161085d57829003601f168201915b5050505050815250848481518110610895576108946132c9565b5b602002602001018190525082806108ab90613327565b9350505080806108ba90613327565b9150506105e2565b50819350505050919050565b60008060008381526020019081526020016000206005016000848152602001908152602001600020600b0160008573ffffffffffffffffffffffffffffffffffffffff1673ffffffffffffffffffffffffffffffffffffffff16815260200190815260200160002060009054906101000a900460ff1690509392505050565b6109556125c8565b61095e83611b7a565b61099d576040517f08c379a0000000000000000000000000000000000000000000000000000000008152600401610994906133bc565b60405180910390fd5b6109a78284612504565b6109e6576040517f08c379a00000000000000000000000000000000000000000000000000000000081526004016109dd90613428565b60405180910390fd5b6000806000858152602001908152602001600020600501600084815260200190815260200160002090506000604051806101600160405280836000015481526020018360010160009054906101000a900473ffffffffffffffffffffffffffffffffffffffff1673ffffffffffffffffffffffffffffffffffffffff168152602001836002015481526020018360030160009054906101000a900473ffffffffffffffffffffffffffffffffffffffff1673ffffffffffffffffffffffffffffffffffffffff168152602001836004018054610ac190613297565b80601f0160208091040260200160405190810160405280929190818152602001828054610aed90613297565b8015610b3a5780601f10610b0f57610100808354040283529160200191610b3a565b820191906000526020600020905b815481529060010190602001808311610b1d57829003601f168201915b50505050508152602001836005018054610b5390613297565b80601f0160208091040260200160405190810160405280929190818152602001828054610b7f90613297565b8015610bcc5780601f10610ba157610100808354040283529160200191610bcc565b820191906000526020600020905b815481529060010190602001808311610baf57829003601f168201915b505050505081526020018360060154815260200183600701548152602001836008015481526020018360090154815260200183600a018054610c0d90613297565b80601f0160208091040260200160405190810160405280929190818152602001828054610c3990613297565b8015610c865780601f10610c5b57610100808354040283529160200191610c86565b820191906000526020600020905b815481529060010190602001808311610c6957829003601f168201915b50505050508152509050809250505092915050565b6000806000848152602001908152602001600020905060008160050160008481526020019081526020016000209050610cd384611b7a565b610d12576040517f08c379a0000000000000000000000000000000000000000000000000000000008152600401610d09906133bc565b60405180910390fd5b610d1c3385611118565b610d5b576040517f08c379a0000000000000000000000000000000000000000000000000000000008152600401610d5290613494565b60405180910390fd5b610d658385612504565b610da4576040517f08c379a0000000000000000000000000000000000000000000000000000000008152600401610d9b90613428565b60405180910390fd5b610dae848461253b565b610ded576040517f08c379a0000000000000000000000000000000000000000000000000000000008152600401610de490613526565b60405180910390fd5b806002015482600401541015610e38576040517f08c379a0000000000000000000000000000000000000000000000000000000008152600401610e2f906135b8565b60405180910390fd5b8060070154816006015411610e82576040517f08c379a0000000000000000000000000000000000000000000000000000000008152600401610e799061364a565b60405180910390fd5b610e8c8484611ed0565b15610ecc576040517f08c379a0000000000000000000000000000000000000000000000000000000008152600401610ec3906136dc565b60405180910390fd5b6040518060400160405280600881526020017f4578656375746564000000000000000000000000000000000000000000000000815250816004019080519060200190610f1992919061264e565b508060020154826004016000828254610f3291906136fc565b925050819055508060030160009054906101000a900473ffffffffffffffffffffffffffffffffffffffff1673ffffffffffffffffffffffffffffffffffffffff166108fc82600201549081150290604051600060405180830381858888f19350505050158015610fa7573d6000803e3d6000fd5b5050505050565b610fb781611b7a565b610ff6576040517f08c379a0000000000000000000000000000000000000000000000000000000008152600401610fed906133bc565b60405180910390fd5b600080600083815260200190815260200160002090506110163383611118565b611055576040517f08c379a000000000000000000000000000000000000000000000000000000000815260040161104c90613494565b60405180910390fd5b60003411611098576040517f08c379a000000000000000000000000000000000000000000000000000000000815260040161108f906137a2565b60405180910390fd5b60008160020160003373ffffffffffffffffffffffffffffffffffffffff1673ffffffffffffffffffffffffffffffffffffffff1681526020019081526020016000209050348160010160008282546110f191906137c2565b925050819055503482600401600082825461110c91906137c2565b92505081905550505050565b60008073ffffffffffffffffffffffffffffffffffffffff1660008084815260200190815260200160002060020160008573ffffffffffffffffffffffffffffffffffffffff1673ffffffffffffffffffffffffffffffffffffffff16815260200190815260200160002060000160009054906101000a900473ffffffffffffffffffffffffffffffffffffffff1673ffffffffffffffffffffffffffffffffffffffff161415905092915050565b600080600180546111d891906137c2565b9050600080600083815260200190815260200160002090508181600001819055508481600101908051906020019061121192919061264e565b506000816004018190555060008160060181905550600181600301819055508381600701908051906020019061124892919061264e565b50600060405180604001604052803373ffffffffffffffffffffffffffffffffffffffff16815260200160008152509050808260020160003373ffffffffffffffffffffffffffffffffffffffff1673ffffffffffffffffffffffffffffffffffffffff16815260200190815260200160002060008201518160000160006101000a81548173ffffffffffffffffffffffffffffffffffffffff021916908373ffffffffffffffffffffffffffffffffffffffff16021790555060208201518160010155905050826001819055503373ffffffffffffffffffffffffffffffffffffffff16837fdb8e999bdd1dd652d488bf40606ed3c1cabed934893c09a636f9ec34b25cbcd1888860405161135f929190613851565b60405180910390a382935050505092915050565b61137c81611b7a565b6113bb576040517f08c379a00000000000000000000000000000000000000000000000000000000081526004016113b2906133bc565b60405180910390fd5b600080600083815260200190815260200160002090506113db3383611118565b61141a576040517f08c379a000000000000000000000000000000000000000000000000000000000815260040161141190613494565b60405180910390fd5b600181600301600082825461142f91906136fc565b925050819055508060020160003373ffffffffffffffffffffffffffffffffffffffff1673ffffffffffffffffffffffffffffffffffffffff168152602001908152602001600020600080820160006101000a81549073ffffffffffffffffffffffffffffffffffffffff0219169055600182016000905550505050565b6060600060015467ffffffffffffffff8111156114cd576114cc612cc6565b5b60405190808252806020026020018201604052801561150657816020015b6114f36126d4565b8152602001906001900390816114eb5790505b509050600080600190505b60015481116116d9576000806000838152602001908152602001600020905061153e338260000154611118565b156116c5576040518060c001604052808260000154815260200182600101805461156790613297565b80601f016020809104026020016040519081016040528092919081815260200182805461159390613297565b80156115e05780601f106115b5576101008083540402835291602001916115e0565b820191906000526020600020905b8154815290600101906020018083116115c357829003601f168201915b5050505050815260200182600301548152602001826006015481526020018260040154815260200182600701805461161790613297565b80601f016020809104026020016040519081016040528092919081815260200182805461164390613297565b80156116905780601f1061166557610100808354040283529160200191611690565b820191906000526020600020905b81548152906001019060200180831161167357829003601f168201915b50505050508152508484815181106116ab576116aa6132c9565b5b602002602001018190525082806116c190613327565b9350505b5080806116d190613327565b915050611511565b50819250505090565b6116eb83611b7a565b61172a576040517f08c379a0000000000000000000000000000000000000000000000000000000008152600401611721906133bc565b60405180910390fd5b6117348383611ed0565b611773576040517f08c379a000000000000000000000000000000000000000000000000000000000815260040161176a906138d4565b60405180910390fd5b600080600085815260200190815260200160002090506117933385611118565b6117d2576040517f08c379a00000000000000000000000000000000000000000000000000000000081526004016117c990613494565b60405180910390fd5b6117dc8385612504565b61181b576040517f08c379a000000000000000000000000000000000000000000000000000000000815260040161181290613428565b60405180910390fd5b6000816005016000858152602001908152602001600020905061183f3385876108ce565b1561187f576040517f08c379a000000000000000000000000000000000000000000000000000000000815260040161187690613966565b60405180910390fd5b6040518060400160405280600781526020017f50656e64696e670000000000000000000000000000000000000000000000000081525080519060200120816004016040516118cd9190613a25565b604051809103902014611915576040517f08c379a000000000000000000000000000000000000000000000000000000000815260040161190c90613aae565b60405180910390fd5b821561193c57600181600601600082825461193091906137c2565b92505081905550611959565b600181600701600082825461195191906137c2565b925050819055505b5050505050565b6060600060015467ffffffffffffffff8111156119805761197f612cc6565b5b6040519080825280602002602001820160405280156119b957816020015b6119a66126d4565b81526020019060019003908161199e5790505b50905060005b600154811015611b725760008060006001846119db91906137c2565b815260200190815260200160002090506040518060c0016040528082600001548152602001826001018054611a0f90613297565b80601f0160208091040260200160405190810160405280929190818152602001828054611a3b90613297565b8015611a885780601f10611a5d57610100808354040283529160200191611a88565b820191906000526020600020905b815481529060010190602001808311611a6b57829003601f168201915b50505050508152602001826003015481526020018260060154815260200182600401548152602001826007018054611abf90613297565b80601f0160208091040260200160405190810160405280929190818152602001828054611aeb90613297565b8015611b385780601f10611b0d57610100808354040283529160200191611b38565b820191906000526020600020905b815481529060010190602001808311611b1b57829003601f168201915b5050505050815250838381518110611b5357611b526132c9565b5b6020026020010181905250508080611b6a90613327565b9150506119bf565b508091505090565b6000806000808481526020019081526020016000206000015414159050919050565b600080600080848152602001908152602001600020905060008160020160008673ffffffffffffffffffffffffffffffffffffffff1673ffffffffffffffffffffffffffffffffffffffff168152602001908152602001600020905080600101549250505092915050565b611c1085611b7a565b611c4f576040517f08c379a0000000000000000000000000000000000000000000000000000000008152600401611c46906133bc565b60405180910390fd5b60008060008781526020019081526020016000209050611c6f3387611118565b611cae576040517f08c379a0000000000000000000000000000000000000000000000000000000008152600401611ca590613494565b60405180910390fd5b60008511611cf1576040517f08c379a0000000000000000000000000000000000000000000000000000000008152600401611ce890613b40565b60405180910390fd5b600060018260060154611d0491906137c2565b9050600080600089815260200190815260200160002060050160008381526020019081526020016000209050818160000181905550338160010160006101000a81548173ffffffffffffffffffffffffffffffffffffffff021916908373ffffffffffffffffffffffffffffffffffffffff160217905550868160020181905550858160030160006101000a81548173ffffffffffffffffffffffffffffffffffffffff021916908373ffffffffffffffffffffffffffffffffffffffff1602179055506040518060400160405280600781526020017f50656e64696e6700000000000000000000000000000000000000000000000000815250816004019080519060200190611e1592919061264e565b5084816005019080519060200190611e2e92919061264e565b50600081600601819055506000816007018190555042816008018190555061012c42611e5a91906137c2565b81600901819055508381600a019080519060200190611e7a92919061264e565b50818360060181905550877fd28f39451a81db59d33c77da433396c23046543154523cb54d6908320f6aa4df83338a8a8a8a604051611ebe96959493929190613b6f565b60405180910390a25050505050505050565b600080600080858152602001908152602001600020600501600084815260200190815260200160002090504281600901541191505092915050565b611f136126d4565b611f1c82611b7a565b611f5b576040517f08c379a0000000000000000000000000000000000000000000000000000000008152600401611f52906133bc565b60405180910390fd5b6000806000848152602001908152602001600020905060006040518060c0016040528083600001548152602001836001018054611f9790613297565b80601f0160208091040260200160405190810160405280929190818152602001828054611fc390613297565b80156120105780601f10611fe557610100808354040283529160200191612010565b820191906000526020600020905b815481529060010190602001808311611ff357829003601f168201915b5050505050815260200183600301548152602001836006015481526020018360040154815260200183600701805461204790613297565b80601f016020809104026020016040519081016040528092919081815260200182805461207390613297565b80156120c05780601f10612095576101008083540402835291602001916120c0565b820191906000526020600020905b8154815290600101906020018083116120a357829003601f168201915b505050505081525090508092505050919050565b6000606360008084815260200190815260200160002060030154109050919050565b6120ff81611b7a565b61213e576040517f08c379a000000000000000000000000000000000000000000000000000000000815260040161213590613c2a565b60405180910390fd5b6000806000838152602001908152602001600020905061215d826120d4565b61219c576040517f08c379a000000000000000000000000000000000000000000000000000000000815260040161219390613cbc565b60405180910390fd5b6121a63383611118565b156121e6576040517f08c379a00000000000000000000000000000000000000000000000000000000081526004016121dd90613d4e565b60405180910390fd5b600060405180604001604052803373ffffffffffffffffffffffffffffffffffffffff16815260200160008152509050808260020160003373ffffffffffffffffffffffffffffffffffffffff1673ffffffffffffffffffffffffffffffffffffffff16815260200190815260200160002060008201518160000160006101000a81548173ffffffffffffffffffffffffffffffffffffffff021916908373ffffffffffffffffffffffffffffffffffffffff1602179055506020820151816001015590505060018260030160008282546122c191906137c2565b92505081905550505050565b6122d682611b7a565b612315576040517f08c379a000000000000000000000000000000000000000000000000000000000815260040161230c906133bc565b60405180910390fd5b61231f8183612504565b61235e576040517f08c379a000000000000000000000000000000000000000000000000000000000815260040161235590613428565b60405180910390fd5b6123688282611ed0565b156123a8576040517f08c379a000000000000000000000000000000000000000000000000000000000815260040161239f906136dc565b60405180910390fd5b6000806000848152602001908152602001600020600501600083815260200190815260200160002090506040518060400160405280600781526020017f50656e64696e670000000000000000000000000000000000000000000000000081525080519060200120816004016040516124209190613a25565b604051809103902014612468576040517f08c379a000000000000000000000000000000000000000000000000000000000815260040161245f90613de0565b60405180910390fd5b612472838361253b565b6124b1576040517f08c379a00000000000000000000000000000000000000000000000000000000081526004016124a890613e72565b60405180910390fd5b6040518060400160405280600681526020017f436c6f73656400000000000000000000000000000000000000000000000000008152508160040190805190602001906124fe92919061264e565b50505050565b6000806000808481526020019081526020016000206005016000858152602001908152602001600020600001541415905092915050565b6000806000808581526020019081526020016000209050600081600501600085815260200190815260200160002090508060010160009054906101000a900473ffffffffffffffffffffffffffffffffffffffff1673ffffffffffffffffffffffffffffffffffffffff163373ffffffffffffffffffffffffffffffffffffffff16149250505092915050565b60405180610160016040528060008152602001600073ffffffffffffffffffffffffffffffffffffffff16815260200160008152602001600073ffffffffffffffffffffffffffffffffffffffff168152602001606081526020016060815260200160008152602001600081526020016000815260200160008152602001606081525090565b82805461265a90613297565b90600052602060002090601f01602090048101928261267c57600085556126c3565b82601f1061269557805160ff19168380011785556126c3565b828001600101855582156126c3579182015b828111156126c25782518255916020019190600101906126a7565b5b5090506126d0919061270a565b5090565b6040518060c001604052806000815260200160608152602001600081526020016000815260200160008152602001606081525090565b5b8082111561272357600081600090555060010161270b565b5090565b6000604051905090565b600080fd5b600080fd5b6000819050919050565b61274e8161273b565b811461275957600080fd5b50565b60008135905061276b81612745565b92915050565b60006020828403121561278757612786612731565b5b60006127958482850161275c565b91505092915050565b600081519050919050565b600082825260208201905092915050565b6000819050602082019050919050565b6127d38161273b565b82525050565b600073ffffffffffffffffffffffffffffffffffffffff82169050919050565b6000612804826127d9565b9050919050565b612814816127f9565b82525050565b600081519050919050565b600082825260208201905092915050565b60005b83811015612854578082015181840152602081019050612839565b83811115612863576000848401525b50505050565b6000601f19601f8301169050919050565b60006128858261281a565b61288f8185612825565b935061289f818560208601612836565b6128a881612869565b840191505092915050565b6000610160830160008301516128cc60008601826127ca565b5060208301516128df602086018261280b565b5060408301516128f260408601826127ca565b506060830151612905606086018261280b565b506080830151848203608086015261291d828261287a565b91505060a083015184820360a0860152612937828261287a565b91505060c083015161294c60c08601826127ca565b5060e083015161295f60e08601826127ca565b506101008301516129746101008601826127ca565b506101208301516129896101208601826127ca565b506101408301518482036101408601526129a3828261287a565b9150508091505092915050565b60006129bc83836128b3565b905092915050565b6000602082019050919050565b60006129dc8261279e565b6129e681856127a9565b9350836020820285016129f8856127ba565b8060005b85811015612a345784840389528151612a1585826129b0565b9450612a20836129c4565b925060208a019950506001810190506129fc565b50829750879550505050505092915050565b60006020820190508181036000830152612a6081846129d1565b905092915050565b612a71816127f9565b8114612a7c57600080fd5b50565b600081359050612a8e81612a68565b92915050565b600080600060608486031215612aad57612aac612731565b5b6000612abb86828701612a7f565b9350506020612acc8682870161275c565b9250506040612add8682870161275c565b9150509250925092565b60008115159050919050565b612afc81612ae7565b82525050565b6000602082019050612b176000830184612af3565b92915050565b60008060408385031215612b3457612b33612731565b5b6000612b428582860161275c565b9250506020612b538582860161275c565b9150509250929050565b600061016083016000830151612b7660008601826127ca565b506020830151612b89602086018261280b565b506040830151612b9c60408601826127ca565b506060830151612baf606086018261280b565b5060808301518482036080860152612bc7828261287a565b91505060a083015184820360a0860152612be1828261287a565b91505060c0830151612bf660c08601826127ca565b5060e0830151612c0960e08601826127ca565b50610100830151612c1e6101008601826127ca565b50610120830151612c336101208601826127ca565b50610140830151848203610140860152612c4d828261287a565b9150508091505092915050565b60006020820190508181036000830152612c748184612b5d565b905092915050565b60008060408385031215612c9357612c92612731565b5b6000612ca185828601612a7f565b9250506020612cb28582860161275c565b9150509250929050565b600080fd5b600080fd5b7f4e487b7100000000000000000000000000000000000000000000000000000000600052604160045260246000fd5b612cfe82612869565b810181811067ffffffffffffffff82111715612d1d57612d1c612cc6565b5b80604052505050565b6000612d30612727565b9050612d3c8282612cf5565b919050565b600067ffffffffffffffff821115612d5c57612d5b612cc6565b5b612d6582612869565b9050602081019050919050565b82818337600083830152505050565b6000612d94612d8f84612d41565b612d26565b905082815260208101848484011115612db057612daf612cc1565b5b612dbb848285612d72565b509392505050565b600082601f830112612dd857612dd7612cbc565b5b8135612de8848260208601612d81565b91505092915050565b60008060408385031215612e0857612e07612731565b5b600083013567ffffffffffffffff811115612e2657612e25612736565b5b612e3285828601612dc3565b925050602083013567ffffffffffffffff811115612e5357612e52612736565b5b612e5f85828601612dc3565b9150509250929050565b612e728161273b565b82525050565b6000602082019050612e8d6000830184612e69565b92915050565b600081519050919050565b600082825260208201905092915050565b6000819050602082019050919050565b600060c083016000830151612ed760008601826127ca565b5060208301518482036020860152612eef828261287a565b9150506040830151612f0460408601826127ca565b506060830151612f1760608601826127ca565b506080830151612f2a60808601826127ca565b5060a083015184820360a0860152612f42828261287a565b9150508091505092915050565b6000612f5b8383612ebf565b905092915050565b6000602082019050919050565b6000612f7b82612e93565b612f858185612e9e565b935083602082028501612f9785612eaf565b8060005b85811015612fd35784840389528151612fb48582612f4f565b9450612fbf83612f63565b925060208a01995050600181019050612f9b565b50829750879550505050505092915050565b60006020820190508181036000830152612fff8184612f70565b905092915050565b61301081612ae7565b811461301b57600080fd5b50565b60008135905061302d81613007565b92915050565b60008060006060848603121561304c5761304b612731565b5b600061305a8682870161275c565b935050602061306b8682870161275c565b925050604061307c8682870161301e565b9150509250925092565b600080600080600060a086880312156130a2576130a1612731565b5b60006130b08882890161275c565b95505060206130c18882890161275c565b94505060406130d288828901612a7f565b935050606086013567ffffffffffffffff8111156130f3576130f2612736565b5b6130ff88828901612dc3565b925050608086013567ffffffffffffffff8111156131205761311f612736565b5b61312c88828901612dc3565b9150509295509295909350565b600060c08301600083015161315160008601826127ca565b5060208301518482036020860152613169828261287a565b915050604083015161317e60408601826127ca565b50606083015161319160608601826127ca565b5060808301516131a460808601826127ca565b5060a083015184820360a08601526131bc828261287a565b9150508091505092915050565b600060208201905081810360008301526131e38184613139565b905092915050565b600082825260208201905092915050565b7f436c756220646f6573206e6f7420657869737400000000000000000000000000600082015250565b60006132326013836131eb565b915061323d826131fc565b602082019050919050565b6000602082019050818103600083015261326181613225565b9050919050565b7f4e487b7100000000000000000000000000000000000000000000000000000000600052602260045260246000fd5b600060028204905060018216806132af57607f821691505b602082108114156132c3576132c2613268565b5b50919050565b7f4e487b7100000000000000000000000000000000000000000000000000000000600052603260045260246000fd5b7f4e487b7100000000000000000000000000000000000000000000000000000000600052601160045260246000fd5b60006133328261273b565b91507fffffffffffffffffffffffffffffffffffffffffffffffffffffffffffffffff821415613365576133646132f8565b5b600182019050919050565b7f74686520636c756220646f6573206e6f74206578697374000000000000000000600082015250565b60006133a66017836131eb565b91506133b182613370565b602082019050919050565b600060208201905081810360008301526133d581613399565b9050919050565b7f5468652070726f706f73616c20646f6573206e6f742065786973740000000000600082015250565b6000613412601b836131eb565b915061341d826133dc565b602082019050919050565b6000602082019050818103600083015261344181613405565b9050919050565b7f596f7520617265206e6f742061206d656d626572206f662074686520636c7562600082015250565b600061347e6020836131eb565b915061348982613448565b602082019050919050565b600060208201905081810360008301526134ad81613471565b9050919050565b7f4f6e6c79207468652063726561746f72206f66207468652070726f706f73616c60008201527f2063616e20657865637574652069740000000000000000000000000000000000602082015250565b6000613510602f836131eb565b915061351b826134b4565b604082019050919050565b6000602082019050818103600083015261353f81613503565b9050919050565b7f54686520616d6f756e7420657863656564732074686520706f6f6c206f66207460008201527f686520636c756200000000000000000000000000000000000000000000000000602082015250565b60006135a26027836131eb565b91506135ad82613546565b604082019050919050565b600060208201905081810360008301526135d181613595565b9050919050565b7f5468652070726f706f73616c20686173206e6f74206265656e20617070726f7660008201527f6564000000000000000000000000000000000000000000000000000000000000602082015250565b60006136346022836131eb565b915061363f826135d8565b604082019050919050565b6000602082019050818103600083015261366381613627565b9050919050565b7f596f752063616e2774206265666f72652074686520566f74696e67206465616460008201527f6c696e6500000000000000000000000000000000000000000000000000000000602082015250565b60006136c66024836131eb565b91506136d18261366a565b604082019050919050565b600060208201905081810360008301526136f5816136b9565b9050919050565b60006137078261273b565b91506137128361273b565b925082821015613725576137246132f8565b5b828203905092915050565b7f596f75206d7573742073656e642045564d4f5320746f20636f6e74726962757460008201527f6500000000000000000000000000000000000000000000000000000000000000602082015250565b600061378c6021836131eb565b915061379782613730565b604082019050919050565b600060208201905081810360008301526137bb8161377f565b9050919050565b60006137cd8261273b565b91506137d88361273b565b9250827fffffffffffffffffffffffffffffffffffffffffffffffffffffffffffffffff0382111561380d5761380c6132f8565b5b828201905092915050565b60006138238261281a565b61382d81856131eb565b935061383d818560208601612836565b61384681612869565b840191505092915050565b6000604082019050818103600083015261386b8185613818565b9050818103602083015261387f8184613818565b90509392505050565b7f566f74696e6720506572696f642046696e697368656400000000000000000000600082015250565b60006138be6016836131eb565b91506138c982613888565b602082019050919050565b600060208201905081810360008301526138ed816138b1565b9050919050565b7f596f75206861766520616c726561647920766f746564206f6e2074686973207060008201527f726f706f73616c00000000000000000000000000000000000000000000000000602082015250565b60006139506027836131eb565b915061395b826138f4565b604082019050919050565b6000602082019050818103600083015261397f81613943565b9050919050565b600081905092915050565b60008190508160005260206000209050919050565b600081546139b381613297565b6139bd8186613986565b945060018216600081146139d857600181146139e957613a1c565b60ff19831686528186019350613a1c565b6139f285613991565b60005b83811015613a14578154818901526001820191506020810190506139f5565b838801955050505b50505092915050565b6000613a3182846139a6565b915081905092915050565b7f5468652070726f706f73616c206973206e6f206c6f6e6765722070656e64696e60008201527f6700000000000000000000000000000000000000000000000000000000000000602082015250565b6000613a986021836131eb565b9150613aa382613a3c565b604082019050919050565b60006020820190508181036000830152613ac781613a8b565b9050919050565b7f54686520616d6f756e74206f66207468652070726f706f73616c206d7573742060008201527f62652067726561746572207468616e2030000000000000000000000000000000602082015250565b6000613b2a6031836131eb565b9150613b3582613ace565b604082019050919050565b60006020820190508181036000830152613b5981613b1d565b9050919050565b613b69816127f9565b82525050565b600060c082019050613b846000830189612e69565b613b916020830188613b60565b613b9e6040830187612e69565b613bab6060830186613b60565b8181036080830152613bbd8185613818565b905081810360a0830152613bd18184613818565b9050979650505050505050565b7f54686520636c756220646f6573206e6f74206578697374000000000000000000600082015250565b6000613c146017836131eb565b9150613c1f82613bde565b602082019050919050565b60006020820190508181036000830152613c4381613c07565b9050919050565b7f54686520636c75622069732066756c6c2c206e6f206d6f7265206d656d62657260008201527f732063616e206265206164646564000000000000000000000000000000000000602082015250565b6000613ca6602e836131eb565b9150613cb182613c4a565b604082019050919050565b60006020820190508181036000830152613cd581613c99565b9050919050565b7f596f752061726520616c72656164792061206d656d626572206f66207468652060008201527f636c756200000000000000000000000000000000000000000000000000000000602082015250565b6000613d386024836131eb565b9150613d4382613cdc565b604082019050919050565b60006020820190508181036000830152613d6781613d2b565b9050919050565b7f5468652070726f706f73616c206973206e6f7420696e2070656e64696e67207360008201527f7461747573000000000000000000000000000000000000000000000000000000602082015250565b6000613dca6025836131eb565b9150613dd582613d6e565b604082019050919050565b60006020820190508181036000830152613df981613dbd565b9050919050565b7f4f6e6c79207468652070726f706f73616c2063726561746f722063616e20636c60008201527f6f7365207468652070726f706f73616c00000000000000000000000000000000602082015250565b6000613e5c6030836131eb565b9150613e6782613e00565b604082019050919050565b60006020820190508181036000830152613e8b81613e4f565b905091905056fea2646970667358221220ebb1e496fcd79e36d0e9fc859acf2921b809aa30becbc8a1c0872d2758010a2764736f6c634300080a0033",
  "linkReferences": {},
  "deployedLinkReferences": {}
}