{
  "_format": "hh-sol-artifact-1",
  "contractName": "InvestmentClub",
  "sourceName": "contracts/InvestmentClub.sol",
  "abi": [
    {
      "inputs": [],
      "stateMutability": "nonpayable",
      "type": "constructor"
    },
    {
      "anonymous": false,
      "inputs": [
        {
          "indexed": false,
          "internalType": "uint256",
          "name": "id",
          "type": "uint256"
        },
        {
          "indexed": false,
          "internalType": "string",
          "name": "name",
          "type": "string"
        },
        {
          "indexed": false,
          "internalType": "uint256",
          "name": "memberCounter",
          "type": "uint256"
        },
        {
          "indexed": false,
          "internalType": "uint256",
          "name": "proposalCounter",
          "type": "uint256"
        },
        {
          "indexed": false,
          "internalType": "uint256",
          "name": "pool",
          "type": "uint256"
        },
        {
          "indexed": false,
          "internalType": "string",
          "name": "CID",
          "type": "string"
        }
      ],
      "name": "ClubInfoEvent",
      "type": "event"
    },
    {
      "anonymous": false,
      "inputs": [
        {
          "indexed": true,
          "internalType": "uint256",
          "name": "clubId",
          "type": "uint256"
        },
        {
          "indexed": false,
          "internalType": "uint256",
          "name": "proposalId",
          "type": "uint256"
        },
        {
          "indexed": false,
          "internalType": "address",
          "name": "creator",
          "type": "address"
        },
        {
          "indexed": false,
          "internalType": "uint256",
          "name": "amount",
          "type": "uint256"
        },
        {
          "indexed": false,
          "internalType": "address",
          "name": "destination",
          "type": "address"
        },
        {
          "indexed": false,
          "internalType": "string",
          "name": "description",
          "type": "string"
        },
        {
          "indexed": false,
          "internalType": "string",
          "name": "Cid",
          "type": "string"
        }
      ],
      "name": "ProposalCreated",
      "type": "event"
    },
    {
      "anonymous": false,
      "inputs": [
        {
          "indexed": false,
          "internalType": "uint256",
          "name": "clubId",
          "type": "uint256"
        },
        {
          "indexed": false,
          "internalType": "uint256",
          "name": "proposalId",
          "type": "uint256"
        },
        {
          "indexed": false,
          "internalType": "address",
          "name": "creator",
          "type": "address"
        },
        {
          "indexed": false,
          "internalType": "uint256",
          "name": "amount",
          "type": "uint256"
        },
        {
          "indexed": false,
          "internalType": "address",
          "name": "destination",
          "type": "address"
        },
        {
          "indexed": false,
          "internalType": "string",
          "name": "status",
          "type": "string"
        },
        {
          "indexed": false,
          "internalType": "string",
          "name": "description",
          "type": "string"
        },
        {
          "indexed": false,
          "internalType": "uint256",
          "name": "votesFor",
          "type": "uint256"
        },
        {
          "indexed": false,
          "internalType": "uint256",
          "name": "votesAgainst",
          "type": "uint256"
        },
        {
          "indexed": false,
          "internalType": "uint256",
          "name": "proposedAt",
          "type": "uint256"
        },
        {
          "indexed": false,
          "internalType": "uint256",
          "name": "proposalExpireAt",
          "type": "uint256"
        },
        {
          "indexed": false,
          "internalType": "string",
          "name": "Cid",
          "type": "string"
        }
      ],
      "name": "ProposalInfoEvent",
      "type": "event"
    },
    {
      "inputs": [
        {
          "internalType": "uint256",
          "name": "clubId",
          "type": "uint256"
        },
        {
          "internalType": "uint256",
          "name": "proposalId",
          "type": "uint256"
        }
      ],
      "name": "closeProposal",
      "outputs": [],
      "stateMutability": "nonpayable",
      "type": "function"
    },
    {
      "inputs": [
        {
          "internalType": "uint256",
          "name": "clubId",
          "type": "uint256"
        }
      ],
      "name": "contributeToClub",
      "outputs": [],
      "stateMutability": "payable",
      "type": "function"
    },
    {
      "inputs": [
        {
          "internalType": "string",
          "name": "name",
          "type": "string"
        },
        {
          "internalType": "string",
          "name": "Cid",
          "type": "string"
        }
      ],
      "name": "createClub",
      "outputs": [
        {
          "internalType": "uint256",
          "name": "",
          "type": "uint256"
        }
      ],
      "stateMutability": "nonpayable",
      "type": "function"
    },
    {
      "inputs": [
        {
          "internalType": "uint256",
          "name": "clubId",
          "type": "uint256"
        },
        {
          "internalType": "uint256",
          "name": "amount",
          "type": "uint256"
        },
        {
          "internalType": "address",
          "name": "destination",
          "type": "address"
        },
        {
          "internalType": "string",
          "name": "description",
          "type": "string"
        },
        {
          "internalType": "string",
          "name": "Cid",
          "type": "string"
        }
      ],
      "name": "createProposal",
      "outputs": [],
      "stateMutability": "nonpayable",
      "type": "function"
    },
    {
      "inputs": [
        {
          "internalType": "uint256",
          "name": "clubId",
          "type": "uint256"
        },
        {
          "internalType": "uint256",
          "name": "proposalId",
          "type": "uint256"
        }
      ],
      "name": "executeProposal",
      "outputs": [],
      "stateMutability": "payable",
      "type": "function"
    },
    {
      "inputs": [
        {
          "internalType": "address",
          "name": "userAddress",
          "type": "address"
        },
        {
          "internalType": "uint256",
          "name": "clubId",
          "type": "uint256"
        }
      ],
      "name": "getBalanceByClub",
      "outputs": [
        {
          "internalType": "uint256",
          "name": "",
          "type": "uint256"
        }
      ],
      "stateMutability": "view",
      "type": "function"
    },
    {
      "inputs": [
        {
          "internalType": "uint256",
          "name": "clubId",
          "type": "uint256"
        }
      ],
      "name": "getClubById",
      "outputs": [
        {
          "components": [
            {
              "internalType": "uint256",
              "name": "clubId",
              "type": "uint256"
            },
            {
              "internalType": "string",
              "name": "name",
              "type": "string"
            },
            {
              "internalType": "uint256",
              "name": "memberCount",
              "type": "uint256"
            },
            {
              "internalType": "uint256",
              "name": "proposalCount",
              "type": "uint256"
            },
            {
              "internalType": "uint256",
              "name": "pool",
              "type": "uint256"
            },
            {
              "internalType": "string",
              "name": "CID",
              "type": "string"
            }
          ],
          "internalType": "struct InvestmentClub.ClubInfo",
          "name": "",
          "type": "tuple"
        }
      ],
      "stateMutability": "view",
      "type": "function"
    },
    {
      "inputs": [],
      "name": "getMyClubs",
      "outputs": [
        {
          "components": [
            {
              "internalType": "uint256",
              "name": "clubId",
              "type": "uint256"
            },
            {
              "internalType": "string",
              "name": "name",
              "type": "string"
            },
            {
              "internalType": "uint256",
              "name": "memberCount",
              "type": "uint256"
            },
            {
              "internalType": "uint256",
              "name": "proposalCount",
              "type": "uint256"
            },
            {
              "internalType": "uint256",
              "name": "pool",
              "type": "uint256"
            },
            {
              "internalType": "string",
              "name": "CID",
              "type": "string"
            }
          ],
          "internalType": "struct InvestmentClub.ClubInfo[]",
          "name": "",
          "type": "tuple[]"
        }
      ],
      "stateMutability": "nonpayable",
      "type": "function"
    },
    {
      "inputs": [
        {
          "internalType": "uint256",
          "name": "clubId",
          "type": "uint256"
        },
        {
          "internalType": "uint256",
          "name": "proposalId",
          "type": "uint256"
        }
      ],
      "name": "getProposalById",
      "outputs": [
        {
          "components": [
            {
              "internalType": "uint256",
              "name": "id",
              "type": "uint256"
            },
            {
              "internalType": "address",
              "name": "creator",
              "type": "address"
            },
            {
              "internalType": "uint256",
              "name": "amount",
              "type": "uint256"
            },
            {
              "internalType": "address",
              "name": "destination",
              "type": "address"
            },
            {
              "internalType": "string",
              "name": "status",
              "type": "string"
            },
            {
              "internalType": "string",
              "name": "description",
              "type": "string"
            },
            {
              "internalType": "uint256",
              "name": "votesFor",
              "type": "uint256"
            },
            {
              "internalType": "uint256",
              "name": "votesAgainst",
              "type": "uint256"
            },
            {
              "internalType": "uint256",
              "name": "proposedAt",
              "type": "uint256"
            },
            {
              "internalType": "uint256",
              "name": "proposalExpireAt",
              "type": "uint256"
            },
            {
              "internalType": "string",
              "name": "Cid",
              "type": "string"
            }
          ],
          "internalType": "struct InvestmentClub.ProposalInfo",
          "name": "",
          "type": "tuple"
        }
      ],
      "stateMutability": "nonpayable",
      "type": "function"
    },
    {
      "inputs": [
        {
          "internalType": "uint256",
          "name": "clubId",
          "type": "uint256"
        }
      ],
      "name": "getProposalsByClub",
      "outputs": [
        {
          "components": [
            {
              "internalType": "uint256",
              "name": "id",
              "type": "uint256"
            },
            {
              "internalType": "address",
              "name": "creator",
              "type": "address"
            },
            {
              "internalType": "uint256",
              "name": "amount",
              "type": "uint256"
            },
            {
              "internalType": "address",
              "name": "destination",
              "type": "address"
            },
            {
              "internalType": "string",
              "name": "status",
              "type": "string"
            },
            {
              "internalType": "string",
              "name": "description",
              "type": "string"
            },
            {
              "internalType": "uint256",
              "name": "votesFor",
              "type": "uint256"
            },
            {
              "internalType": "uint256",
              "name": "votesAgainst",
              "type": "uint256"
            },
            {
              "internalType": "uint256",
              "name": "proposedAt",
              "type": "uint256"
            },
            {
              "internalType": "uint256",
              "name": "proposalExpireAt",
              "type": "uint256"
            },
            {
              "internalType": "string",
              "name": "Cid",
              "type": "string"
            }
          ],
          "internalType": "struct InvestmentClub.ProposalInfo[]",
          "name": "",
          "type": "tuple[]"
        }
      ],
      "stateMutability": "view",
      "type": "function"
    },
    {
      "inputs": [
        {
          "internalType": "address",
          "name": "sender",
          "type": "address"
        },
        {
          "internalType": "uint256",
          "name": "proposalId",
          "type": "uint256"
        },
        {
          "internalType": "uint256",
          "name": "clubId",
          "type": "uint256"
        }
      ],
      "name": "hasVoted",
      "outputs": [
        {
          "internalType": "bool",
          "name": "",
          "type": "bool"
        }
      ],
      "stateMutability": "view",
      "type": "function"
    },
    {
      "inputs": [
        {
          "internalType": "uint256",
          "name": "clubId",
          "type": "uint256"
        }
      ],
      "name": "isClubFull",
      "outputs": [
        {
          "internalType": "bool",
          "name": "",
          "type": "bool"
        }
      ],
      "stateMutability": "view",
      "type": "function"
    },
    {
      "inputs": [
        {
          "internalType": "uint256",
          "name": "clubId",
          "type": "uint256"
        }
      ],
      "name": "isClubIdExist",
      "outputs": [
        {
          "internalType": "bool",
          "name": "",
          "type": "bool"
        }
      ],
      "stateMutability": "view",
      "type": "function"
    },
    {
      "inputs": [
        {
          "internalType": "address",
          "name": "memberAddress",
          "type": "address"
        },
        {
          "internalType": "uint256",
          "name": "clubId",
          "type": "uint256"
        }
      ],
      "name": "isMemberOfClub",
      "outputs": [
        {
          "internalType": "bool",
          "name": "",
          "type": "bool"
        }
      ],
      "stateMutability": "view",
      "type": "function"
    },
    {
      "inputs": [
        {
          "internalType": "uint256",
          "name": "proposalId",
          "type": "uint256"
        },
        {
          "internalType": "uint256",
          "name": "clubId",
          "type": "uint256"
        }
      ],
      "name": "isProposalIdExist",
      "outputs": [
        {
          "internalType": "bool",
          "name": "",
          "type": "bool"
        }
      ],
      "stateMutability": "view",
      "type": "function"
    },
    {
      "inputs": [
        {
          "internalType": "uint256",
          "name": "clubId",
          "type": "uint256"
        },
        {
          "internalType": "uint256",
          "name": "proposalId",
          "type": "uint256"
        }
      ],
      "name": "isVotingOn",
      "outputs": [
        {
          "internalType": "bool",
          "name": "",
          "type": "bool"
        }
      ],
      "stateMutability": "view",
      "type": "function"
    },
    {
      "inputs": [
        {
          "internalType": "uint256",
          "name": "clubId",
          "type": "uint256"
        }
      ],
      "name": "joinClub",
      "outputs": [],
      "stateMutability": "nonpayable",
      "type": "function"
    },
    {
      "inputs": [
        {
          "internalType": "uint256",
          "name": "clubId",
          "type": "uint256"
        }
      ],
      "name": "leaveClub",
      "outputs": [],
      "stateMutability": "nonpayable",
      "type": "function"
    },
    {
      "inputs": [],
      "name": "listClubs",
      "outputs": [
        {
          "components": [
            {
              "internalType": "uint256",
              "name": "clubId",
              "type": "uint256"
            },
            {
              "internalType": "string",
              "name": "name",
              "type": "string"
            },
            {
              "internalType": "uint256",
              "name": "memberCount",
              "type": "uint256"
            },
            {
              "internalType": "uint256",
              "name": "proposalCount",
              "type": "uint256"
            },
            {
              "internalType": "uint256",
              "name": "pool",
              "type": "uint256"
            },
            {
              "internalType": "string",
              "name": "CID",
              "type": "string"
            }
          ],
          "internalType": "struct InvestmentClub.ClubInfo[]",
          "name": "",
          "type": "tuple[]"
        }
      ],
      "stateMutability": "view",
      "type": "function"
    },
    {
      "inputs": [
        {
          "internalType": "uint256",
          "name": "clubId",
          "type": "uint256"
        },
        {
          "internalType": "uint256",
          "name": "proposalId",
          "type": "uint256"
        },
        {
          "internalType": "bool",
          "name": "vote",
          "type": "bool"
        }
      ],
      "name": "voteOnProposal",
      "outputs": [],
      "stateMutability": "nonpayable",
      "type": "function"
    }
  ],
  "bytecode": "0x608060405234801561001057600080fd5b50600060018190555061411c806100286000396000f3fe60806040526004361061011f5760003560e01c80635ff847fb116100a0578063c3741fed11610064578063c3741fed14610415578063c467087814610452578063e15427421461048f578063e7613ea8146104b8578063eec8e0db146104e15761011f565b80635ff847fb1461030a5780636764fd4814610335578063890e24561461037257806389972a32146103af578063ab7ca348146103d85761011f565b806334fa3d83116100e757806334fa3d831461021357806335a1930f146102505780634d7f75c31461028d578063549710be146102b657806354a2e233146102e15761011f565b8063058694a9146101245780630ee294041461016157806314204fc61461019e5780631ab76712146101db578063288509b4146101f7575b600080fd5b34801561013057600080fd5b5061014b60048036038101906101469190612829565b61051e565b6040516101589190612afe565b60405180910390f35b34801561016d57600080fd5b5061018860048036038101906101839190612b4c565b6108ce565b6040516101959190612bba565b60405180910390f35b3480156101aa57600080fd5b506101c560048036038101906101c09190612bd5565b61094d565b6040516101d29190612d12565b60405180910390f35b6101f560048036038101906101f09190612bd5565b610d4d565b005b610211600480360381019061020c9190612829565b611060565b005b34801561021f57600080fd5b5061023a60048036038101906102359190612d34565b6111ca565b6040516102479190612bba565b60405180910390f35b34801561025c57600080fd5b5061027760048036038101906102729190612ea9565b611279565b6040516102849190612f30565b60405180910390f35b34801561029957600080fd5b506102b460048036038101906102af9190612829565b6113d4565b005b3480156102c257600080fd5b506102cb61150e565b6040516102d8919061309d565b60405180910390f35b3480156102ed57600080fd5b50610308600480360381019061030391906130eb565b61179a565b005b34801561031657600080fd5b5061031f611a18565b60405161032c919061309d565b60405180910390f35b34801561034157600080fd5b5061035c60048036038101906103579190612829565b611c32565b6040516103699190612bba565b60405180910390f35b34801561037e57600080fd5b5061039960048036038101906103949190612d34565b611c54565b6040516103a69190612f30565b60405180910390f35b3480156103bb57600080fd5b506103d660048036038101906103d1919061313e565b611cbf565b005b3480156103e457600080fd5b506103ff60048036038101906103fa9190612bd5565b611f88565b60405161040c9190612bba565b60405180910390f35b34801561042157600080fd5b5061043c60048036038101906104379190612829565b611fc3565b6040516104499190613281565b60405180910390f35b34801561045e57600080fd5b5061047960048036038101906104749190612829565b61218c565b6040516104869190612bba565b60405180910390f35b34801561049b57600080fd5b506104b660048036038101906104b19190612829565b6121ae565b005b3480156104c457600080fd5b506104df60048036038101906104da9190612bd5565b612385565b005b3480156104ed57600080fd5b5061050860048036038101906105039190612bd5565b6125bc565b6040516105159190612bba565b60405180910390f35b606061052982611c32565b610568576040517f08c379a000000000000000000000000000000000000000000000000000000000815260040161055f90613300565b60405180910390fd5b600080600084815260200190815260200160002090506000816006015467ffffffffffffffff81111561059e5761059d612d7e565b5b6040519080825280602002602001820160405280156105d757816020015b6105c4612680565b8152602001906001900390816105bc5790505b509050600080600190505b836006015481116108c25760008460050160008381526020019081526020016000209050604051806101600160405280826000015481526020018260010160009054906101000a900473ffffffffffffffffffffffffffffffffffffffff1673ffffffffffffffffffffffffffffffffffffffff168152602001826002015481526020018260030160009054906101000a900473ffffffffffffffffffffffffffffffffffffffff1673ffffffffffffffffffffffffffffffffffffffff1681526020018260040180546106b59061334f565b80601f01602080910402602001604051908101604052809291908181526020018280546106e19061334f565b801561072e5780601f106107035761010080835404028352916020019161072e565b820191906000526020600020905b81548152906001019060200180831161071157829003601f168201915b505050505081526020018260050180546107479061334f565b80601f01602080910402602001604051908101604052809291908181526020018280546107739061334f565b80156107c05780601f10610795576101008083540402835291602001916107c0565b820191906000526020600020905b8154815290600101906020018083116107a357829003601f168201915b505050505081526020018260060154815260200182600701548152602001826008015481526020018260090154815260200182600a0180546108019061334f565b80601f016020809104026020016040519081016040528092919081815260200182805461082d9061334f565b801561087a5780601f1061084f5761010080835404028352916020019161087a565b820191906000526020600020905b81548152906001019060200180831161085d57829003601f168201915b505050505081525084848151811061089557610894613381565b5b602002602001018190525082806108ab906133df565b9350505080806108ba906133df565b9150506105e2565b50819350505050919050565b60008060008381526020019081526020016000206005016000848152602001908152602001600020600b0160008573ffffffffffffffffffffffffffffffffffffffff1673ffffffffffffffffffffffffffffffffffffffff16815260200190815260200160002060009054906101000a900460ff1690509392505050565b610955612680565b61095e83611c32565b61099d576040517f08c379a000000000000000000000000000000000000000000000000000000000815260040161099490613474565b60405180910390fd5b6109a782846125bc565b6109e6576040517f08c379a00000000000000000000000000000000000000000000000000000000081526004016109dd906134e0565b60405180910390fd5b6000806000858152602001908152602001600020600501600084815260200190815260200160002090506000604051806101600160405280836000015481526020018360010160009054906101000a900473ffffffffffffffffffffffffffffffffffffffff1673ffffffffffffffffffffffffffffffffffffffff168152602001836002015481526020018360030160009054906101000a900473ffffffffffffffffffffffffffffffffffffffff1673ffffffffffffffffffffffffffffffffffffffff168152602001836004018054610ac19061334f565b80601f0160208091040260200160405190810160405280929190818152602001828054610aed9061334f565b8015610b3a5780601f10610b0f57610100808354040283529160200191610b3a565b820191906000526020600020905b815481529060010190602001808311610b1d57829003601f168201915b50505050508152602001836005018054610b539061334f565b80601f0160208091040260200160405190810160405280929190818152602001828054610b7f9061334f565b8015610bcc5780601f10610ba157610100808354040283529160200191610bcc565b820191906000526020600020905b815481529060010190602001808311610baf57829003601f168201915b505050505081526020018360060154815260200183600701548152602001836008015481526020018360090154815260200183600a018054610c0d9061334f565b80601f0160208091040260200160405190810160405280929190818152602001828054610c399061334f565b8015610c865780601f10610c5b57610100808354040283529160200191610c86565b820191906000526020600020905b815481529060010190602001808311610c6957829003601f168201915b505050505081525090507ff9f1b5db9cd24932bb03dcbeecf016acc489ae942202eff98982138bc84171c085858460010160009054906101000a900473ffffffffffffffffffffffffffffffffffffffff1685600201548660030160009054906101000a900473ffffffffffffffffffffffffffffffffffffffff16876004018860050189600601548a600701548b600801548c600901548d600a01604051610d3a9c9b9a999897969594939291906135a4565b60405180910390a1809250505092915050565b6000806000848152602001908152602001600020905060008160050160008481526020019081526020016000209050610d8584611c32565b610dc4576040517f08c379a0000000000000000000000000000000000000000000000000000000008152600401610dbb90613474565b60405180910390fd5b610dce33856111ca565b610e0d576040517f08c379a0000000000000000000000000000000000000000000000000000000008152600401610e04906136bf565b60405180910390fd5b610e1783856125bc565b610e56576040517f08c379a0000000000000000000000000000000000000000000000000000000008152600401610e4d906134e0565b60405180910390fd5b610e6084846125f3565b610e9f576040517f08c379a0000000000000000000000000000000000000000000000000000000008152600401610e9690613751565b60405180910390fd5b806002015482600401541015610eea576040517f08c379a0000000000000000000000000000000000000000000000000000000008152600401610ee1906137e3565b60405180910390fd5b8060070154816006015411610f34576040517f08c379a0000000000000000000000000000000000000000000000000000000008152600401610f2b90613875565b60405180910390fd5b610f3e8484611f88565b15610f7e576040517f08c379a0000000000000000000000000000000000000000000000000000000008152600401610f7590613907565b60405180910390fd5b6040518060400160405280600881526020017f4578656375746564000000000000000000000000000000000000000000000000815250816004019080519060200190610fcb929190612706565b508060020154826004016000828254610fe49190613927565b925050819055508060030160009054906101000a900473ffffffffffffffffffffffffffffffffffffffff1673ffffffffffffffffffffffffffffffffffffffff166108fc82600201549081150290604051600060405180830381858888f19350505050158015611059573d6000803e3d6000fd5b5050505050565b61106981611c32565b6110a8576040517f08c379a000000000000000000000000000000000000000000000000000000000815260040161109f90613474565b60405180910390fd5b600080600083815260200190815260200160002090506110c833836111ca565b611107576040517f08c379a00000000000000000000000000000000000000000000000000000000081526004016110fe906136bf565b60405180910390fd5b6000341161114a576040517f08c379a0000000000000000000000000000000000000000000000000000000008152600401611141906139cd565b60405180910390fd5b60008160020160003373ffffffffffffffffffffffffffffffffffffffff1673ffffffffffffffffffffffffffffffffffffffff1681526020019081526020016000209050348160010160008282546111a391906139ed565b92505081905550348260040160008282546111be91906139ed565b92505081905550505050565b60008073ffffffffffffffffffffffffffffffffffffffff1660008084815260200190815260200160002060020160008573ffffffffffffffffffffffffffffffffffffffff1673ffffffffffffffffffffffffffffffffffffffff16815260200190815260200160002060000160009054906101000a900473ffffffffffffffffffffffffffffffffffffffff1673ffffffffffffffffffffffffffffffffffffffff161415905092915050565b6000806001805461128a91906139ed565b905060008060008381526020019081526020016000209050818160000181905550848160010190805190602001906112c3929190612706565b50600081600401819055506000816006018190555060018160030181905550838160070190805190602001906112fa929190612706565b50600060405180604001604052803373ffffffffffffffffffffffffffffffffffffffff16815260200160008152509050808260020160003373ffffffffffffffffffffffffffffffffffffffff1673ffffffffffffffffffffffffffffffffffffffff16815260200190815260200160002060008201518160000160006101000a81548173ffffffffffffffffffffffffffffffffffffffff021916908373ffffffffffffffffffffffffffffffffffffffff160217905550602082015181600101559050508260018190555082935050505092915050565b6113dd81611c32565b61141c576040517f08c379a000000000000000000000000000000000000000000000000000000000815260040161141390613474565b60405180910390fd5b6000806000838152602001908152602001600020905061143c33836111ca565b61147b576040517f08c379a0000000000000000000000000000000000000000000000000000000008152600401611472906136bf565b60405180910390fd5b60018160030160008282546114909190613927565b925050819055508060020160003373ffffffffffffffffffffffffffffffffffffffff1673ffffffffffffffffffffffffffffffffffffffff168152602001908152602001600020600080820160006101000a81549073ffffffffffffffffffffffffffffffffffffffff0219169055600182016000905550505050565b6060600060015467ffffffffffffffff81111561152e5761152d612d7e565b5b60405190808252806020026020018201604052801561156757816020015b61155461278c565b81526020019060019003908161154c5790505b509050600080600190505b6001548111611791576000806000838152602001908152602001600020905061159f3382600001546111ca565b1561177d576040518060c00160405280826000015481526020018260010180546115c89061334f565b80601f01602080910402602001604051908101604052809291908181526020018280546115f49061334f565b80156116415780601f1061161657610100808354040283529160200191611641565b820191906000526020600020905b81548152906001019060200180831161162457829003601f168201915b505050505081526020018260030154815260200182600601548152602001826004015481526020018260070180546116789061334f565b80601f01602080910402602001604051908101604052809291908181526020018280546116a49061334f565b80156116f15780601f106116c6576101008083540402835291602001916116f1565b820191906000526020600020905b8154815290600101906020018083116116d457829003601f168201915b505050505081525084848151811061170c5761170b613381565b5b60200260200101819052508280611722906133df565b9350507f2ab5dc4b0ec72ead814b888a207317dbc9c5dfef0d1fbd7f34ed9e31f136ff8b8160000154826001018360030154846006015485600401548660070160405161177496959493929190613a43565b60405180910390a15b508080611789906133df565b915050611572565b50819250505090565b6117a383611c32565b6117e2576040517f08c379a00000000000000000000000000000000000000000000000000000000081526004016117d990613474565b60405180910390fd5b6117ec8383611f88565b61182b576040517f08c379a000000000000000000000000000000000000000000000000000000000815260040161182290613afe565b60405180910390fd5b6000806000858152602001908152602001600020905061184b33856111ca565b61188a576040517f08c379a0000000000000000000000000000000000000000000000000000000008152600401611881906136bf565b60405180910390fd5b61189483856125bc565b6118d3576040517f08c379a00000000000000000000000000000000000000000000000000000000081526004016118ca906134e0565b60405180910390fd5b600081600501600085815260200190815260200160002090506118f73385876108ce565b15611937576040517f08c379a000000000000000000000000000000000000000000000000000000000815260040161192e90613b90565b60405180910390fd5b6040518060400160405280600781526020017f50656e64696e670000000000000000000000000000000000000000000000000081525080519060200120816004016040516119859190613c4f565b6040518091039020146119cd576040517f08c379a00000000000000000000000000000000000000000000000000000000081526004016119c490613cd8565b60405180910390fd5b82156119f45760018160060160008282546119e891906139ed565b92505081905550611a11565b6001816007016000828254611a0991906139ed565b925050819055505b5050505050565b6060600060015467ffffffffffffffff811115611a3857611a37612d7e565b5b604051908082528060200260200182016040528015611a7157816020015b611a5e61278c565b815260200190600190039081611a565790505b50905060005b600154811015611c2a576000806000600184611a9391906139ed565b815260200190815260200160002090506040518060c0016040528082600001548152602001826001018054611ac79061334f565b80601f0160208091040260200160405190810160405280929190818152602001828054611af39061334f565b8015611b405780601f10611b1557610100808354040283529160200191611b40565b820191906000526020600020905b815481529060010190602001808311611b2357829003601f168201915b50505050508152602001826003015481526020018260060154815260200182600401548152602001826007018054611b779061334f565b80601f0160208091040260200160405190810160405280929190818152602001828054611ba39061334f565b8015611bf05780601f10611bc557610100808354040283529160200191611bf0565b820191906000526020600020905b815481529060010190602001808311611bd357829003601f168201915b5050505050815250838381518110611c0b57611c0a613381565b5b6020026020010181905250508080611c22906133df565b915050611a77565b508091505090565b6000806000808481526020019081526020016000206000015414159050919050565b600080600080848152602001908152602001600020905060008160020160008673ffffffffffffffffffffffffffffffffffffffff1673ffffffffffffffffffffffffffffffffffffffff168152602001908152602001600020905080600101549250505092915050565b611cc885611c32565b611d07576040517f08c379a0000000000000000000000000000000000000000000000000000000008152600401611cfe90613474565b60405180910390fd5b60008060008781526020019081526020016000209050611d2733876111ca565b611d66576040517f08c379a0000000000000000000000000000000000000000000000000000000008152600401611d5d906136bf565b60405180910390fd5b60008511611da9576040517f08c379a0000000000000000000000000000000000000000000000000000000008152600401611da090613d6a565b60405180910390fd5b600060018260060154611dbc91906139ed565b9050600080600089815260200190815260200160002060050160008381526020019081526020016000209050818160000181905550338160010160006101000a81548173ffffffffffffffffffffffffffffffffffffffff021916908373ffffffffffffffffffffffffffffffffffffffff160217905550868160020181905550858160030160006101000a81548173ffffffffffffffffffffffffffffffffffffffff021916908373ffffffffffffffffffffffffffffffffffffffff1602179055506040518060400160405280600781526020017f50656e64696e6700000000000000000000000000000000000000000000000000815250816004019080519060200190611ecd929190612706565b5084816005019080519060200190611ee6929190612706565b50600081600601819055506000816007018190555042816008018190555061012c42611f1291906139ed565b81600901819055508381600a019080519060200190611f32929190612706565b50818360060181905550877fd28f39451a81db59d33c77da433396c23046543154523cb54d6908320f6aa4df83338a8a8a8a604051611f7696959493929190613dc3565b60405180910390a25050505050505050565b600080600080858152602001908152602001600020600501600084815260200190815260200160002090504281600901541191505092915050565b611fcb61278c565b611fd482611c32565b612013576040517f08c379a000000000000000000000000000000000000000000000000000000000815260040161200a90613474565b60405180910390fd5b6000806000848152602001908152602001600020905060006040518060c001604052808360000154815260200183600101805461204f9061334f565b80601f016020809104026020016040519081016040528092919081815260200182805461207b9061334f565b80156120c85780601f1061209d576101008083540402835291602001916120c8565b820191906000526020600020905b8154815290600101906020018083116120ab57829003601f168201915b505050505081526020018360030154815260200183600601548152602001836004015481526020018360070180546120ff9061334f565b80601f016020809104026020016040519081016040528092919081815260200182805461212b9061334f565b80156121785780601f1061214d57610100808354040283529160200191612178565b820191906000526020600020905b81548152906001019060200180831161215b57829003601f168201915b505050505081525090508092505050919050565b6000606360008084815260200190815260200160002060030154109050919050565b6121b781611c32565b6121f6576040517f08c379a00000000000000000000000000000000000000000000000000000000081526004016121ed90613e7e565b60405180910390fd5b600080600083815260200190815260200160002090506122158261218c565b612254576040517f08c379a000000000000000000000000000000000000000000000000000000000815260040161224b90613f10565b60405180910390fd5b61225e33836111ca565b1561229e576040517f08c379a000000000000000000000000000000000000000000000000000000000815260040161229590613fa2565b60405180910390fd5b600060405180604001604052803373ffffffffffffffffffffffffffffffffffffffff16815260200160008152509050808260020160003373ffffffffffffffffffffffffffffffffffffffff1673ffffffffffffffffffffffffffffffffffffffff16815260200190815260200160002060008201518160000160006101000a81548173ffffffffffffffffffffffffffffffffffffffff021916908373ffffffffffffffffffffffffffffffffffffffff16021790555060208201518160010155905050600182600301600082825461237991906139ed565b92505081905550505050565b61238e82611c32565b6123cd576040517f08c379a00000000000000000000000000000000000000000000000000000000081526004016123c490613474565b60405180910390fd5b6123d781836125bc565b612416576040517f08c379a000000000000000000000000000000000000000000000000000000000815260040161240d906134e0565b60405180910390fd5b6124208282611f88565b15612460576040517f08c379a000000000000000000000000000000000000000000000000000000000815260040161245790613907565b60405180910390fd5b6000806000848152602001908152602001600020600501600083815260200190815260200160002090506040518060400160405280600781526020017f50656e64696e670000000000000000000000000000000000000000000000000081525080519060200120816004016040516124d89190613c4f565b604051809103902014612520576040517f08c379a000000000000000000000000000000000000000000000000000000000815260040161251790614034565b60405180910390fd5b61252a83836125f3565b612569576040517f08c379a0000000000000000000000000000000000000000000000000000000008152600401612560906140c6565b60405180910390fd5b6040518060400160405280600681526020017f436c6f73656400000000000000000000000000000000000000000000000000008152508160040190805190602001906125b6929190612706565b50505050565b6000806000808481526020019081526020016000206005016000858152602001908152602001600020600001541415905092915050565b6000806000808581526020019081526020016000209050600081600501600085815260200190815260200160002090508060010160009054906101000a900473ffffffffffffffffffffffffffffffffffffffff1673ffffffffffffffffffffffffffffffffffffffff163373ffffffffffffffffffffffffffffffffffffffff16149250505092915050565b60405180610160016040528060008152602001600073ffffffffffffffffffffffffffffffffffffffff16815260200160008152602001600073ffffffffffffffffffffffffffffffffffffffff168152602001606081526020016060815260200160008152602001600081526020016000815260200160008152602001606081525090565b8280546127129061334f565b90600052602060002090601f016020900481019282612734576000855561277b565b82601f1061274d57805160ff191683800117855561277b565b8280016001018555821561277b579182015b8281111561277a57825182559160200191906001019061275f565b5b50905061278891906127c2565b5090565b6040518060c001604052806000815260200160608152602001600081526020016000815260200160008152602001606081525090565b5b808211156127db5760008160009055506001016127c3565b5090565b6000604051905090565b600080fd5b600080fd5b6000819050919050565b612806816127f3565b811461281157600080fd5b50565b600081359050612823816127fd565b92915050565b60006020828403121561283f5761283e6127e9565b5b600061284d84828501612814565b91505092915050565b600081519050919050565b600082825260208201905092915050565b6000819050602082019050919050565b61288b816127f3565b82525050565b600073ffffffffffffffffffffffffffffffffffffffff82169050919050565b60006128bc82612891565b9050919050565b6128cc816128b1565b82525050565b600081519050919050565b600082825260208201905092915050565b60005b8381101561290c5780820151818401526020810190506128f1565b8381111561291b576000848401525b50505050565b6000601f19601f8301169050919050565b600061293d826128d2565b61294781856128dd565b93506129578185602086016128ee565b61296081612921565b840191505092915050565b6000610160830160008301516129846000860182612882565b50602083015161299760208601826128c3565b5060408301516129aa6040860182612882565b5060608301516129bd60608601826128c3565b50608083015184820360808601526129d58282612932565b91505060a083015184820360a08601526129ef8282612932565b91505060c0830151612a0460c0860182612882565b5060e0830151612a1760e0860182612882565b50610100830151612a2c610100860182612882565b50610120830151612a41610120860182612882565b50610140830151848203610140860152612a5b8282612932565b9150508091505092915050565b6000612a74838361296b565b905092915050565b6000602082019050919050565b6000612a9482612856565b612a9e8185612861565b935083602082028501612ab085612872565b8060005b85811015612aec5784840389528151612acd8582612a68565b9450612ad883612a7c565b925060208a01995050600181019050612ab4565b50829750879550505050505092915050565b60006020820190508181036000830152612b188184612a89565b905092915050565b612b29816128b1565b8114612b3457600080fd5b50565b600081359050612b4681612b20565b92915050565b600080600060608486031215612b6557612b646127e9565b5b6000612b7386828701612b37565b9350506020612b8486828701612814565b9250506040612b9586828701612814565b9150509250925092565b60008115159050919050565b612bb481612b9f565b82525050565b6000602082019050612bcf6000830184612bab565b92915050565b60008060408385031215612bec57612beb6127e9565b5b6000612bfa85828601612814565b9250506020612c0b85828601612814565b9150509250929050565b600061016083016000830151612c2e6000860182612882565b506020830151612c4160208601826128c3565b506040830151612c546040860182612882565b506060830151612c6760608601826128c3565b5060808301518482036080860152612c7f8282612932565b91505060a083015184820360a0860152612c998282612932565b91505060c0830151612cae60c0860182612882565b5060e0830151612cc160e0860182612882565b50610100830151612cd6610100860182612882565b50610120830151612ceb610120860182612882565b50610140830151848203610140860152612d058282612932565b9150508091505092915050565b60006020820190508181036000830152612d2c8184612c15565b905092915050565b60008060408385031215612d4b57612d4a6127e9565b5b6000612d5985828601612b37565b9250506020612d6a85828601612814565b9150509250929050565b600080fd5b600080fd5b7f4e487b7100000000000000000000000000000000000000000000000000000000600052604160045260246000fd5b612db682612921565b810181811067ffffffffffffffff82111715612dd557612dd4612d7e565b5b80604052505050565b6000612de86127df565b9050612df48282612dad565b919050565b600067ffffffffffffffff821115612e1457612e13612d7e565b5b612e1d82612921565b9050602081019050919050565b82818337600083830152505050565b6000612e4c612e4784612df9565b612dde565b905082815260208101848484011115612e6857612e67612d79565b5b612e73848285612e2a565b509392505050565b600082601f830112612e9057612e8f612d74565b5b8135612ea0848260208601612e39565b91505092915050565b60008060408385031215612ec057612ebf6127e9565b5b600083013567ffffffffffffffff811115612ede57612edd6127ee565b5b612eea85828601612e7b565b925050602083013567ffffffffffffffff811115612f0b57612f0a6127ee565b5b612f1785828601612e7b565b9150509250929050565b612f2a816127f3565b82525050565b6000602082019050612f456000830184612f21565b92915050565b600081519050919050565b600082825260208201905092915050565b6000819050602082019050919050565b600060c083016000830151612f8f6000860182612882565b5060208301518482036020860152612fa78282612932565b9150506040830151612fbc6040860182612882565b506060830151612fcf6060860182612882565b506080830151612fe26080860182612882565b5060a083015184820360a0860152612ffa8282612932565b9150508091505092915050565b60006130138383612f77565b905092915050565b6000602082019050919050565b600061303382612f4b565b61303d8185612f56565b93508360208202850161304f85612f67565b8060005b8581101561308b578484038952815161306c8582613007565b94506130778361301b565b925060208a01995050600181019050613053565b50829750879550505050505092915050565b600060208201905081810360008301526130b78184613028565b905092915050565b6130c881612b9f565b81146130d357600080fd5b50565b6000813590506130e5816130bf565b92915050565b600080600060608486031215613104576131036127e9565b5b600061311286828701612814565b935050602061312386828701612814565b9250506040613134868287016130d6565b9150509250925092565b600080600080600060a0868803121561315a576131596127e9565b5b600061316888828901612814565b955050602061317988828901612814565b945050604061318a88828901612b37565b935050606086013567ffffffffffffffff8111156131ab576131aa6127ee565b5b6131b788828901612e7b565b925050608086013567ffffffffffffffff8111156131d8576131d76127ee565b5b6131e488828901612e7b565b9150509295509295909350565b600060c0830160008301516132096000860182612882565b50602083015184820360208601526132218282612932565b91505060408301516132366040860182612882565b5060608301516132496060860182612882565b50608083015161325c6080860182612882565b5060a083015184820360a08601526132748282612932565b9150508091505092915050565b6000602082019050818103600083015261329b81846131f1565b905092915050565b600082825260208201905092915050565b7f436c756220646f6573206e6f7420657869737400000000000000000000000000600082015250565b60006132ea6013836132a3565b91506132f5826132b4565b602082019050919050565b60006020820190508181036000830152613319816132dd565b9050919050565b7f4e487b7100000000000000000000000000000000000000000000000000000000600052602260045260246000fd5b6000600282049050600182168061336757607f821691505b6020821081141561337b5761337a613320565b5b50919050565b7f4e487b7100000000000000000000000000000000000000000000000000000000600052603260045260246000fd5b7f4e487b7100000000000000000000000000000000000000000000000000000000600052601160045260246000fd5b60006133ea826127f3565b91507fffffffffffffffffffffffffffffffffffffffffffffffffffffffffffffffff82141561341d5761341c6133b0565b5b600182019050919050565b7f74686520636c756220646f6573206e6f74206578697374000000000000000000600082015250565b600061345e6017836132a3565b915061346982613428565b602082019050919050565b6000602082019050818103600083015261348d81613451565b9050919050565b7f5468652070726f706f73616c20646f6573206e6f742065786973740000000000600082015250565b60006134ca601b836132a3565b91506134d582613494565b602082019050919050565b600060208201905081810360008301526134f9816134bd565b9050919050565b613509816128b1565b82525050565b60008190508160005260206000209050919050565b600081546135318161334f565b61353b81866132a3565b9450600182166000811461355657600181146135685761359b565b60ff198316865260208601935061359b565b6135718561350f565b60005b8381101561359357815481890152600182019150602081019050613574565b808801955050505b50505092915050565b6000610180820190506135ba600083018f612f21565b6135c7602083018e612f21565b6135d4604083018d613500565b6135e1606083018c612f21565b6135ee608083018b613500565b81810360a0830152613600818a613524565b905081810360c08301526136148189613524565b905061362360e0830188612f21565b613631610100830187612f21565b61363f610120830186612f21565b61364d610140830185612f21565b8181036101608301526136608184613524565b90509d9c50505050505050505050505050565b7f596f7520617265206e6f742061206d656d626572206f662074686520636c7562600082015250565b60006136a96020836132a3565b91506136b482613673565b602082019050919050565b600060208201905081810360008301526136d88161369c565b9050919050565b7f4f6e6c79207468652063726561746f72206f66207468652070726f706f73616c60008201527f2063616e20657865637574652069740000000000000000000000000000000000602082015250565b600061373b602f836132a3565b9150613746826136df565b604082019050919050565b6000602082019050818103600083015261376a8161372e565b9050919050565b7f54686520616d6f756e7420657863656564732074686520706f6f6c206f66207460008201527f686520636c756200000000000000000000000000000000000000000000000000602082015250565b60006137cd6027836132a3565b91506137d882613771565b604082019050919050565b600060208201905081810360008301526137fc816137c0565b9050919050565b7f5468652070726f706f73616c20686173206e6f74206265656e20617070726f7660008201527f6564000000000000000000000000000000000000000000000000000000000000602082015250565b600061385f6022836132a3565b915061386a82613803565b604082019050919050565b6000602082019050818103600083015261388e81613852565b9050919050565b7f596f752063616e2774206265666f72652074686520566f74696e67206465616460008201527f6c696e6500000000000000000000000000000000000000000000000000000000602082015250565b60006138f16024836132a3565b91506138fc82613895565b604082019050919050565b60006020820190508181036000830152613920816138e4565b9050919050565b6000613932826127f3565b915061393d836127f3565b9250828210156139505761394f6133b0565b5b828203905092915050565b7f596f75206d7573742073656e642045564d4f5320746f20636f6e74726962757460008201527f6500000000000000000000000000000000000000000000000000000000000000602082015250565b60006139b76021836132a3565b91506139c28261395b565b604082019050919050565b600060208201905081810360008301526139e6816139aa565b9050919050565b60006139f8826127f3565b9150613a03836127f3565b9250827fffffffffffffffffffffffffffffffffffffffffffffffffffffffffffffffff03821115613a3857613a376133b0565b5b828201905092915050565b600060c082019050613a586000830189612f21565b8181036020830152613a6a8188613524565b9050613a796040830187612f21565b613a866060830186612f21565b613a936080830185612f21565b81810360a0830152613aa58184613524565b9050979650505050505050565b7f566f74696e6720506572696f642046696e697368656400000000000000000000600082015250565b6000613ae86016836132a3565b9150613af382613ab2565b602082019050919050565b60006020820190508181036000830152613b1781613adb565b9050919050565b7f596f75206861766520616c726561647920766f746564206f6e2074686973207060008201527f726f706f73616c00000000000000000000000000000000000000000000000000602082015250565b6000613b7a6027836132a3565b9150613b8582613b1e565b604082019050919050565b60006020820190508181036000830152613ba981613b6d565b9050919050565b600081905092915050565b60008190508160005260206000209050919050565b60008154613bdd8161334f565b613be78186613bb0565b94506001821660008114613c025760018114613c1357613c46565b60ff19831686528186019350613c46565b613c1c85613bbb565b60005b83811015613c3e57815481890152600182019150602081019050613c1f565b838801955050505b50505092915050565b6000613c5b8284613bd0565b915081905092915050565b7f5468652070726f706f73616c206973206e6f206c6f6e6765722070656e64696e60008201527f6700000000000000000000000000000000000000000000000000000000000000602082015250565b6000613cc26021836132a3565b9150613ccd82613c66565b604082019050919050565b60006020820190508181036000830152613cf181613cb5565b9050919050565b7f54686520616d6f756e74206f66207468652070726f706f73616c206d7573742060008201527f62652067726561746572207468616e2030000000000000000000000000000000602082015250565b6000613d546031836132a3565b9150613d5f82613cf8565b604082019050919050565b60006020820190508181036000830152613d8381613d47565b9050919050565b6000613d95826128d2565b613d9f81856132a3565b9350613daf8185602086016128ee565b613db881612921565b840191505092915050565b600060c082019050613dd86000830189612f21565b613de56020830188613500565b613df26040830187612f21565b613dff6060830186613500565b8181036080830152613e118185613d8a565b905081810360a0830152613e258184613d8a565b9050979650505050505050565b7f54686520636c756220646f6573206e6f74206578697374000000000000000000600082015250565b6000613e686017836132a3565b9150613e7382613e32565b602082019050919050565b60006020820190508181036000830152613e9781613e5b565b9050919050565b7f54686520636c75622069732066756c6c2c206e6f206d6f7265206d656d62657260008201527f732063616e206265206164646564000000000000000000000000000000000000602082015250565b6000613efa602e836132a3565b9150613f0582613e9e565b604082019050919050565b60006020820190508181036000830152613f2981613eed565b9050919050565b7f596f752061726520616c72656164792061206d656d626572206f66207468652060008201527f636c756200000000000000000000000000000000000000000000000000000000602082015250565b6000613f8c6024836132a3565b9150613f9782613f30565b604082019050919050565b60006020820190508181036000830152613fbb81613f7f565b9050919050565b7f5468652070726f706f73616c206973206e6f7420696e2070656e64696e67207360008201527f7461747573000000000000000000000000000000000000000000000000000000602082015250565b600061401e6025836132a3565b915061402982613fc2565b604082019050919050565b6000602082019050818103600083015261404d81614011565b9050919050565b7f4f6e6c79207468652070726f706f73616c2063726561746f722063616e20636c60008201527f6f7365207468652070726f706f73616c00000000000000000000000000000000602082015250565b60006140b06030836132a3565b91506140bb82614054565b604082019050919050565b600060208201905081810360008301526140df816140a3565b905091905056fea2646970667358221220fac85ca96e6c6a4cf28f91071ae7991ffa80dbf0599186b6ce792f160766b80664736f6c634300080a0033",
  "linkReferences": {},
  "deployedLinkReferences": {}
}